:020000040000FA
:06000000020AD00201B368
:030013000201D611
:03002B00020924A3
:030033000206D3EF
:03003B0002022B93
:030053000200E4C4
:03006B000206ADDD
:100083000201480101FF01010503010F10FEFF5AA0
:10009300135A135A135A13161210125A139F1F008E
:1000A3000000006320000000000C0000000C0001B1
:1000B300FFFF0102005805000000CB0564000202A7
:1000C30000080000050207051E02051E020A0A03B6
:1000D300B80B02803E0102FFFF1496511800020282
:1000E30006C0E074F2120473A2AFE433FED2AFE5AC
:1000F300A7FFE5A1F5085F54106006121A6E75A1FB
:10010300EFE5085F54086008121A7475A1F7802B95
:10011300EFA2E0C0D0E508A2E092F0120A0D15812B
:1001230082F05017906198E0F89007A3E0C398A27B
:10013300D265D0335002E8F075A1FEEEA2E092AF93
:100143007F0102052AC0E074F2120473A2AFE43304
:10015300FED2AF9061A4E0F8759B00E59158540876
:1001630060087591F7121ABC802AE5915854106003
:10017300087591EF121AC2801BE8A2E0C0D0E59186
:10018300A2E092F0120A0D158182F05007E0C2E05E
:10019300F0121C069061A3E0F8E5E9585404600EE0
:1001A300121BDC75E9FB906193E0A2E640F2808BC1
:1001B300C0E074F2120473A2AFE433FED2AF9061D5
:1001C300A5E0F8E5BF585404600675BFFB121C1E7A
:1001D30002013EC0E0C0D0E8C0E0E9C0E0C082C098
:1001E30083E5C1C0E090070FE0F8748E28F58274B0
:1001F300063400F583D0E0F090070EE0F8A3E06842
:100203007006E595900711F090070FE004F0C39492
:10021300804002E4F0A374C6F0D083D082D0E0F92A
:10022300D0E0F8D0D0D0E032C0E0C0D0E8C0E0C029
:1002330008C009C082C083900792E0F8A3E0687009
:1002430008539AFBA374018026C2E9900792E0F554
:100253000874012508F074122508F5827407340028
:10026300F583E0F5C1900792E0C394804002E4F087
:10027300D083D082D009D00880A6C3E498F8E4994B
:10028300F91202BE8026C3E49AFAE49BFBE920E755
:10029300E91202BEE498F8E499F922C3E498F8E479
:1002A30099F91202BEE498F8E499F9C3E49AFAE4DE
:1002B3009BFB22EB20E7CFE920E7E0B90010BB006E
:1002C30008E88AF084F8AAF022E4FBC8FA22EB706B
:1002D300227B10C833C8C933C9335007C39AC3DB61
:1002E300F280069A50012ADBEAC833F4C8C933F412
:1002F300C9FA2275F008E4C833C8C933C933C99AA7
:10030300C99B5004C92AC93BD5F0ECFBC833F4C8D8
:10031300E4C9FA22080808EAC0E0EBC0E086F0E787
:10032300A4FA180986F0E7A42AFA180986F0E7A4C4
:100333002AFA180986F0E7A42AFA1986F0E7A4FB3B
:10034300E5F02AFA190886F0E7A42BFBE5F03AFA60
:10035300190886F0E7A42BFBE5F03AFA181809868A
:10036300F0E7A4C5F02BFBE43AFA1908E7C5F0C699
:10037300A426F6E5F03BFBE43AFA1886F0E7A4F688
:10038300E5F00826F6E43B08F6E43A08F6D0E0FB8D
:10039300D0E0FA22E4CFC0E0E4CEC0E0E4CDC0E098
:1003A300E4CCC0E075F020C3E633F608E633F60884
:1003B300E633F608E633F6181818EC33FCED33FD94
:1003C300EE33FEEF33FFC3EC9709ED9709EE970980
:1003D300EF97191919400FFFEC97FC09ED97FD09E9
:1003E300EE97FE191906D5F0BEECF709EDF709EE05
:1003F300F709EFF7191919D0E0FCD0E0FDD0E0FEC2
:10040300D0E0FF222518C582C0E0E51934FFC5837B
:10041300C0E0E518C3958224F810AF0885831985D9
:1004230082188008858319858218D2AFCEF0A3E5A0
:1004330020F0A37808E608F0A3DEFAEFF0A3E58145
:1004430024FAF8E608F0A3E608F0A3E608F0A30808
:1004530008E608F0A3E608F0A315811581D0E0FEB5
:10046300D0E0F8158115811581E8C0E0EEC0E022E7
:10047300C0D02518C582C0E0E51934FFC583C0E0AC
:10048300E518C3958224F310AF0885831985821874
:100493008008858319858218D2AFC8F0A3E9F0A339
:1004A300EAF0A3EBF0A37908E709F0A3D8FAECF09C
:1004B300A3EDF0A3EEF0A3EFF0A3D0E0F0A3D0E020
:1004C300F0A3D0E0F0A3E520F0A3E5F0F0A322121F
:1004D3000B32B90003020514E4900301786A790B27
:1004E3008002F0A3D8FCD9FA900D6AAA82AB83905C
:1004F3000086785F79018015E493A3AC82AD838A8B
:10050300828B83F0A3AA82AB838C828D83D8E9D9B3
:10051300E775824E7583D774031208837582A675B7
:10052300831E7400120883851983851882E0C0E056
:10053300A3E0F9A3E0FAA3E0FBA37808E0F608A39D
:10054300DFFAE0FCA3E0FDA3E0FEA3E0FFA3E0C02D
:10055300E0A3E0C0E0A3E0F5D0A3E0F520A3E0A38F
:10056300F5F010AF088583198582188008858319F3
:10057300858218D2AFD082D083D0E0F8D0E0320E9B
:100583000075F0108E1A8F1B85821F85831E8518B8
:1005930082851983E0CEA3E0CF851F82851E83EB7E
:1005A300C9EAC8EDCBECCAC3E833C8E933C9EA33B7
:1005B300CAEB33CBC3EA9EF51DEB9FF51CB3500486
:1005C300AB1CAA1DEC33CCED33CDD5F0DAAE1AAFAC
:1005D3001B22D083D082ECC0E0EDC0E0E493A3FC07
:1005E300E493A3FDED4C600D1206F1EC24FFFCED4A
:1005F30034FFFD80EFE493A3FCE493A3FDED4C6093
:100603000D12078EEC24FFFCED34FFFD80EFD0E0EC
:10061300FDD0E0FCE493A3C0E0E493C0E022D083E8
:10062300D082E9C0E0E493A3C386F0C5F095F0F966
:1006330008E493A386F0C5F095F0700BE493A3C38D
:10064300994005E9048002A3E475F002A42582F52C
:1006530082E5F03583F583D0E0F9E493A3C0E0E4C9
:1006630093C0E022851983851882E0A3FEE0A3F5F9
:10067300207808E0A3F608DFFAE0A3FFE0A3C0E0D8
:10068300E0A3C0E0E0A3C0E0E0A3C0E0E0A3C0E0DB
:1006930010AF0885821885831980088582188583A1
:1006A30019D2AFD083D082020889C0E074F2120459
:1006B30073A2AFE433FED2AFE589A2E4500312196B
:1006C300AE758900C2C5EEA2E092AF7F0102052A92
:1006D300C0E074F2120473A2AFE433FED2AFE58B31
:1006E300A2E050031219AE758B00C2E880D8C0E0B7
:1006F300C3E49396087401939618400FE4936670CD
:100703000808740193661870007019A3A3C3E493D7
:1007130096087401939618A3A3400DD0E0D0E0D0BF
:10072300E0020611A3A3A3A3A3A3D0E02274048031
:100733000474028000CCC0E0EDC0E0E518C39CCC9B
:10074300AD1950011D10AF068C188D1980068C1839
:100753008D19D2AF120805D0E0FDD0E0FC2274025F
:100763008000CCC0E0EDC0E0E518C39CCCAD1950CF
:10077300011D10AF068C188D1980068C188D19D2A7
:10078300AF1207E3D0E0FDD0E0FC22C0E0C0F08868
:10079300F0E4936670080874019366187000A8F07B
:1007A300A3A3700BD0F0D0E0D0E0D0E0020611A3F9
:1007B300A3D0F0D0E022D083D082CCC0E0E493A3D6
:1007C30060061208451470FAE493A3600612096BDD
:1007D3001470FAD0E0FCE493A3C0E0E493C0E022F9
:1007E300CAC0E0E493A3C582CCC582C583CDC583CB
:1007F300F0A3C582CCC582C583CDC583DAE5D0E03D
:10080300CA22CAC0E0E0A3C582CCC582C583CDC5D8
:1008130083F0A3C582CCC582C583CDC583DAE6D078
:10082300E0CA227009080808226016181818C6C3FF
:1008330033C608C633C608C633C608C633C6D5E0B2
:10084300EA22C0E0E493A3D39C5010E493A3C39C97
:10085300400AD0E0D0E0D0E00207D6A3A3A3D0E0C3
:1008630022C008C3E096F50808A3E096420808A34F
:10087300E096420808A3E09645087001D3D0082209
:10088300C09FF59FE473D09F22D083D082C09FE4A2
:1008930093C0E0740193C0E0740293F59F2225187E
:1008A300F58210AF08F518400215198008F51840B5
:1008B300021519D2AF851983227404800A74038048
:1008C30006740280027401C0E0F4041208A1D0E0AF
:1008D300120B0D22C0D0251810AF08F518500205D1
:1008E300198008F51850020519D2AFD0D022BB01E8
:1008F30002E722C082C08389828A83BB0003E0802F
:1009030002E493D083D082226016080808C6C3137A
:10091300C618C613C618C613C618C613C6D5E0EA4A
:1009230022C0E0C0D0E8C0E0E5A8D2AFC2C7A2E7CA
:1009330092AFD0E0F8D0D0D0E032C3E0C696F6084C
:10094300A3E0C696F608A3E0C696F608A3E0C6960B
:10095300F622251810AF08F518400215198008F57E
:100963001840021519D2AF22C0E0E493A36C7009BA
:10097300D0E0D0E0D0E00207D6A3A3D0E022E06627
:10098300701008A3E066700A08A3E066700408A369
:10099300E06622E76670100809E766700A0809E74F
:1009A3006670040809E76622C3E09608A3E0960888
:1009B300A3E09608A3E096A2D265D03322C3E096C3
:1009C300F008A3E096F008A3E096F008A3E096F001
:1009D30022E026F008A3E036F008A3E036F008A3EF
:1009E300E036F022E627F60809E637F60809E63787
:1009F300F60809E637F622E026F608A3E036F608FD
:100A0300A3E036F608A3E036F622C0E0E8C0E0E54E
:100A13008124FCF8E6A2E7D0E0F8D0E022700422BB
:100A2300600D18C6C333C608C633C6D5E0F4182212
:100A3300E657F60809E657F60809E657F60809E601
:100A430057F622E056F608A3E056F608A3E056F65A
:100A530008A3E056F622E056F008A3E056F008A3F8
:100A6300E056F008A3E056F022E647F60809E64709
:100A7300F60809E647F60809E647F622E4C396F6C0
:100A830008E496F608E496F608E496F622C3E79699
:100A93000809E7960809E7960809E79622C6F4C607
:100AA30008C6F4C608C6F4C608C6F4C622600D0814
:100AB300C6A2E713C618C613C6D5E0F322C3E09651
:100AC30008A3E09608A3E09608A3E0962275D00059
:100AD300758140751801751903000204D2E0F60808
:100AE300A3E0F608A3E0F608A3E0F622600C08C62C
:100AF300C313C618C613C6D5E0F422E6F008A3E66E
:100B0300F008A3E6F008A3E6F022CAC0E0E6F0A3EB
:100B130008DAFAD0E0FA22E0FAA3E0FBA3E0FCA3B0
:100B2300E0FD22EAF0A3EBF0A3ECF0A3EDF022E565
:100B3300C754F84401F5C77901222518F582E43535
:100B430019F58322C2AF75D69F0200002212088CCA
:100B5300B9E00212088C0EE30212088C5BE4021265
:100B6300088CFEE40212088C45E60212088C63E648
:100B73000212088CB2220012088CC4220012088CC4
:100B830016230012088C77230012088C012400120C
:100B9300088CA5240012088CF9240012088C122555
:100BA3000012088C38250012088C73250012088C5B
:100BB300B7250012088CDE250012088C2F260012A0
:100BC300088CDF260012088C97270012088C5F28F8
:100BD3000012088C1F290012088C63290012088C4C
:100BE30088290012088CCB290012088C182A0012BD
:100BF300088C702B0012088CF62B0012088C142C16
:100C03000012088C3E2C0012088C582C0012088C01
:100C1300672C0012088C722C0012088C322D0012E3
:100C2300088C8B2D0012088C4D2E0012088C552E2B
:100C33000012088C192F0012088C852F0012088CC3
:100C4300B0300012088CD5300012088C4B310012E2
:100C5300088CDD310012088C9D320012088CBC32E6
:100C63000012088CCB330012088CDD330012088C81
:100C73004D340012088C77340012088C05350012AD
:100C8300088C3E350012088C8A350012088CA63673
:100C93000012088CEF380012088CFA380012088C06
:100CA30005390012088C10390012088C1A39001209
:100CB300088C25390012088C3F390012088C4939F9
:100CC3000012088C53390012088C5E390012088C0C
:100CD30086390012088CE1390012088CEB390012B6
:100CE300088C0F3A0012088C333A0012088C913AA0
:100CF3000012088CD53A0012088CF13A0012088CC5
:100D0300683B0012088CA03B0012088CEC3B0012DD
:100D1300088C493C0012088C033D0012088CE73E06
:100D23000012088C403F0012088C70400012088C9F
:100D330096400012088C1F420012088C9B4500123B
:100D4300088C6D470012088C36490012088CE34961
:100D53000012088C4E4B0012088CED4B0012088CCD
:100D6300324C0012088C9C4C0012088CAB4C0012C5
:100D7300088C324F0012088CE4500012088C515139
:100D83000012088C30520012088C49530012088C50
:100D9300C6540012088CE5540012088C3A55001210
:100DA300088C3F560012088C67560012088CBF56F9
:100DB3000012088C9E570012088CE2570012088C10
:100DC3002D580012088C98580012088CD95900121B
:100DD300088C3D5A0012088C8B5B0012088CEB5D6B
:100DE3000012088C1C5E0012088CD45F0012088C61
:100DF30029600012088C2D610012088CCA61001250
:100E0300088C23620012088CD6620012088C786367
:100E13000012088C18640012088CBD640012088C40
:100E23009D800112088CDC800112088C238301123F
:100E3300088C6D830112088C88840112088CF0845D
:100E43000112088C25850112088C99860112088CE1
:100E53001C890112088C458A0112088CDB8A011255
:100E6300088CE3930112088C78940112088C5F9725
:100E73000112088C52980112088CC0980112088C38
:100E8300069A0112088CE89A0112088CCD9C011273
:100E9300088CDE9E0112088C489F0112088C1AA050
:100EA3000112088C48A00112088C05A10112088CBC
:100EB300DCA10112088CA3A20112088C47A3011222
:100EC300088C70A30112088C92A30112088CE8A568
:100ED3000112088CC0A60112088C04A70112088C09
:100EE3006CA70112088C24A80112088C56A80112C1
:100EF300088C9AA80112088CD0A80112088C1CA98E
:100F03000112088C71A90112088C76A90112088CB0
:100F1300C9A90112088CEEA90112088CFDAA0112BD
:100F2300088C61AB0112088CD1AB0112088C5DAC4B
:100F33000112088C2AAF0112088C0EB00112088C22
:100F430091B10112088CC7B30112088C75B4011258
:100F5300088C25B50112088C66B70112088C09B8F4
:100F63000112088C50B80112088CFCB90112088CCC
:100F730010BA0112088C1ABA0112088C42BA011273
:100F8300088C4EBA0112088C6DBA0112088C8DBC04
:100F93000112088CDCBD0112088C20BE0112088CE2
:100FA300C8BE0112088CABBF0112088C56C00112D7
:100FB300088CA2C10112088CA0C20112088C46C37E
:100FC3000112088CD6C30112088CEDC30112088CE0
:100FD30024C40112088C2EC40112088C39C40112D6
:100FE300088C57C40112088C9BC40112088CF8C4E6
:100FF3000112088C1DC50112088C37C50112088C1B
:10100300C3C50112088CE0C60112088C4DC701123A
:10101300088C34C80112088C5BC80112088CCFC835
:101023000112088C4AC90112088C4ECA0112088C9D
:1010330044CB0112088CF3CB0112088C06CD0112AC
:10104300088CA2CD0112088C2FCE0112088C0DCF73
:101053000112088C45CF0112088C9DCF0112088C18
:1010630066D00112088C87D00112088C0ED10112B0
:10107300088C32D10112088C54D10112088C9DD1F5
:101083000112088CB3D30112088C9AD40112088C74
:101093004BD50112088C81D70112088CD1D70112CC
:1010A300088C11D80112088C53D80112088CAFD8C0
:1010B3000112088CDDD80112088C01D90112088CA9
:1010C30054D90112088C82D90112088CBBD90112A0
:1010D300088C10DA0112088C76DA0112088CCADB4C
:1010E3000112088CEDDD0112088C5ADE0112088C06
:1010F30083DE0112088C0EDF0112088C75DF0112EA
:10110300088CC0DF0112088CE4DF0112088C08E0B0
:101113000112088C63E00112088C7EE00112088C36
:1011230037E10112088C64E60312088CA3E603126C
:10113300088C78800212088CBE800212088C9E8173
:101143000212088CA0820212088CA3830212088C5C
:101153002F850212088C8D850212088C4A86021292
:10116300088C68870212088CD9870212088C1588AC
:101173000212088C63880212088C6D880212088C94
:10118300B1880212088C0D890212088CA8890212F8
:10119300088C258A0212088CF48A0212088C8D8B23
:1011A3000212088CAD8B0212088CE38B0212088C9E
:1011B300148C0212088CD58C0212088CE58C021256
:1011C300088C398D0212088C548D0212088C668D9E
:1011D3000212088C6F8D0212088CC98D0212088CC2
:1011E300258E0212088C718E0212088C8C8E0212CC
:1011F300088CBD8E0212088CDA8E0212088CE68EE1
:101203000212088C5A900212088C73900212088CF6
:10121300DA900212088CED900212088CFB900212F5
:10122300088CAF910212088C93920212088C999346
:101233000212088C23940212088C2D940212088C3B
:101243009A940212088CB1940212088CE39402124D
:10125300088C1C950212088C46950212088CA795DF
:101263000212088CC7950212088CE5950212088CAD
:101273002B960212088C51970212088C9E97021229
:10128300088CCD970212088C43980212088C6B9835
:101293000212088CA4980212088CB2980212088CCD
:1012A3000A990212088C59990212088C9899021211
:1012B300088CC8990212088CF4990212088CFF99C1
:1012C3000212088C1D9A0212088CDF9A0212088CF3
:1012D300E99A0212088C2A9B0212088C7F9B021245
:1012E300088C939B0212088CA19C0212088CB49C5C
:1012F3000212088CC99C0212088C6B9D0212088C86
:10130300EE9D0212088CAC9E0212088CB79E02124C
:10131300088CE39F0212088CFF9F0212088C51A0D5
:101323000212088C90A00212088CA5A00212088C4D
:1013330007A10212088C96A10212088CE1A10212E5
:10134300088C32A40212088CB0A40212088C25A5C2
:101353000212088C47A70212088C5FA70212088C9E
:1013630062A70212088C6EA70212088C82A70212CF
:10137300088C8AA70212088CBDA70212088C6DA8DC
:101383000212088CE3A80212088C56A90212088CD8
:101393000AAA0212088CBFAA0212088CDEAA021241
:1013A300088C84AB0212088CAFAB0212088CB2AB70
:1013B3000212088C1CAC0212088C44AD0212088C79
:1013C3001CAE0212088CA7AE0212088CC0AF021228
:1013D300088C7DB00212088CB6B00212088CE7B0FC
:1013E3000212088CA5B10212088CD5B10212088C26
:1013F300B0B20212088C49B30212088CD4B30212A1
:10140300088C85B40212088C08B50212088C3AB510
:101413000212088C7BB50212088CFBF40112088CB3
:1014230060F50112088C9DF50112088CECF5011290
:10143300088C02F80112088CE5F90112088C4FFDA3
:101443000112088C8AFD0112088CBDD70212088C88
:101453000FFE0112088C43FE0112088C66FE011276
:10146300088C93FE0112088CEFFE0112088C278D65
:101473000312088CA58D0312088CDB8D0312088CD4
:10148300478E0312088CBA8F0312088CD68F03126F
:10149300088C1B900312088CA9900312088C0291EC
:1014A3000312088CD7DF0212088C41930312088CB5
:1014B3009E930312088C0A940312088C6B940312F4
:1014C300088CAC940312088C59950312088C6B9604
:1014D3000312088C96960312088CE1960312088C6B
:1014E30028970312088CBA970312088C7598031275
:1014F300088C2EDB0312088CA8DB0312088CB3DBE9
:101503000312088C30A00312088C7CA00312088CF1
:10151300EAA00312088C0BA10312088CBBA10312CF
:10152300088CC4A10312088C17A20312088C40A2D2
:101533000312088CA7A20312088C38A30312088C89
:101543007AA30312088CC4A30312088C23A40312E6
:10155300088C4FA40312088CE0A40312088C1FA567
:101563000312088C5EA50312088C93A50312088C42
:10157300A5A50312088CB7A50312088CD6A50312E0
:10158300088CDFA50312088C95A60312088CD5A638
:101593000312088CAAE20312088C1CD50312088CD0
:1015A30052D50312088C9BD50312088CEBD6031279
:1015B300088C71E10112088CB0E20112088CECE294
:1015C3000112088CABE40112088CD4E40112088CDC
:1015D30067E70112088CABE70112088C34E90112AA
:1015E300088CCCE90112088C34EA0112088CD5EA84
:1015F3000112088C17EB0112088C57EB0112088CAF
:10160300E2EC0112088C52EE0112088C77F0011201
:10161300088CA5F00112088CCCF00112088CD5F0CF
:101623000112088C5CF10112088C7AF40112088C07
:101633007CE70312088C92E70312088C19E6031265
:10164300088CBFC70312088CD2C70312088C6FC85B
:101653000312088CAAC80312088CC5C80312088C8D
:10166300EAC80312088C2FC90312088C60C903123D
:10167300088C91C90312088C17CB0312088C3BFF0B
:101683000112088C71FF0112088C8DFF0112088C66
:10169300CFFF0112088CDFFF0112088C2CB5031257
:1016A300088CD8B50312088CA6B60312088C54B75D
:1016B3000312088C98B70312088C13B80312088C12
:1016C30000800312088C55800312088C3E8103129C
:1016D300088CD7810312088C21820312088C7E8226
:1016E3000312088C92820312088CC4820312088CA2
:1016F300C2830312088C06840312088C218403120C
:10170300088C70840312088C86840312088C9384DB
:101713000312088CC7840312088CE0840312088C1C
:10172300AA850312088C04860312088C52860312BE
:10173300088C74860312088CEB880312088C2089AA
:101743000312088CB0890312088C258A0312088CB3
:101753002A8A0312088C668A0312088CBC8A031235
:10176300088C808B0312088CA58B0312088CAF8B1B
:101773000312088CB28B0312088C3B8C0312088C67
:10178300568C0312088C698C0312088CA48C0312E8
:10179300088CA78C0312088CB28C0312088CEE8C75
:1017A3000312088CCCE50312088CE4E50312088CC1
:1017B300EC980312088C3B990312088CDD9A0312F0
:1017C300088C999C0312088CE19C0312088CC99D18
:1017D3000312088CFA9E0312088C1C9F0312088CB8
:1017E300789F0312088CFC9F0312088C0965001272
:1017F300088C2A650012088CA7650012088C2C66D9
:101803000012088CA8660012088C11670012088C5D
:101813005D670012088CDC670012088C6E6800128A
:10182300088CFA680012088C3C690012088C856DDC
:101833000012088C056F0012088CDB6F0012088CF5
:101843000A700012088CF5710012088C757400126E
:10185300088C2E750012088C4B760012088CA27926
:101863000012088CB2790012088C137B0012088CCA
:101873009F7B0012088CC87C0012088CB97D001273
:10188300088C3B7E0012088C8AE60212088C44E71F
:101893000212088CB6E70212088C52E80212088C76
:1018A300C2E80212088C7BEB0212088C52EC021283
:1018B300088CBFEC0212088C3CEE0212088C06EF77
:1018C3000212088C76EF0212088C3FF10212088C88
:1018D30052F20212088CEBF20212088CB1F30212DC
:1018E300088C1BBD0312088C6FBD0312088CC7BD87
:1018F3000312088C12BE0312088C74BE0312088CE8
:10190300E0BE0312088C93BF0312088CD4BF0312EA
:10191300088CEABF0312088C46C00312088C84C0EB
:101923000312088C54D90312088C85D90312088C2E
:101933003FDA0312088CA5DA0312088CC8D7031206
:10194300088C7DE30312088C8EE30312088C2EE4CB
:101953000312088C41FE0212088C4FFE0212088CFF
:10196300E67F0012088CE8E40312088CF8E4031203
:10197300088C10E50312088C71E50312088CA8E1AA
:101983000312088C2DE20312088C91E20312088CD7
:10199300A6DC0312088CC2DC0312088C19DD0312C7
:1019A300088C39DD0312088C76DD0312088CD1DD37
:1019B3000312088CB5C00312088CC3C00312088C31
:1019C3003DC10312088C21C20312088CDAC303122F
:1019D300088C5AE70312088C24CB0312088C72CBB1
:1019E3000312088C0FCC0312088CBACC0312088C98
:1019F300D2CC0312088C4ECD0312088C64CD031293
:101A0300088C77CD0312088C85CD0312088CBBABF1
:101A13000312088C10AC0312088C0CAE0312088C52
:101A23003EAE0312088C60AE0312088C79AE03122B
:101A3300088C92AE0312088C9CAF0312088C37B04B
:101A43000312088C08DE0312088C2CDE0312088CA8
:101A530045DE0312088C78DE0312088CA9DE03121C
:101A6300088CD7DE0312088C39DF0312088C48DF99
:101A73000312088C52DF0312088C5FDF0312088CF9
:101A8300C9CD0312088CEFCD0312088C2CCE0312A0
:101A9300088C3BCE0312088C5ACE0312088CC2CE9C
:101AA3000312088CCBCE0312088C2ACF0312088CA6
:101AB3004ECF0312088C0DD00312088C1AD00312D8
:101AC300088C2BD00312088CF1E60312088C0EE766
:101AD3000312088CAEB00312088C0CB20312088CEC
:101AE30019B20312088C2CB20312088C4BB20312E6
:101AF300088C61B20312088C75B20312088CEAB227
:101B03000312088C4FB30312088CFFB30312088C23
:101B1300D4B40312088CE4B40312088CF3B4031294
:101B2300088C4FE40312088C73E40312088C9BE4C3
:101B33000312088CC3E40312088C59D00312088CD7
:101B430080D00312088CA1D00312088C06D1031293
:101B5300088CBFD20312088CD8D20312088CE4D2AB
:101B63000312088CF8D20312088C16D30312088CC4
:101B730020D30312088C2AD30312088C3DD30312FB
:101B8300088C90D30312088CC9D30312088CF8D3A2
:101B93000312088C46D40312088C95D40312088CC4
:101BA300B0D40312088CBAD40312088CCBD403121A
:101BB300088C11D50312088C7BE50312088C05F5FC
:101BC3000212088C2FF50212088C4BF50212088CB6
:101BD3005EF50212088C74F50212088CD1F502121C
:101BE300088C04F60212088C40FA0212088C66FB79
:101BF3000212088C99FB0212088CE5FB0212088C76
:101C030011FD0212088C39FD0212088C4EFD0212DE
:101C1300088C5EFD0212088CA2FD0212088C03FEE2
:101C23000212088C13FE0212088C69DF0312088C5F
:101C330084DF0312088CADDF0312088CC7DF0312A5
:101C4300088CECDF0312088C0BE00312088C23E0F2
:101C53000312088C51E00312088C6BE00312088C0A
:101C6300ADE60312088C3FC40312088C46C403126A
:101C7300088C52C50312088C82C50312088CA8C5B0
:101C83000312088CCBC50312088CEDC50312088C14
:101C930027C60312088C8DC60312088CC6C603120E
:101CA300088C12C70312088C3FC70312088C5FC746
:101CB3000312088C9CE00312088CB4E00312088C16
:101CC300A2E10312088CA5E10312088CD37E001253
:101CD300088C457F0012088C837F0012088CC47F18
:101CE3000012088C5AB90312088C79B90312088CB4
:101CF300C8B90312088CE4B90312088C15BA03128D
:101D0300088C22BA0312088C2FBA0312088C1BBB4F
:101D13000312088C59BB0312088C69BC0312088C8C
:101D230074BC0312088C86BC0312088C8FBC03128C
:101D3300088C99BC0312088CFEA60312088C43ABD3
:101D43000312088C51AB0312088C2DE70312088C85
:101D530086D60212088CDAD50212088C20D402121D
:101D6300088CD0D10212088C57D10212088CFED0F5
:101D73000212088C8ED00212088C65D00212088CD5
:101D830045CE0212088C11CE0212088CDECD02124F
:101D9300088CC2CD0212088CDBCC0212088C93CCC7
:101DA3000212088CDECA0212088C5ECA0212088C68
:101DB3005BCA0212088C58C90212088C26C9021287
:101DC300088C63C80212088C8EC60212088C1FC6C8
:101DD3000212088CBBDF0212088C3FDF0212088C50
:101DE300F6DE0212088CAEDE0212088CFCDD021253
:101DF300088CF1C50212088CEEC50212088CDBC5F3
:101E03000212088C86C50212088C6EDD0212088C41
:101E130075C50212088C67C40212088C31C4021201
:101E2300088CDFC30212088C61DD0212088C2F922A
:101E33000312088C80C30212088C4FC30212088C51
:101E430017C00212088CD7BF0212088CCBBF021234
:101E5300088C2BBF0212088C6BBE0212088CEDBBE0
:101E63000212088C7EB90212088C3CB90212088C4B
:101E730010B80212088CC5B70212088C04B70212FC
:101E8300088CD7B60212088C1AB60212088CB0B5A9
:101E93000212088CEAB50212088C5BDA0212088C73
:101EA300ACFD0100000080FBE47300013636010144
:101EB30000010201000103010001040106060502FD
:101EC3000000070100340801000F090401010D019E
:101ED30000FF0E08000017020000190100FF1A019D
:101EE30000011B0100FE1C0100081D0200001F0170
:101EF300000120010001210200002301000F240240
:101F030000002601000127010008280200FF2A0122
:101F130000072B0102402C0100002D0100012E01BE
:101F230000012F0100FF30010B1C310800003A01B2
:101F330000083B01000F2F01000003027102300172
:101F43006002110270020102020202028002100208
:101F530061023A00410063027302720262024302A9
:101F630000021302380000020002040212020002FF
:101F730000020002000204020402370037003C02A0
:101F83004402000239000002000265020002350229
:101F93008102000205028202830200020300710033
:101FA30030016000110070003102200350048000F2
:101FB30010006100000014006300730072006200EF
:101FC300430000001300060000000000040012009C
:101FD3000000000000000000040004003700370088
:101FE3003C02440000000000000000006500000007
:101FF3003500810000000500000083000000030499
:102003007104020460041104700402040204010454
:1020130002041004610400041404630473047204CE
:1020230062044304000413040604000400040404CB
:1020330012040004000400040004510464000004BA
:1020430000040004440400040004000400046504C4
:1020530000043504810464000504000483040004BF
:1020630001037103010301030103010301032203BC
:102073000203010310030003000300030003000332
:1020830000030003420300032403060300030003C9
:102093000403120325032303250323030403040377
:1020A30000030003000344030003000323030003AE
:1020B30065032100350381030003050300030003C7
:1020C300000301017101010101011101010131014C
:1020D300010101018001100161013B001400630152
:1020E30073017201620143010001130106013D0105
:1020F3003500040112010001000100010001040187
:102103000401330133013C01440132013600000173
:102113000001650100013500810100010501820113
:102123008301000136000100060000000F000000DB
:102133000000000000000000000003FFFF00000497
:1021430003FFFF0000FFFF0FF4010005C404032099
:10215300000100000B000000000000000003010F5D
:102163000000A018130040180100A01802000A186C
:10217300030010180400161805001C180600281880
:10218300FFFF000001680E06980E08920E0BA40EC6
:1021930010E40D026E0E05860E07740E0C4A0E0D2A
:1021A3005C0EFF000003EAF5E5D5D5C5B5A5959509
:1021B300858575756565555545453535252515154C
:1021C300057012A01276127C129A128E128812A631
:1021D30012AC12B212BE1282126A12641200160FED
:1021E30000000B150B020002220F320000065A13E7
:1021F3006C1372133A1278133412401274116E1165
:10220300AA11B011A4115C11B413D213D813BA13C9
:10221300C613C013303016181920231A1C1E300C95
:102223000E020B040B0A0708000F00383C3E363B36
:102233003B352B432C303017181921301B1D1F3011
:102243000001191618161615230300000349484206
:102253004D1817250502A8137E13841390138A13B0
:102263009412B812CC13C412CA120204020101015F
:10227300010902801186117A11B6110000000000D5
:10228300008C119E1100BE040A150004007F00E8B3
:10229300030C00280000000000090308100C0A03C7
:1022A300080900040001FF1E1E0C05040F1008C0DE
:1022B30082C0838A828B83E0D2E7F012176E0234E6
:1022C30029C082C083790012277E125495C082C030
:1022D3008390033412421BD083D082C3E09CA3E0DB
:1022E3009D500C125B69FAA3E01222F5600109020A
:1022F3003429FBEA75F00BA4FAA8F075F00BEBA4F4
:1023030028FB900336E02AF8A3E03B8882F583E0BC
:10231300540F2274F7120407890812277E12282407
:10232300ACF075F00BE9A42CF9900336E028FEA37A
:10233300E039FF7401650860067402650870208A3D
:10234300828B831228101234F774026508701B12F3
:1023530026CF12285770138E828F83E4F0800BEA06
:102363002403FCEB1227F21227FEEEFAEFFB120B0B
:102373007402346174F412040712649079008E823B
:102383008F83E06076890A890B8065E50A75F00B17
:10239300A4FAA8F075F00BE50B1223027046E50AC8
:1023A30075F00BA4F8AAF075F00BE50B1228368E26
:1023B300828F83E085088285098312291885088224
:1023C300850983A31234F7EE2403FCEF1227FB12D3
:1023D3003430124F0FAA08AB09120B747901900322
:1023E30034124924E50A2401F50AE50B3400F50B00
:1023F3001226D7E50A9AE50B9B40900236A174F5A5
:10240300120407EAFEEBFF740B120B3D1234357511
:102413000A01EC4D602BEC1264ACED1254951234AE
:10242300EF7901120B80E5084509606F8508828505
:102433000983A312649A7902AA08AB09120B80805C
:102443005AE5084509602B125499123B6312343143
:10245300122841700CEEFAEFFB120B86E9F50A80A5
:10246300CBEE2403FA12277970317903EEFAEFFBEE
:1024730080CA8E828F83A3E064FE7003A3E0F470AE
:102483000BEE24030A0A0A122779700CEEFAEFFB0B
:10249300120B86E9F50A8003750A00A90A7F030275
:1024A300066774F7120407900334123471EA4B6021
:1024B3002FEA75F00BA4FAA8F075F00BEBA428FB38
:1024C300EAFEEBFF1215A690033612347190033621
:1024D3001247696012EEFCEFFD79001215108007B8
:1024E300900336E4F0A3F0023461900334123ED338
:1024F300C3EE98EF9922C082C083EC4D6005121C95
:10250300DE80097C087D00790012151002342974DD
:10251300F61204077900EA4B60187800880812570E
:10252300DCEB125B6560047901780808E8C3940862
:1025330040EA02350074F712040774F3120955ECEC
:10254300FEEDFF851882851983E4F004120B3DEA42
:10255300F0A3EB124C957403120B3DAC82AD83EEEA
:10256300FAEFFB120B98EEFAEFFB120B9E02345CB0
:1025730074F712040774F3120955ECFEEDFF851886
:1025830082851983E4F0EAFCEBFD7403120B3D1220
:1025930029117401120B3D1234EB8E828F83123496
:1025A300F774FE68700374FF69600479018002792F
:1025B3000002345C74F7120407EAFEEBFF122615DF
:1025C30070141226208E828F83E0F4F88A828B8324
:1025D300E058F0120B74A90802346174F71204076F
:1025E300EAFEEBFF7508008E828F83E060221226DD
:1025F30015701D1226208A828B83E08F838E82F8CA
:10260300E058700CE0F88A828B83E048F0120B7478
:1026130080C4120B7AE9F50874016508221264A5D7
:1026230012282812276AFAA3E039FB2274F4120451
:10263300078A088B097C007D001226CF1227FE1221
:10264300278F1264977900850882850983A3E06444
:10265300FE7003A3E0F460717E007F008062EEFAF7
:10266300EF1222F56057EEFAEFFBEA75F00BA4FACE
:10267300A8F075F00BEBA428FB900336E02AF50ACB
:10268300A3E03BF50B850882850983A3124BE38501
:102693000A82850B83A3E06A7003A3E06B701EE5D7
:1026A3000A2403FAE50B12277A700AE50A2403FCCD
:1026B300E50B1227FB12278379011254AB12306EFC
:1026C3001226D7EE9AEF9B40950236A1EA24030A1D
:1026D3000A0AEB22900334125082C32274F31204C9
:1026E300078A088B098A828B83A312649A12277E36
:1026F300126497750C001226CF12277A70547E004D
:102703007F00804912275CFAA3E0398A82F583E0CF
:10271300540F603612275CF50AA3E039F50BE50A7E
:102723002403FCE50B1228053400FB121CD8E964D2
:10273300017017850A82850B83A3125143A31234B8
:10274300F7122783750C011254AB12306E1224ED6D
:1027530040B2A90C7F05020667EEF8EFF9E875F0C1
:102763000BA4F812276A22AAF075F00BE9A42AF940
:10277300900336E02822EF122851221264ABEB2299
:1027830012278F1254A6EEF0A3EFF022E50812648D
:10279300ACE5092274F5120407EAFEEBFF8E828F83
:1027A30083A312649A7C007D00EE24030A0A0AEFD5
:1027B3001227FEEEFAEFFB120B7AE9F50A740165B4
:1027C3000A70291264A5122824AAF075F00BE912E5
:1027D3002836850882F583122810122841700DE5EA
:1027E300082403FCE5091227F21227FE02249E3473
:1027F30000FDEE2403FAEF221228053400FB120B2E
:1028030098223400FDE5082403FAE50922A31228DF
:10281300152212281922E0F8A3E0F98E828F83A3F0
:1028230022122828223400F583123ED7E875F00BD4
:10283300A4F822122770F508A3E039F50922E8F07D
:10284300A3E9F0E5082403FAE50912285122122826
:10285300576401223400FB120B9EE92274F3120425
:102863000774E6120955126490750C01750800751A
:102873000900750A00750B00851882851983E4F039
:10288300EE2403FCEF3400FD7403120B3D122911F7
:10289300E964017023740B120B3D1234EF740112BF
:1028A3000B3D124BE77003A3E069605185188285E5
:1028B3001983858208858309740D120B3DE412295F
:1028C30018740E120B3D1234F7740D120B3DAA82CD
:1028D300AB83120BBCE96401700B740D120B3D85C5
:1028E300820A85830B780A1208C4AC08AD09EEFA94
:1028F300EFFB120B8C74021208D7E9F50CEEFAEF1A
:10290300FB120BB6A90C741A1208D7022757122B05
:10291300E4120BC22212346C123ED322C082C08353
:10292300780079008003122A0F1226D7E89AE99BD0
:102933005029E8FAE9FBEA75F00BA4FAACF075F05C
:102943000BEBA42CFB900336E02AFCA3E03B8C8228
:10295300F583E0540F70CF790080027901023429A6
:10296300C082C08390228C123F29EC75F012A4FC24
:10297300A8F075F012EDA428FD79FF7A127B0812F6
:10298300151002342974F7120407E9FEEAFF7A00EE
:102993007B00780079008028E8FCE9FDEC75F012F3
:1029A300A4FC85F00875F012EDA42508122E24C3AB
:1029B3009E400AE0FCEFC39C4003122F43122A0FF0
:1029C300122E1840D3023461C082C083780079008C
:1029D3008003122A0F122A03501F122E28F470F2BA
:1029E300E875F012A4F8AAF075F012E9A42AF974B4
:1029F3001228FA740839FB80047A007B0002342918
:102A030090228C122ED9C3E89AE99B22E82401086C
:102A1300E93400F92274F012040774F31209558A99
:102A23000A8B0B8C0C8D0D8908EC450D6016AA0CD6
:102A3300AB0D120C108A0E8B0FAE0EAF0FEE4F6064
:102A430003022AD6120BE68A0E8B0FA80EA90FE8F3
:102A5300FEE9FFE849607C90229A122B38602274C9
:102A630003650860067404650870167A0479031216
:102A73000BE090229A122B4F40077A007B00022B27
:102A830035902298122B38601B7401650860067418
:102A9300026508700F7A027901120BE090229812F6
:102AA3002B4F50D68518828519837401F0120B3D84
:102AB300124F0FAC0CAD0D7403120B3D122BDD74D2
:102AC3000B120B3D12343D1238D7E4124EF712109D
:102AD300B48004EE4F604A780074FF2508C3940461
:102AE300500278048E828F83124F0F8E828F83A3BE
:102AF300A3A3A3E508F0E88E828F83A3A3A3A3A3D4
:102B0300124F171202B6122EF08E828F83A3A3A345
:102B1300A3A3A3A3F0122EE7120B1A12548F120BC6
:102B230026122B3D4005900D6EE4F0120F8EEEFA47
:102B3300EFFB023EDD12503149227A047900120B79
:102B4300E090228C125B4BEA98EB9922122B68756A
:102B5300832275828CE493C398F8A3E49399F9C311
:102B6300EA98EB9922E493F8740193F92274F21230
:102B7300040774F31209558A088B09ECFEEDFF75FF
:102B83000A00EEFAEFFB120C108A0C8B0DA80CA9AD
:102B93000DE849603E88828983E065087004A3E0FC
:102BA3006509602F88828983A3A3A3A3E0C3940547
:102BB300502112533D8518828519837401F0120B3D
:102BC3003D125341EEFCEFFD7403120B3D122BDD5E
:102BD300750A01A90A740D0249DB122BE4120BCE0C
:102BE30022AA82AB83120B98851882851983AA8245
:102BF300AB832274F6120407122C32600FA3A3A333
:102C0300A3E014C3940450047901800279000235CF
:102C13000074F6120407122C32600FA3A3A3A3E0DF
:102C230014C3940250047901800279000235001222
:102C33000C0A8A828B83E58245832274F612040789
:102C4300122C32600BA3A3A3A3E0700479018002CA
:102C53007900023500C082C083EAFCEBFD7A007B79
:102C630000023426C082C0837C007D0002342674B7
:102C7300F412040774F3120955EAFEEBFF8C0A8D74
:102C83000BC3EC94F8ED94FF4007EE4F7003022D55
:102C93002B750800750900802E85188285198374A9
:102CA30001F0123096120B3D1230A460137403121C
:102CB3000B3DAC82AD83EEFAEFFB121CD8E97049F1
:102CC300E5082401122EC490228CE4125039E50841
:102CD30098E509995052E50875F012A4F8AAF07521
:102CE300F012E509A42AF9125B7E60D4EE4F70A9B5
:102CF30074FF650A700474FF650B60C41230866547
:102D03000A7004A3E0650B70B7E50875F012A4F52B
:102D130008A8F075F012E509A428F509741225082E
:102D2300FA74083509FB80047A007B0002369C7430
:102D3300F412040774F3120955750800120C108A73
:102D43000A8B0BAE0AAF0BEE4F602A8518828519EA
:102D5300837401123466F8A3E0F9740B120B3D126D
:102D6300357A120BB07C127D0079FFEEFAEFFB127D
:102D73001510750801122B3D5009900D6E7401F06A
:102D8300120F8EA90802369C74F7120407E9FE7429
:102D9300FE6A700374FF6B7800790070058052122D
:102DA3002A0F122E18504AE8FCE9FDEC75F012A424
:102DB300FCAFF075F012EDA42F122E24F460E0E8BE
:102DC300FCE9FDEC75F012A4FC75F012EDA42FFDE7
:102DD30074122CF58274083DF583E06A7003A3E056
:102DE3006B70BC8009122E2814C394044017122A56
:102DF3000F122A035018EE70EC122E28640160059E
:102E0300E0640370E9123077FAA3E0FB80047AFEF2
:102E13007BFF02346190228C123F2DC3E89CE99D15
:102E230022122F7822E8FAE9FBEA75F012A4FAAC31
:102E3300F075F012EBA42CFB74162AF58274083B90
:102E4300F583E022120C22023429C082C083790167
:102E530080F274F01204078A0A8B0B7A0479011248
:102E63000BE08A0C8B0DEA450D603EEAC333FAEBA7
:102E730033FB1215A68A088B09AE08AF09EE4F6023
:102E8300237AFE7BFF120C2874FE6A700374FF6BB7
:102E9300601B850882850983123471E508240212B8
:102EA3002EC480E1750C0080047E007F00850A82B9
:102EB300850B83E50CF0EEFAEFFB023EE2E5082416
:102EC30007F508E5093400F5092290228C123F2DFD
:102ED300C3EA9CEB9D22E493FA740193FB2212153F
:102EE300047403221254A0E4F090807222E88E82CC
:102EF3008F83A3A3A3A3A3A3A3A3122F12740112CB
:102F03002F12A3F0EE24101254A3E4F0A3F0221224
:102F130038E3A3A3A322C082C0837A007B0080048A
:102F230019122F43122ECD5010122F62C394055045
:102F3300F0E970EC122F4C80047A007B00023429F4
:102F4300EA24010AEB3400FB22EA75F012A4FA75B5
:102F5300F012EBA428FB74122AFA74083BFB22EA52
:102F6300FCEBFDEC75F012A4FCA8F075F012EDA4D7
:102F730028122F7822FD74162CF58274083DF583F0
:102F8300E02274F712040774F31209557E007F00E0
:102F930002302AE50875F017A4F8A9F0125DDFFAEC
:102FA300A3E0FBEEF8EFF9E875F012A4F8ACF075C6
:102FB300F012E9A42C1230856A7003A3E06B603F22
:102FC300E50875F017A4F8AAF0EA125DDEF8A3E0AD
:102FD300F97401120B3DE0687003A3E0696020E51A
:102FE3000875F017A4F8EAF9748E28FC740939FD02
:102FF3007403120B3DAA82AB83121CD8E96014E55B
:103003000875F017A4F8A9F0748C28FA740939FB31
:103013001210C0050890229FE493F8E508C3985066
:1030230003022F9612306E90228C1261255039EED6
:10303300F8EFF9123077F47003A3E0F460E6851833
:10304300828519837401F0EEF8EFF9E875F012A4A4
:10305300F875F012E9A42AF9123096120B3D1230DA
:10306300A460C175080080AD02345CEE24010EEF4C
:103073003400FF22E875F012A4F8AAF075F012E903
:10308300A42AF912308A22741228F582740839F5B9
:1030930083E022741428F582740839123ED1740B2C
:1030A30022E8F0A3E9123582120BC8E922C082C0DC
:1030B3008390033D7480F0A3740EF090033F747A01
:1030C300F0A3740EF0900343749AF0A3740CF0020F
:1030D300342974F7120407EAFEEBFF900377E064E8
:1030E30008601BE0640460168E828F83E0540364DF
:1030F3000170481234301239D8E06406703D8E8274
:103103008F83A3A3E064FE7003A3E0F4602D8E829B
:103113008F83A3A31234EB900368E0687003A3E0EA
:1031230069700BEE2415F582EF125B656008120FD0
:103133002EE9F5088008120F3480F67508C2EEFAFE
:10314300EFFB1215AC0225D974F41204078A088B1D
:10315300098A828B83E0F8A3E0FAE82AFAE43400D0
:10316300FB1215A68A0A8B0BAE0AAF0BEE4F6063F8
:10317300850882850983E0FC7D0079001215108E95
:10318300828F83A3A312649A120F708E828F83A3FC
:10319300A3A3A3123471850882850983E0F8EE287E
:1031A300F8EF34001234F3850882850983A3E0C065
:1031B300E0EE240D125492D0E0F0120F82EE240EB2
:1031C300125492E9124B44E0C0E0EE2411125492DF
:1031D300D0E0F0EEFAEFFB0236A174F612040774A6
:1031E300EB120955EAFEEBFF1247666003023281D8
:1031F3007A077B001215A6900339123471124766C1
:1032030060788E828F83120B1A90033A1239DB1285
:103213000B2612635EC0E012328DD0E0F0EE24057F
:10322300FAEF3400FB8A088B098A82F583E0C0E059
:10323300123288D0E0123698E0C0E0123288A3D070
:10324300E01234DD120B1A851882851983120B26BE
:1032530088828983E0C0E07405120B3DD0E0F085DD
:103263000882850983E0C0E07404120B3DD0E0F0CE
:103273007407120B3D1233C3800679108002790163
:1032830074150234FD12328DA322900339E0FAA3A0
:10329300E0F5838A82A3A3A3A322C082C08312473B
:1032A30066600D900339125070900339E4F0A3F077
:1032B300120E9E12106002342974F012040774EB8C
:1032C300120955ECFEEDFF89087425120B3D780CAD
:1032D300120AE07429120B3DE0F9742A120B3DE047
:1032E300FC742B120B3DE0FD740F697005740F6CB9
:1032F3006012900DB3E06402700579C10233BEE938
:10330300C39C40F6900378780C120AFEE5089003FC
:103313007EF0E990037CF0ECA3F0ED90037FF07472
:10332300FF6A700374FF6B701D900DBEE0F47003B1
:10333300A3E0F4700512151C800C900DBE123446E8
:10334300E8F0A3E98007900375EAF0A3EBF0EE4FF2
:103353006017EEFAEFFB121120E96401700BEEFC2B
:10336300EFFD7A897B03121CDE900368E4F0A3F07F
:1033730090036BF0A3F0900388F0900DB3E0640228
:10338300700890037C740FF0A3F09003777405F03A
:1033930014120B3DE4F0900378120B1A8518828502
:1033A3001983120B2690037EE0C0E07405120B3DD7
:1033B300D0E0F07407120B3D1233C37415023EDFE5
:1033C300E4123582121D0822C082C083900338E0C4
:1033D300700312183A120C6A804CC082C0839003A7
:1033E30038E0900D6D7004E4F0802D7401F09003CB
:1033F30038E0F460237C41E0C394415002E0FCECEC
:10340300F8E0C398F0EC75F0E8A4CCA8F075F003ED
:10341300A428FD7A80123F357A6D7B0D7941121C09
:10342300F68003120C16D083D082020889EE125460
:10343300A122E0F508A3E0F5092212344122122863
:1034430019A322123ED39003752274F7120407EBDB
:1034530090037FF0120E8C8005740D1208D77F0144
:1034630002066712346CA3E0221234DDA322EAF0D1
:10347300A3EBF02274F712040774F8120955EAFE5D
:10348300EBFF7900900377E0640870448518828528
:10349300198374FDF0A374FFF0120F6A7402120B08
:1034A3003D1234717405120B3DE412346CE0C0E03C
:1034B3007404120B3DD0E01234D8C0E07406120B32
:1034C3003DD0E0F07407120B3DE412357E120FACD1
:1034D300740802345E1234DDE022F08E828F832280
:1034E300F085188285198322123ED322E0F8A3E0E7
:1034F300F91254A0E8F0A3E9F0221208D77F0202E0
:103503000667C082C083900349742AF0A3740DF048
:103513009003EF7406F0A37410F090034D7460F001
:10352300A3740DF090034F742AF0A3740DF090036D
:10353300517466F0A3740DF002342974F412040775
:1035430074F91209558A088B098C0A8D0B85188228
:103553008519837808120AFE7404120B3DE9F0748E
:1035630005120B3DE4F07406120B3DE412357E1296
:103573000C52740702369EE8F0A3E9123582221238
:1035830034E3AA82AB832274F41204078A088B09FA
:103593008A828B831254AEEE4F70030236969003E9
:1035A3001212476960158A828B83A3A3E0F9EEFAAE
:1035B300EFFB9003131239DB121EAB8E828F83A3B2
:1035C300A3A3A3A3A3A3A3A3E0640270748E828F17
:1035D30083A3A3A3A3A3A3E05402700302366885C5
:1035E3000882850983A3A3E064E960798E828F83CF
:1035F300A3A3A3A3A3A3A3A3A3A3E07014900DB6B3
:10360300E0048E828F83A3A3A3A3A3A3A3A3A3A353
:10361300F08E828F83A3A3A3A3A3A3A3A3A3A3E057
:1036230014123698A3A3A37404F0900DB7124EE9B5
:10363300E8F0A3E9125FC28B0BEA450B7003125942
:10364300A08E828F83A3A3A3A3A3A3A3A3A3E064B6
:103653000260128E828F83A3A3A3A3A3A3A3A3A316
:10366300E06406702E8E828F83A3A3A3A3A3A3E09B
:10367300A2E0501F850882850983A3A3E0F9EEFA2F
:10368300EFFB121D8C8E828F83A3A3A3A3A3A3E0BE
:1036930054FEF080091238DF22740D1208D77F041C
:1036A30002066774EC12040774DD120955EAFEEB97
:1036B300FF8C088D097437120B3D780C120AE075E4
:1036C3000A007405120B3DAC82AD83120B507412C9
:1036D300120B3DE070087415120B3DE06020740579
:1036E300120B3DE0A2E6501E8E828F83A3A3A3A3F9
:1036F300A3A3A3A3A3124BE3120FE2E96008790388
:10370300121CC60238C57405120B3DE0540C640448
:103713007005750B018003750B00E0A2E55035754C
:103723000A01E50BA2E0402C120F708A108B11A83E
:1037330010A911123430E0687003A3E069601574B6
:1037430005120B3D1264A1124BDF121D98E96004B0
:10375300790480AC7405120B3DE0A2E65022740696
:10376300120B3DE0540370187405120B3DE0540C2A
:10377300640C600CE0540C64086005751001800350
:103783007510007405120B3DE05403F87402687061
:103793000C1264A1124BDF120B620238C57401686C
:1037A300703AE510A2E050031238CD7405120B3DB8
:1037B300A882A9837403120B3DE8F0A3E9123EC764
:1037C3008518828519831238D7E0C0E07402120B82
:1037D3003DD0E012357E121E7C0238C5E86003023C
:1037E30038C590035FE0640170108E828F83A3A3BA
:1037F300A3A3A3A3E070030237537422120B3D74F7
:1038030002123EC7741A120B3D1234F7E510A2E000
:1038130050087405120B3D1238CDE50BA2E0506A37
:10382300EE240FF582EF125B65C0E07417120B3DB7
:10383300D0E0F090031412476970030238C5120FE9
:10384300708A128B13A812A913741A120B3DE06825
:103853007003A3E069706B780C1208BC780A120835
:10386300C878081208C4A910740C120B3DAC82ADC1
:10387300837421120B3DAA82AB839003141239D8AF
:10388300121EAB74071208D78038780C1208BC7864
:103893000A1208C878081208C4900375120734EE98
:1038A3002412F582EF1258937423120B3DAC82ADB0
:1038B30083740E120B3DAA82AB83121D807409120E
:1038C30008D774231208D7025F8D1264A112507EA9
:1038D300120B5622E8F0A3E91238DF221238E32252
:1038E300F08E828F83A3A3A3A3A3A32274F712044E
:1038F3000712172602346174F712040712172C02F9
:10390300346174F7120407121738023461C082C09D
:103913008312173202342974F712040712173E0276
:10392300346174F71204077409120B3DE0F508784B
:10393300081208C812174A740102345EC082C08399
:10394300121756023429C082C08312175C0234292D
:1039530074F712040712176202346174F712040732
:10396300EAFEEBFF89087401650870147900120DF3
:10397300A29022AAE493FC7900EEFAEFFB120D1851
:1039830002346174F412040774F9120955E9FE8ACA
:10399300088B098C0A8D0B7413120B3D124BE390A9
:1039A300058B1247696027EE851882851983F074A9
:1039B30001120B3D7808120AFEEAF8EBF9740512BE
:1039C3000B3D12357A90058B1239D8121EAB023596
:1039D30075FB90034BE0F8A3E0F583888222C08255
:1039E300C08312179202342974F7120407900D70E2
:1039F300E0F97E00800B125B51540D6401700119D4
:103A03000E123BE55003E970ED02346174F71204C2
:103A130007900D71E0F97E00800B125B51548D64A9
:103A2300817001190E123BE55003E970ED02346118
:103A330074F2120407890BE975F006A4240CF50847
:103A4300E5F0122EC88A0CE508250CFAE5093400C6
:103A5300FB1215A68A0C8B0DAE0CAF0DEE4F602733
:103A6300AC08AD097900121510123430E50BF0EEF5
:103A73002508F8EF3509F98E828F83A3A3A3A3A3A7
:103A8300A3A3A3A31234F7EEFAEFFB0249DE74F605
:103A9300120407EAFEEBFF120CF4900D6FE0F8E955
:103AA300C3984009900345124BE3120CFAEE24022B
:103AB300F8EF1251F39003471250AD900347E0041F
:103AC300F0EEFAEFFB120D00850882850983E00210
:103AD30056A9C082C0837900900345800109124B27
:103AE300E38A828B83E582458370F202342974F77B
:103AF300120407EAFEEBFFEE4F60569003451247B0
:103B030069604E888289837A007B00EE6582700348
:103B1300EF6583600FAA82AB83123B57E58245832F
:103B2300602F80E7900345123B63687002EF698E54
:103B3300828F8370081234EB9003458003125F9FDA
:103B43001234F7EEFAEFFB121E4CEEFAEFFB1215EE
:103B5300AC023461123B5B22123ED78882898322F6
:103B6300123ED3EE22C082C0839003458004888234
:103B73008983124769600B8882898312421BEC4D4B
:103B830070EC8A828B83E4F0A3F0E84960068882B4
:103B93008983800390034512347102342974F71228
:103BA300040790034580048A828B83123BE04B60B9
:103BB300257E0080010E123BE550ECEE75F006A465
:103BC300FCADF0EA2CFCEB3DFDEC2410F582ED128C
:103BD3003C3570E180047A007B000234611250822C
:103BE300EA22123C3EEEC3982274F71204077D00CA
:103BF30080010D123C3AEDC3985034ED75F006A4E4
:103C0300FEA8F0E8FFEA2EFEEB3FFFEE2410F5825C
:103C1300EF123C3570DCED75F006A4FEE8FFEA2EEA
:103C2300FAEB3FFBEA2411F582EB125B654CF002E1
:103C33003461125B716922123C3E221264ABEB3495
:103C430000F583E0F82274F6120407120E1A7A00C4
:103C53007B008025EAF8EBF9E875F006A4F8ACF0F0
:103C630075F006E9A42C12505712636CA3E41251A9
:103C73004DF0A31263721264E9902294122B474011
:103C8300D37A007B00801C8A088B0974037808129E
:103C93000A20124B0BA374FEF0A304124F2DA3E4CE
:103CA3001264E990229E123CE840DC7A007B00809B
:103CB3001D8A088B0974037808120A2074B41257FA
:103CC300DD740C12602474FEF0A3041264E99022E4
:103CD300A4123CE840DB9022A8E493900353F01233
:103CE3003CF2023500E493F8C3EA98EB9400227C9B
:103CF300E87D037A107B009003C2E0F9121660227C
:103D030074F012040774F51209558A088B09890A9D
:103D13008C0BE9A2E050147508FC7509FFA2E15071
:103D230005D2E4023DC5D2E3023DC51249CA700380
:103D3300A3E06970057900023E92AC0A7902AA08F1
:103D4300AB09120DF6E960EDE50AF50C780C1208E3
:103D5300C879027CFE7DFFAA08AB09124745120809
:103D6300D7E96003023E90E50AC2E5F50A9003B580
:103D7300E07051E50AA2E6404B7403120B3DAC829E
:103D8300AD83AA08AB09120BA4E970321240668A0C
:103D93000C8B0DA80CA90DE8FEE9FFE8496025EEA0
:103DA30024020A0AEF122857601AEE2402FCEF34A9
:103DB30000FD7403120B3DAA82AB83121CDEE50ADD
:103DC300D2E5F50A900348E0F50C900368E0F50EA0
:103DD300A3E0F50F780E1208C47D017C0090034820
:103DE300E0F9AA0EAB0F120DAE74021208D7E9F870
:103DF300900348E004F0E86003023E90E50AA2E580
:103E03005004740E80027406C0E07401120B3DD09E
:103E1300E01254BF8A0E8B0FAE0EAF0FEE4F6069E8
:103E2300123EB0123EC7888289837401F0747855BC
:103E33000AA31264B1E50C1264B1A3E508F0E50925
:103E4300123E9FE4F0E50AA2E5500F7403120B3D06
:103E5300AC82AD83E82406123E968E828F83A3A3A1
:103E630074FDF0A374FFF0E50B60159022ABE493AF
:103E7300F8E50BC3985009EE2413125492E50BF0A6
:103E8300EEFAEFFB120C4680067910800279C774B4
:103E93000B8049FAE93400FB121CDE2288828983F5
:103EA300A3A3A3A3123EAB22125226A322EE2417EE
:103EB3001254A37401F0120F6AEE241A1254A3EAE7
:103EC300F0A3EB22F01264A53400123ED122F58355
:103ED300123ED722E0F8A3E0F922740D1208D77F2F
:103EE3000802066774F61204077A007B101259ADB4
:103EF30060089003D47401F0802990062CE06401DB
:103F0300900DB47006E0FC79018004E0FC79037A3B
:103F1300007B00120D18902292123F297A007B1029
:103F2300123F37023500123F2D22E493FC740193B4
:103F3300FD227B009003C2E0F912165A2274EC12A0
:103F430004078A088B098C0C8D0D890E7414120BCF
:103F53003D1249247416120B3DE0F510A3E0F51150
:103F6300120FE2E960077AFF7BFF024063900DB313
:103F7300E0640260030240567900AA08AB09120DFF
:103F8300FCA90E120DF08A128B13AE12AF13EE4F73
:103F9300700302403E8E828F83A3A3A3A3A3E06496
:103FA300018E828F83A3A37069124BE38E828F836A
:103FB300A3A3A3A3A3A3E0541860439022A9E4936B
:103FC3008E828F83A3A3A3A3F0EA650C7003EB6532
:103FD3000D6014EA650A7003EB650B600AEA65106D
:103FE3007003EB6511701F78101208C4AC0AAD0B97
:103FF300AA0CAB0D1210DE74021208D780089003CE
:1040030067125997A3F074FE6A700374FF6B601D07
:10401300804EA3A3A3E0640360298E828F83A3A3AE
:10402300A3A3A3E0640470057AFE023F6B8E828F24
:1040330083A3A3A3A3A3E0640270089003B4E06482
:104043000270101240668B0BEA450B6006AA08ABA0
:1040530009800DAA08AB099003491239D8121EAB87
:10406300025F8D90037512474B1210A22274F71250
:104073000407EAFEEBFF120BF8E9700AEEFAEFFB16
:10408300120C04E96006EEFAEFFB80047AFE7BFF74
:1040930002346174F01204078A0A8B0B8C0E8D0FA5
:1040A3008909750800120FE2E97900600302420DE5
:1040B300AA0AAB0B120DFCA909120DF08A0C8B0D89
:1040C300AE0CAF0DEE4F60198E828F83A3A3A3A313
:1040D300A3E0640270559003B4E0640270030242EB
:1040E3000BAA0AAB0B90034F1239D8121EAB120C5A
:1040F3000A8A0C8B0DA80CA90DE849700302420B28
:1041030088828983A3A3A3A3A3E0A2E0400302427E
:104113000B750C01A2E150687901AC0AAD0BAA0E34
:10412300AB0F120D48E9706402420B8E828F83A39A
:10413300A3A3A3A3E064037005750C0280528E82CF
:104143008F83A3A3A3A3A3E06401600302420B90A4
:10415300037512421B8E828F831245708A0C8B0D5E
:10416300A80CA90DE84960D19022A2E493FA8882B1
:104173008983E0C39A50C2A3E0600302420B80B973
:1041830088828983A3A3A3A3A3D2E1F0EE4F603A6D
:104193008E828F83A3A3A3A3A3A3E05418602B75DC
:1041A30008018E828F83A3A3120734750CFE750D4D
:1041B300FF780C1208C47900AC0AAD0BAA0EAB0F42
:1041C300120E0E74041208D7803E900368E0650E49
:1041D3007004A3E0650F70149022AAE493FCA9096C
:1041E300AA0AAB0B120D18750801801CA90CAC0AA6
:1041F300AD0BAA0EAB0F120D48E9700C750801A99F
:1042030009AA0AAB0B120DA2A908023EE2E50C248F
:1042130015F582E50D1254A6124F032274EA120417
:104223000774F01209558A0C8B0D8C088D097426BE
:10423300120B3DE0F514A3E0F5157512069003F596
:10424300124769602390037512421BAA08AB091237
:1042530010CC8A108B11EA4511600D8A828B83A3DF
:10426300E070057900024558E50C241DF50EE50DB7
:104273003400F50F850E82124755F5138882898322
:10428300A3A3A3E0FA88828983A3A3A3A3E0F9EA03
:104293002400FEE439FFAA08AB09120DA8850E829B
:1042A300850F83124593E029F50BE50AA2E5500338
:1042B30075120E7487550A70177418550A641860BE
:1042C3000FE50C2417F582E50D125B656512600797
:1042D3007901121CC6808C530A78C3EE94F8EF94CC
:1042E300FF501D7900EEFAEFFB12456260128882DF
:1042F3008983A3A3A3A3A3A3E05418600302426684
:1043030078081208C47D001245861208D7E9F874AC
:1043130003687003024266E860030243D1741855D0
:104323000A7003024486E50AD2E0F50AA2E45004C7
:10433300D2E1F50AA90A124BDC1245626053888266
:104343008983A3A3A3A3A3A3E05418604488828909
:1043530083A3A3A3A3A3E064017036E51045116012
:104363003090037512421B888289831245708A0E2E
:104373008B0FA80EA90FE849601788828983A3E0F1
:10438300600F851082851183A31256B45003024235
:1043930066E50AF50E780E1208C81245791208D799
:1043A300E9702B7C007D0085148285158374FFF0F2
:1043B300A3F0850C82850D83A3A3A3A3A3A3A3A327
:1043C300E06003124210A90B124BDC121750851444
:1043D30082851583E0F47003A3E0F460399003B49D
:1043E300E064027003024266124915E0FAA3E01288
:1043F30039D4121EABEA65087003EB65096003024A
:104403004266EEFAEF1239D4121EAB85148285157B
:1044130083EAF0A3EBF078081208C47D0112458605
:104423001208D7A90AEEFAEFFB120DFC8A088B09D2
:10443300A808A909900368E0687003A3E069600312
:10444300024549EEFAEFFB120C0A8A088B09A80809
:10445300A909E849606E88828983A3A3A3A3E064C2
:1044630001600D88828983A3A3A3A3E0640270542F
:10447300851882851983AC82AD83EEFAEFFB120BAC
:10448300A48055900361E0600FE50AF50E780E12E3
:1044930008C81245791208D7E50AF50E780E1208F6
:1044A300C879027CFE7DFFEEFAEFFB124745120846
:1044B300D7E960030243D185148285158374FFF025
:1044C300A3024418120F6AEAFCEBFD8518828519D2
:1044D30083AA82AB83121CDE850C82850D83A3A382
:1044E300A3A3A3A3A3A3E06401700F124210740853
:1044F300120B3DAA82AB83121CDE12471F12532BF1
:104503004430F50878081208C87401120B3D8582FF
:104513000885830978081208C4740B120B3D858241
:104523000885830978081208C4E513F5087808128A
:1045330008C87900EEFCEFFD124BDC120D42740645
:104543001208D702426612471F125495124593E58B
:104553000BF0120F8274101208D77F0E0206671237
:104563000DF08A0E8B0FA80EA90FE84922A3A31200
:1045730050821210CC227901AC08AD091250771287
:10458300474522AC0BA913125077120DAE740222C9
:10459300125333A3A3A3A32274F012040774F012DB
:1045A30009558A0C8B0DECFAEDFB750F089003F59A
:1045B30012476960141256AD8A828B83E582458364
:1045C3006007A3E0700302471A12471F3400124723
:1045D30055F50B88828983124728E0FBEC2400FE03
:1045E300E43BFF88828983A3A3124728A3A3E0FBAC
:1045F300ECF508E43BF50988828983A3A3A3A3A36D
:10460300A3A3E0F50EE50AA2E45003750F10A2E59B
:1046130050067408250FF50F748F550A700FE50CBB
:104623002417F582E50D125B65650F6008790112A9
:104633001CC602471A530A707800E50AA2E4502206
:1046430012471F125B652408FCA3E03400FD7408C5
:10465300120B3DAA82AB83121CDE7808E50AC2E482
:10466300F50AE50AA2E5502812471F125B6528F8F0
:10467300A3E03400F9E82408FCE93400FD8518823E
:10468300851983AA82AB83121CDEE50AC2E5F50A0B
:10469300AC0EA90BEEFAEFFB120DB4E9F874036844
:1046A3006075900368E06E7003A3E06F605EE8706E
:1046B30054E50AF50F780F1208C81247361208D7C7
:1046C300E97054780A1208C87401120B3D85820CF4
:1046D30085830D780C1208C4740B120B3D85820C74
:1046E30085830D780C1208C4E50BF50A780A1208C5
:1046F300C8A90EAC08AD09EEFAEFFB120D42740621
:104703001208D78012740468700D80B7780A1208F3
:10471300C81247361208D77410023EDFE50C241D79
:10472300F582E50D22A3A3A3E0FC88828983A3A3DA
:10473300A3A322790112491C1254A612474B124714
:104743004522120D6C740122E0FCA3E0FDAA08AB24
:104753000922F583123B5BA3E0F50A88828983A3D0
:10476300A3E0229003391250DE2274E81204077486
:10477300F5120955EAFEEBFF8C088D0989147423A1
:10478300120B3DE0F50F7424120B3DE0F512A3E08C
:10479300F5137426120B3DE0F516A3E0F517742804
:1047A300120B3DE0F50EA90F120DBA8A108B11748E
:1047B30001120B3D7408F0E50EA2E450037410F0EF
:1047C300E50EA2E55004E02408F0851882851983DC
:1047D300AA82AB83120FCA8A0C8B0DEA450D7003B4
:1047E3000248FCEA2417F582EB12490E120F6AE520
:1047F3000C241AF582E50D125495123471740312C8
:104803000B3DAC82AD83AA10AB11120BA4E9601D62
:104813001249067403120B3DA882A983E50C2418E0
:10482300F582E50D125495E8F0A3E98024E50EA284
:10483300E4501FE5106E7003E5116F701512490601
:10484300E50C2418F582E50D125495E512F0A3E565
:1048530013F0124915124924850A82F5837402F074
:10486300A3E50E12492CE50FF0EE850A82850B8332
:10487300A3A3A3F0EF850A82850B83A3A3A3A312AB
:10488300492CA3A3A3E508F0E509850A82850B83D8
:10489300A3A3A3A3A3A3F0AA10AB11120DA8E92508
:1048A30014850A82850B83A3A3A3A3A3A3A3F075F3
:1048B3000800E50EA2E45011AC12AD13E50A24087A
:1048C300FAE50B123E98750808E50EA2E55014AC04
:1048D30016AD17E50A2508F8E50B3400F9E82408B6
:1048E300123E96850C82850D83A3A3E510F0A3E504
:1048F30011F0AA0CAB0D120C46740B1208D77F10E3
:10490300020667E50C2416F582E50D1254A6740120
:10491300F02212491C1254A622E50C1264ACE50DD8
:1049230022E0F50AA3E0F50B22F0850A82850B83CA
:10493300A3A32274F21204078A088B09ECFEEDFF8D
:10494300890A79001249CA7003A3E06970047901E6
:104953008073750B01900368E065087004A3E0653C
:1049630009601F750B00780B1208C8A90AEEFCEF4B
:10497300FDAA08AB0912101E74011208D7E9F50B42
:1049830080417900EEFAEFFB120DF0EA4B602B8ABF
:10499300828B83A3A3A3A3A3A3E05418601C75086D
:1049A300FE7509FF78081208C48A828B83A3A312B9
:1049B30007341262C11208D780097901EEFAEFFBBE
:1049C300120CCAA90B8014120DFC8A0C8B0DA80CB7
:1049D300A90D900368E068221208D77F06020667D4
:1049E30074F41204077508FC75090A7A10125FC97A
:1049F3008B0BEA450B7003123CF2900353E014F067
:104A0300700C9022A8E493900353F0120E087E00DA
:104A13007F00806C850882850983A3A3A3A3E0603C
:104A230059F46056E5082404F582E509125991709A
:104A330049850882850983A3A3A3A3A3E064037024
:104A430019790285088285098312421B85088285AC
:104A53000983A3A3124BE3120D48850882850983BA
:104A6300A3A3A3A3A3E0640160108508828509833F
:104A730074FEF0A304124B3DE4F012306E122EC00C
:104A8300902296126125408C7E007F008039120FA0
:104A9300108E088F0974037808120A20747425088D
:104AA300FC740C3509FD7A547B0D120EFEEA4B7033
:104AB300DD8E088F0974037808120A20124B0B123B
:104AC300636CE4F012306E90229EE493F8C3EE9888
:104AD300EF9400501B8E088F0974037808120A2084
:104AE300124B13E82407F582E912599170D680A17D
:104AF3007E007F00800A124B1E600214F012306E9B
:104B030012612240F10236A1124B1388828983225B
:104B130074742508F8740C3509F922EEF8EFF9E8F6
:104B230075F006A4F8AAF075F006E9A42AF974143E
:104B330028F582740C39F583E022124B44A3A3A316
:104B430022F0850882850983A3A32274F712040740
:104B530074E1120955ECFEEDFF750800EE4F60722B
:104B63008A828B83E0241C1259C212476960638ACC
:104B7300828B83124BE3851882851983AC82AD83C4
:104B8300EA241BF582EB125893EA241CF582EB12FC
:104B93004BDF120F52740B120B3D124BE77003A342
:104BA300E069702E7402120B3DE064017024741DE1
:104BB300120B3D1239D8E064017017741D120B3DBE
:104BC3001239DAA3A3E0F88E828F83E0687003754D
:104BD3000801A908741F02345E12491C3400F583CE
:104BE30012508222122815E0682274F4120407E995
:104BF3007024790090034D1239D8121EAB8A0A8BA8
:104C03000BAE0AAF0B74FE6E700374FF6F701A90D5
:104C130022A5E4936013790190034D1239D8121E33
:104C2300AB8A0A8B0BAE0AAF0B120F8E0231D6740E
:104C3300F612040774F312095512151C8A088B091E
:104C4300AE08AF09900368E06E7003A3E06F60E9FC
:104C5300120F76EA6E7002EB6F60DEEEFAEFFB1274
:104C63000FE2E970D4EE4F60D0851882851983E492
:104C7300F004120B3DEEF0A3EF124C95E970BA74F9
:104C8300FE6E700374FF6F60B0EEFAEFFB740D02FB
:104C930034FD123582120BBC22C082C083120F8EE8
:104CA3000234297F0A02066774F2120407EAFEEB54
:104CB300FF8C0A8D0B8908740E120B3DE0F5097405
:104CC300FC6E700374FF6F700579000249DE790092
:104CD300120DFC8A0C8B0DAE0CAF0D900368E06EC9
:104CE3007003A3E06F7006E509A2E650DCA9091280
:104CF30061AF706179007AFE7BFF1261AF70567409
:104D03001855097003024DE2780079008003122AD6
:104D13000F902296122A064003024DE2E8FAE9FBBD
:104D2300EA75F007A4FAACF075F007EBA42CFB745A
:104D3300022AF582740B3BF583E0541870D0E875B2
:104D4300F007A4F8AAF075F007E9A42AF974FC287F
:104D5300F8740A39F988828983A3A3A3A3A3A3E0E0
:104D630054186009741855097003024CCC88828961
:104D730083EEF0A3EFF074FE650A700474FF650B15
:104D83006003124F0988828983A3A3A3A3A3A3E586
:104D930009F0A2E0500D88828983A3A3A3A3A3A350
:104DA300D2E2F07401650888828983A3A3A3A3A335
:104DB30070387401124F2DE0541860289022A9E432
:104DC3009388828983A3A3A3A3124EF71210CC8BDB
:104DD3000DEA450D6003024CCC78007900803979E7
:104DE30002024CCE900367E080D7E06401700302B7
:104DF3004CCC88828983A3A3A3A3A3A3E054186004
:104E0300079022A9E4938004900366E0123E9FE595
:104E130008F0024CCC122A0F90229FE493FAC3E8C5
:104E23009AE994004003024CCC7A007B00804BEA61
:104E3300FCEBFDEC75F007A4FCAEF075F007EDA4F8
:104E43002EFD74FE2CF582740A3DF5831254AEE8F0
:104E5300FCE9FDEC75F017A4FC85F00975F017ED7E
:104E6300A42509FD748C2CF58274093DF583E06E4D
:104E73007003A3E06F609E122F43902296122ED0F0
:104E830040AD123F29EC6A7002ED6B7088E875F053
:104E930017A4F8AAF075F017E9A42AF9748C28FE70
:104EA300740939FF7C177D007900EEFAEFFB1215C8
:104EB300108E828F83124F0F900375124EE9A3A3B6
:104EC300A3A3A3A3E8F0A3E9124EEF7401F0EE2429
:104ED3000E1254927401124F171202B6EE240D12E1
:104EE3005492E8024E14123441A3A322F0EE240F8D
:104EF3001254A322F0124F00AA0AAB0B229003759F
:104F0300E0FCA3E0FD2288828983A3A3E50AF0A342
:104F1300E50BF022F0124F1C229022A2E49324010D
:104F2300F8E43400F97A027B0022123EABA3227428
:104F3300ED1204078A088B09890E12506040057927
:104F43000502502E121798AA08AB0912513290226B
:104F530094125031650A7003E9650B70077AFE7B82
:104F6300FF125132902294E4125039E50A98E50B6E
:104F730099400302502C12503D6012E50A75F00669
:104F8300A4F875F006E50B1250881215ACE50E6017
:104F930018E50A75F006A4F8AAF075F006E50B12F9
:104FA30050B4701A790102502EE50A75F006A4F880
:104FB300AAF075F006E50B125095E4F0A3F0E50AAC
:104FC30075F006A4F8AAF075F006E50B125055A388
:104FD30012534188828983A3AA82AB831250A38A86
:104FE300828B83E0603F12503D603A8E108F1175C3
:104FF300120078101208C0E50EC333FCE433FDE55C
:105003000A75F006A4F50AA8F075F006E50BA428C6
:10501300F50B7418250AF582740C350B124BE1124B
:105023002EE11208D77900800279070261C5122B9D
:1050330068E82290228C125B4C22E50A75F006A4E4
:10504300F8AAF075F006E50B125090F8A3E0F9E822
:105053004922A42A1251E988828983A322ECFEED16
:10506300FF9022A0E493F8E9C39822F583125082BB
:105073001215AC22E50C1264ACE50D3400F583E0A7
:10508300FAA3E0FB22125090FAA3E0FB2212509500
:10509300E022A42AF9741828F582740C39F58322C6
:1050A300E50EF0900DB51250AD22E088828983F0B1
:1050B3002212520DF50CE93400F50DE50EC333FA57
:1050C300E433FB1215A6850C82850D83EAF0A3EB6E
:1050D300F0850C82850D831250DE22123ED7E849FB
:1050E3002274F4120407ECFEEDFF740C120B3D1254
:1050F30034EB88088909125132AC0AAD0BECF8ED98
:10510300F990229412513A5021E875F006A4F8AAB6
:10511300F075F006E9125055E08E828F8312514DDF
:105123001251431234F77900800279040236A11236
:105133000D7E8A0A8B0B22122ED9C3EC9AED9B2289
:10514300123ED3850882850983221252222274F6E5
:105153001204077E007F008028EEF8EFF9E875F06F
:1051630006A4F8ACF075F006E9A42CF9741628F53A
:1051730082740C125DD06A7003A3E06B6057123027
:105183006E12612240D312611D7002E96F70467482
:10519300FE6A700374FF6B703C7E007F0080031215
:1051A300306E126122502E124B1E70F3EEF8EFF99F
:1051B300E875F006A4F81251DF1252146017125169
:1051C300FBF8E91251F3888212506E850882850933
:1051D30083E4F0A3F0EEFAEFFB02350075F006E985
:1051E3001251E722A42AF9741428F8740C39F9220D
:1051F3003400F98808890922EEF8EFF9E875F0061A
:10520300A4F875F006E912520D221251E7E82404BE
:1052130022A3A374FE12521F1250DE22F0A3041223
:10522300522622F088828983A3A3A3A32274F612B1
:105233000407EA241DF582EB12532BF9604BEA2491
:105243001DF582EB125B652402FCA3E03400FD1222
:105253005064400302531E780080298C828D83E0C2
:10526300F508A3E0FFE5082400E43FF509E833FE71
:10527300E433FF745C2EF582740C3FF583125341C3
:1052830012532108E8C39940D28A828B83A3A3A334
:10529300A3A3A3A3A3A312421B900368E06C700310
:1052A300A3E06D700F7C5C7D0C12277E124BDF1226
:1052B3000D728067EA2411F582EB125B65605CFC7A
:1052C30074FF2CF075080178081208C875085C751E
:1052D300090C78081208C4E9F50878081208C8EA26
:1052E3002412F582EB125B65F50878081208C8EA08
:1052F3002415F582EB125495120734ECF912277E2C
:105303001242188A828B83A3A3A3A3A3A3A3A3A359
:10531300124BE3120D8A74071208D7023500EC24EE
:10532300020C0CED3400FD221254A6125333E0227A
:10533300E0F8A3E0F5838882A32288828983E508C5
:10534300F0A3E509F02274EA12040774FD1209556B
:105353008A148B158C0E8D0F890D7419120B3D1247
:1053630054AE741B120B3DE0F511741C120B3DE09F
:10537300F50C741D120B3D124924741F120B3DE0F2
:10538300F5106008E50CC333240480027402C0E006
:105393007401120B3DD0E01254BF8A088B09EA4511
:1053A30009700302548A8A828B83A3A3E514F0A3B2
:1053B300E515125FB8E50EF0A3E50FF0EA2413F547
:1053C30082EB125495E50DF0EA2414F582EB1254A6
:1053D30095E511F0EA2417F582EB125B6564017021
:1053E30040120F708A0E8B0FA80EA90F85088285B5
:1053F3000983A3A3A3A3E0687003A3E0696022EE7B
:105403004F6011E508241AF582E509125495EEF070
:10541300A3EF800CE5082417F582E509125495E4FF
:10542300F01254991254AE8E828F837405F0A3E563
:10543300107004E50C80487401250C1254B87A00EE
:105443008028850A82850B83E01254B4850A8285FD
:105453000B83A3E08E828F83F0E50A2402F50AE52D
:105463000B3400F50BA30EAF830AEAC3950C40D2AD
:10547300120F70EA1254B4120F70EB8E828F83F006
:10548300AA08AB09120C46740302455AEE240CF524
:1054930082EF1254A62212278F1254A622EE240B57
:1054A300F582EF3400F58322900334E0FEA3E0FF9E
:1054B300228E828F83F0A3AE82AF832212358212B3
:1054C3000FCA22C082C083E9C333FCE433FDEA2C54
:1054D300FAEB3DFBEA24FEF582EB34FF124BE102CB
:1054E300342974F212040789098A0A1250604004AD
:1054F3007900804075080080020508E508C3950916
:10550300502AE508C333F8E433F9EE28F582EF397E
:10551300F583C082C083120F708A0C8B0DD083D0A9
:1055230082E0650C7004A3E0650D70CDE50A6508A3
:1055330070BE79010249DE74F012040774F3120994
:10554300558A088B098C0A8D0B890C750D00120F77
:10555300E2E97900600302563CAA08AB09120DFC8C
:10556300A90C120DF08A0E8B0FAE0EAF0FEE4F701B
:105573000302563A8E828F83A3A3A3A3A3A3E0A21D
:10558300E2400302563A120F70EA650A7003EB65B4
:105593000B7011780D1208C8E4F50EF50F780E1292
:1055A30008C48044AA0AAB0B120BFEE964017068BD
:1055B3008518828519837404F07401120B3D124F10
:1055C3000F851882851983AA82AB83120BBCE96409
:1055D300017045750D01780D1208C8E4F50EF50F3D
:1055E300780E1208C4750D00780D1208C8780D12D4
:1055F30008C87408120B3D85820E85830F780E123E
:1056030008C49022ABE493F9AC0AAD0BAA08AB092A
:10561300120D8A74071208D78E828F83A3A3A3A3C4
:10562300A3A3E0A2E1400D8E828F83A3A3A3A3A330
:10563300A3C2E2F0750D01A90D023EDD74F612045A
:1056430007E9FE7900120DFCEEF9120DF08A088BC2
:1056530009A808A909E84960061264F3F9800279E8
:105663000402350074F61204077E0790035CE070B1
:10567300341256AD8A088B09A808A909E8496025A0
:10568300900361E0640188828983A3A3700B12569F
:10569300B4888289835001A3A3E0F91210EAE9FEDA
:1056A300EE70027E07EEF9023500124F001210CCA5
:1056B30022E0FA88828983A3E0C39A2274EE12045B
:1056C30007EAFEEBFF890A8C0C8D0B7412120B3D5B
:1056D3001234351257891250675051890E750F00D5
:1056E3007403780E120A20747A250EF582740C3531
:1056F3000FF583E0F8E50CC398502DE50B60247596
:10570300110074037810120A2074742510F8740CB5
:105713003511F988828983A3A3A3A3A3A3E50C125C
:105723005793F07900024CA6790380F979007AFE49
:105733007BFF125789E49365107004790280E6E5D4
:105743000B60E0890E750F007403780E120A207443
:1057530074250EF8740C350FF988828983A3EEF053
:10576300A3EF125793124F2DE50C123EA774FF12AD
:105773006372E50AF0900366E088828983A3A3A39A
:10578300A3A3A3A3809C120DEAE9F51090229E2205
:105793001264B5A3E508F0A3E5092274F612040721
:1057A300ECFF120DEA90229E12506750278908756C
:1057B300090074037808120A2074791257DD740CF7
:1057C300126024E0F8EFC3985006EFF079008006EA
:1057D300790380027904023500EA2508F5822274F0
:1057E300F4120407EAFEEBFF120DEAE9F50A902230
:1057F3009E1250675019750B007403780A120A2021
:105803007477250AF582740C350B124BE1801890DE
:10581300034B124769600CEEFAEFFB1239DB121EE1
:10582300AB80047AFE7BFF0236A174F61204078A6A
:10583300828B83A3A3A3A3A3E4F0F880010890229F
:10584300A4E493F9E8C399501E880812588B8C82FC
:105853008D83A3A3A3A3A3A3A3A3E06970DFECFA9F
:10586300EDFB120F16801EE4936870198C828D83F2
:10587300A3A3A3A3A3A3A3A3A37406F07A008C8278
:105883008D831259B602350074FC2508F582740C19
:10589300125B71F92274F4120407EAFEEBFF8E82A5
:1058A3008F83A3A3E0141259CDA3E0F9120EF28A59
:1058B300088B09EA4509700302598E8E828F83A3F0
:1058C300A3E070358A828B83A3A3A3A3A3A3A3A37B
:1058D300A3E064028A828B83A3A3A3A3A3A3A3A3AA
:1058E300A360107406F07AF08508828B831259B690
:1058F30002598E7406F002598E8E828F83A3A3A35E
:10590300A3A3A3E060738E828F83A3A3A3A3E0600A
:105913007AEE2403F582EF125991706F90035512BA
:1059230059971259CDE014125FAFE06403705C8E97
:10593300828F83A3A3A3A3E0700DAC08AD09EEFA95
:10594300EFFB120DC080448A828B83A3A3A3A3A37E
:10595300A3A3A3A37404F012151CEA540F0485082F
:1059630082850983A3A3A3A3F0A3E4F07A20FB1207
:1059730059AD70171259A080128A828B83A3A3A3F7
:10598300A3A3A3A3A3A3E0640360AF0236A1125BA6
:105993007114F022E08E828F83A3A3A3227A207B4B
:1059A300009003C2E0F912155E22125FCB8B09EA65
:1059B300450922E0240C1259C2E0F9120E3822F8EC
:1059C300A3E03400F988828983221259D2A32212D8
:1059D30034DDA3A3A32274F612040779007E0080AA
:1059E300258E0875090074037808120A2074B425FB
:1059F30008FA740C3509FB8A828B83A3A3E0600544
:105A0300120DC679010E9022A4E493F8EEC39840D8
:105A1300D0E9A2E07A407B009003C2E0F95015126E
:105A2300166C8B09EA4509700E7C647D007A40127E
:105A33003CF8800312166602350074F4120407EC76
:105A4300FEEDFF7508B475090C7C0080458508825E
:105A5300850983A3A3A3A3A3A3A3E0F8EA2412F5D0
:105A630082EB125B6568701F850882850983123497
:105A7300EB125B69687003A3E069700B850882858C
:105A83000983A3A3E070200CE5082408F8E50912B4
:105A930051F39022A4E493F8ECC39840B0E4936CE0
:105AA300700579000236A1850882850983A3A3A323
:105AB300A3A3A3E07004790180EA1261BD1210A2CE
:105AC3008B0BEA450B600F850882850983A3A3A38B
:105AD300A3A3A3E014F07C0080010C8C0A125B3FAB
:105AE3005020EC125B7760F21230866E7003A3E0F5
:105AF3006F70E7850882850983A3A3A3A3A3A3E00B
:105B030014F090229FE493F890228CE49328F8A356
:105B1300E4933400F9850882850983A3A3A3A3A38F
:105B2300A3E0FAC3E89AE99400508B8508828509BB
