:020000040000FA
:06000000020AD00201B467
:030013000201D710
:03002B00020924A3
:030033000206D3EF
:03003B0002022C92
:030053000200E5C3
:03006B000206ADDD
:100083000201490101FF01010503010F10FEFF5A9F
:10009300135A135A135A13161210125A13A51F0088
:1000A3000000006920000000000C0000000C0001AB
:1000B300FFFF010102005905000000CC05640002A6
:1000C3000200080000050207051E02051E020A0AB7
:1000D30003B80B02803E0102FFFF14965118000281
:1000E3000206C0E074F2120474A2AFE433FED2AF8E
:1000F300E5A7FFE5A1F5085F54106006121A7475B1
:10010300A1EFE5085F54086008121A7A75A1F78019
:100113002BEFA2E0C0D0E508A2E092F0120A0D1581
:100123008182F05017906198E0F89007A4E0C3989B
:10013300A2D265D0335002E8F075A1FEEEA2E092A0
:10014300AF7F0102052BC0E074F2120474A2AFE486
:1001530033FED2AF9061A4E0F8759B00E59158544B
:100163000860087591F7121AC2802AE59158541055
:1001730060087591EF121AC8801BE8A2E0C0D0E5B1
:1001830091A2E092F0120A0D158182F05007E0C2AD
:10019300E0F0121C0C9061A3E0F8E5E95854046008
:1001A3000E121BE275E9FB906193E0A2E640F28038
:1001B3008BC0E074F2120474A2AFE433FED2AF90AA
:1001C30061A5E0F8E5BF585404600675BFFB121C37
:1001D3002402013FC0E0C0D0E8C0E0E9C0E0C08233
:1001E300C083E5C1C0E0900710E0F8748F28F58262
:1001F30074063400F583D0E0F090070FE0F8A3E035
:10020300687006E595900712F0900710E004F0C3BC
:1002130094804002E4F0A374C6F0D083D082D0E08F
:10022300F9D0E0F8D0D0D0E032C0E0C0D0E8C0E0F0
:10023300C008C009C082C083900793E0F8A3E068B8
:100243007008539AFBA374018026C2E9900793E0D8
:10025300F50874012508F074132508F58274073432
:1002630000F583E0F5C1900793E0C394804002E476
:10027300F0D083D082D009D00880A6C3E498F8E4F4
:1002830099F91202BF8026C3E49AFAE49BFBE920A2
:10029300E7E91202BFE498F8E499F922C3E498F875
:1002A300E499F91202BFE498F8E499F9C3E49AFADD
:1002B300E49BFB22EB20E7CFE920E7E0B90010BB8A
:1002C3000008E88AF084F8AAF022E4FBC8FA22EBDB
:1002D30070227B10C833C8C933C9335007C39AC3CC
:1002E300DBF280069A50012ADBEAC833F4C8C9332B
:1002F300F4C9FA2275F008E4C833C8C933C933C94D
:100303009AC99B5004C92AC93BD5F0ECFBC833F406
:10031300C8E4C9FA22080808EAC0E0EBC0E086F0A6
:10032300E7A4FA180986F0E7A42AFA180986F0E781
:10033300A42AFA180986F0E7A42AFA1986F0E7A492
:10034300FBE5F02AFA190886F0E7A42BFBE5F03A5F
:10035300FA190886F0E7A42BFBE5F03AFA18180916
:1003630086F0E7A4C5F02BFBE43AFA1908E7C5F0D9
:10037300C6A426F6E5F03BFBE43AFA1886F0E7A4B8
:10038300F6E5F00826F6E43B08F6E43A08F6D0E092
:10039300FBD0E0FA22E4CFC0E0E4CEC0E0E4CDC07D
:1003A300E0E4CCC0E075F020C3E633F608E633F6AC
:1003B30008E633F608E633F6181818EC33FCED3389
:1003C300FDEE33FEEF33FFC3EC9709ED9709EE978C
:1003D30009EF97191919400FFFEC97FC09ED97FDE9
:1003E30009EE97FE191906D5F0BEECF709EDF709EA
:1003F300EEF709EFF7191919D0E0FCD0E0FDD0E0D2
:10040300FED0E0FF222518C582C0E0E51934FFC500
:1004130083C0E0E518C3958224F810AF08858319DB
:100423008582188008858319858218D2AFCEF0A300
:10043300E520F0A37808E608F0A3DEFAEFF0A3E5E1
:100443008124FAF8E608F0A3E608F0A3E608F0A38F
:100453000808E608F0A3E608F0A315811581D0E0AB
:10046300FED0E0F8158115811581E8C0E0EEC0E00B
:1004730022C0D02518C582C0E0E51934FFC583C06A
:10048300E0E518C3958224F310AF088583198582AC
:10049300188008858319858218D2AFC8F0A3E9F0C4
:1004A300A3EAF0A3EBF0A37908E709F0A3D8FAECE9
:1004B300F0A3EDF0A3EEF0A3EFF0A3D0E0F0A3D010
:1004C300E0F0A3D0E0F0A3E520F0A3E5F0F0A32251
:1004D300120B32B90003020515E4900301786B791E
:1004E3000B8002F0A3D8FCD9FA900D6BAA82AB83E0
:1004F300900086786079018015E493A3AC82AD8384
:100503008A828B83F0A3AA82AB838C828D83D8E902
:10051300D9E77582087583D974031208837582AC91
:1005230075831E7400120883851983851882E0C0C1
:10053300E0A3E0F9A3E0FAA3E0FBA37808E0F60860
:10054300A3DFFAE0FCA3E0FDA3E0FEA3E0FFA3E04A
:10055300C0E0A3E0C0E0A3E0F5D0A3E0F520A3E072
:10056300A3F5F010AF088583198582188008858369
:1005730019858218D2AFD082D083D0E0F8D0E03290
:100583000975F0108E1A8F1B85821F85831E8518AF
:1005930082851983E0CEA3E0CF851F82851E83EB7E
:1005A300C9EAC8EDCBECCAC3E833C8E933C9EA33B7
:1005B300CAEB33CBC3EA9EF51DEB9FF51CB3500486
:1005C300AB1CAA1DEC33CCED33CDD5F0DAAE1AAFAC
:1005D3001B22D083D082ECC0E0EDC0E0E493A3FC07
:1005E300E493A3FDED4C600D1206F1EC24FFFCED4A
:1005F30034FFFD80EFE493A3FCE493A3FDED4C6093
:100603000D12078EEC24FFFCED34FFFD80EFD0E0EC
:10061300FDD0E0FCE493A3C0E0E493C0E022D083E8
:10062300D082E9C0E0E493A3C386F0C5F095F0F966
:1006330008E493A386F0C5F095F0700BE493A3C38D
:10064300994005E9048002A3E475F002A42582F52C
:1006530082E5F03583F583D0E0F9E493A3C0E0E4C9
:1006630093C0E022851983851882E0A3FEE0A3F5F9
:10067300207808E0A3F608DFFAE0A3FFE0A3C0E0D8
:10068300E0A3C0E0E0A3C0E0E0A3C0E0E0A3C0E0DB
:1006930010AF0885821885831980088582188583A1
:1006A30019D2AFD083D082020889C0E074F2120459
:1006B30074A2AFE433FED2AFE589A2E4500312196A
:1006C300B4758900C2C5EEA2E092AF7F0102052B8B
:1006D300C0E074F2120474A2AFE433FED2AFE58B30
:1006E300A2E050031219B4758B00C2E880D8C0E0B1
:1006F300C3E49396087401939618400FE4936670CD
:100703000808740193661870007019A3A3C3E493D7
:1007130096087401939618A3A3400DD0E0D0E0D0BF
:10072300E0020611A3A3A3A3A3A3D0E02274048031
:100733000474028000CCC0E0EDC0E0E518C39CCC9B
:10074300AD1950011D10AF068C188D1980068C1839
:100753008D19D2AF120805D0E0FDD0E0FC2274025F
:100763008000CCC0E0EDC0E0E518C39CCCAD1950CF
:10077300011D10AF068C188D1980068C188D19D2A7
:10078300AF1207E3D0E0FDD0E0FC22C0E0C0F08868
:10079300F0E4936670080874019366187000A8F07B
:1007A300A3A3700BD0F0D0E0D0E0D0E0020611A3F9
:1007B300A3D0F0D0E022D083D082CCC0E0E493A3D6
:1007C30060061208451470FAE493A3600612096BDD
:1007D3001470FAD0E0FCE493A3C0E0E493C0E022F9
:1007E300CAC0E0E493A3C582CCC582C583CDC583CB
:1007F300F0A3C582CCC582C583CDC583DAE5D0E03D
:10080300CA22CAC0E0E0A3C582CCC582C583CDC5D8
:1008130083F0A3C582CCC582C583CDC583DAE6D078
:10082300E0CA227009080808226016181818C6C3FF
:1008330033C608C633C608C633C608C633C6D5E0B2
:10084300EA22C0E0E493A3D39C5010E493A3C39C97
:10085300400AD0E0D0E0D0E00207D6A3A3A3D0E0C3
:1008630022C008C3E096F50808A3E096420808A34F
:10087300E096420808A3E09645087001D3D0082209
:10088300C09FF59FE473D09F22D083D082C09FE4A2
:1008930093C0E0740193C0E0740293F59F2225187E
:1008A300F58210AF08F518400215198008F51840B5
:1008B300021519D2AF851983227404800A74038048
:1008C30006740280027401C0E0F4041208A1D0E0AF
:1008D300120B0D22C0D0251810AF08F518500205D1
:1008E300198008F51850020519D2AFD0D022BB01E8
:1008F30002E722C082C08389828A83BB0003E0802F
:1009030002E493D083D082226016080808C6C3137A
:10091300C618C613C618C613C618C613C6D5E0EA4A
:1009230022C0E0C0D0E8C0E0E5A8D2AFC2C7A2E7CA
:1009330092AFD0E0F8D0D0D0E032C3E0C696F6084C
:10094300A3E0C696F608A3E0C696F608A3E0C6960B
:10095300F622251810AF08F518400215198008F57E
:100963001840021519D2AF22C0E0E493A36C7009BA
:10097300D0E0D0E0D0E00207D6A3A3D0E022E06627
:10098300701008A3E066700A08A3E066700408A369
:10099300E06622E76670100809E766700A0809E74F
:1009A3006670040809E76622C3E09608A3E0960888
:1009B300A3E09608A3E096A2D265D03322C3E096C3
:1009C300F008A3E096F008A3E096F008A3E096F001
:1009D30022E026F008A3E036F008A3E036F008A3EF
:1009E300E036F022E627F60809E637F60809E63787
:1009F300F60809E637F622E026F608A3E036F608FD
:100A0300A3E036F608A3E036F622C0E0E8C0E0E54E
:100A13008124FCF8E6A2E7D0E0F8D0E022700422BB
:100A2300600D18C6C333C608C633C6D5E0F4182212
:100A3300E657F60809E657F60809E657F60809E601
:100A430057F622E056F608A3E056F608A3E056F65A
:100A530008A3E056F622E056F008A3E056F008A3F8
:100A6300E056F008A3E056F022E647F60809E64709
:100A7300F60809E647F60809E647F622E4C396F6C0
:100A830008E496F608E496F608E496F622C3E79699
:100A93000809E7960809E7960809E79622C6F4C607
:100AA30008C6F4C608C6F4C608C6F4C622600D0814
:100AB300C6A2E713C618C613C6D5E0F322C3E09651
:100AC30008A3E09608A3E09608A3E0962275D00059
:100AD300758140751801751903000204D3E0F60807
:100AE300A3E0F608A3E0F608A3E0F622600C08C62C
:100AF300C313C618C613C6D5E0F422E6F008A3E66E
:100B0300F008A3E6F008A3E6F022CAC0E0E6F0A3EB
:100B130008DAFAD0E0FA22E0FAA3E0FBA3E0FCA3B0
:100B2300E0FD22EAF0A3EBF0A3ECF0A3EDF022E565
:100B3300C754F84401F5C77901222518F582E43535
:100B430019F58322C2AF75D69F0200002212088CCA
:100B5300B9E00212088C0EE30212088C5BE4021265
:100B6300088CFEE40212088C45E60212088C63E648
:100B73000212088CB9220012088CCB220012088CB6
:100B83001D230012088C7E230012088C08240012F7
:100B9300088CAC240012088C00250012088C19253F
:100BA3000012088C3F250012088C7A250012088C4D
:100BB300BE250012088CE5250012088C362600128B
:100BC300088CE6260012088C9E270012088C6628E3
:100BD3000012088C26290012088C6A290012088C3E
:100BE3008F290012088CD2290012088C1F2A0012A8
:100BF300088C772B0012088CFD2B0012088C1B2C01
:100C03000012088C452C0012088C5F2C0012088CF3
:100C13006E2C0012088C792C0012088C392D0012CE
:100C2300088C922D0012088C542E0012088C5C2E16
:100C33000012088C202F0012088C8C2F0012088CB5
:100C4300B7300012088CDC300012088C52310012CD
:100C5300088CE4310012088CA4320012088CC332D1
:100C63000012088CD2330012088CE4330012088C73
:100C730054340012088C7E340012088C0C35001298
:100C8300088C45350012088C91350012088CAD365E
:100C93000012088CF6380012088C01390012088CF7
:100CA3000C390012088C17390012088C21390012F4
:100CB300088C2C390012088C46390012088C5039E4
:100CC3000012088C5A390012088C65390012088CFE
:100CD3008D390012088CE8390012088CF2390012A1
:100CE300088C163A0012088C3A3A0012088C983A8B
:100CF3000012088CDC3A0012088CF83A0012088CB7
:100D03006F3B0012088CA73B0012088CF33B0012C8
:100D1300088C503C0012088C0A3D0012088CEE3EF1
:100D23000012088C473F0012088C77400012088C91
:100D33009D400012088C26420012088CA245001226
:100D4300088C74470012088C3D490012088CEA494C
:100D53000012088C554B0012088CF44B0012088CBF
:100D6300394C0012088CA34C0012088CB24C0012B0
:100D7300088C394F0012088CEB500012088C585124
:100D83000012088C37520012088C50530012088C42
:100D9300CD540012088CEC540012088C41550012FB
:100DA300088C46560012088C6E560012088CC656E4
:100DB3000012088CA5570012088CE9570012088C02
:100DC30034580012088C9F580012088CE059001206
:100DD300088C445A0012088C925B0012088CF25D56
:100DE3000012088C235E0012088CDB5F0012088C53
:100DF30030600012088C34610012088CD16100123B
:100E0300088C2A620012088CDD620012088C7F6352
:100E13000012088C1F640012088CC4640012088C32
:100E2300AB800112088CEA800112088C3183011215
:100E3300088C7B830112088C96840112088CFE8433
:100E43000112088C33850112088CA7860112088CC5
:100E53002A890112088C538A0112088CE98A01122B
:100E6300088CF1930112088C86940112088C6D97FB
:100E73000112088C60980112088CCE980112088C1C
:100E8300149A0112088CF69A0112088CDB9C011249
:100E9300088CEC9E0112088C569F0112088C28A026
:100EA3000112088C56A00112088C13A10112088CA0
:100EB300EAA10112088CB1A20112088C55A30112F8
:100EC300088C7EA30112088CA0A30112088CF6A53E
:100ED3000112088CCEA60112088C12A70112088CED
:100EE3007AA70112088C32A80112088C64A8011297
:100EF300088CA8A80112088CDEA80112088C2AA964
:100F03000112088C7FA90112088C84A90112088C94
:100F1300D7A90112088CFCA90112088C0BAB011292
:100F2300088C6FAB0112088CDFAB0112088C6BAC21
:100F33000112088C38AF0112088C1CB00112088C06
:100F43009FB10112088CD5B30112088C83B401122E
:100F5300088C33B50112088C74B70112088C17B8CA
:100F63000112088C5EB80112088C0ABA0112088CAF
:100F73001EBA0112088C28BA0112088C50BA011249
:100F8300088C5CBA0112088C7BBA0112088C9BBCDA
:100F93000112088CEABD0112088C2EBE0112088CC6
:100FA300D6BE0112088CB9BF0112088C64C00112AD
:100FB300088CB0C10112088CAEC20112088C54C354
:100FC3000112088CE4C30112088CFBC30112088CC4
:100FD30032C40112088C3CC40112088C47C40112AC
:100FE300088C65C40112088CA9C40112088C06C5BB
:100FF3000112088C2BC50112088C45C50112088CFF
:10100300D1C50112088CEEC60112088C5BC7011210
:10101300088C42C80112088C69C80112088CDDC80B
:101023000112088C58C90112088C5CCA0112088C81
:1010330052CB0112088C01CC0112088C14CD011281
:10104300088CB0CD0112088C3DCE0112088C1BCF49
:101053000112088C53CF0112088CABCF0112088CFC
:1010630074D00112088C95D00112088C1CD1011286
:10107300088C40D10112088C62D10112088CABD1CB
:101083000112088CC1D30112088CA8D40112088C58
:1010930059D50112088C8FD70112088CDFD70112A2
:1010A300088C1FD80112088C61D80112088CBDD896
:1010B3000112088CEBD80112088C0FD90112088C8D
:1010C30062D90112088C90D90112088CC9D9011276
:1010D300088C1EDA0112088C84DA0112088CD8DB22
:1010E3000112088CFBDD0112088C68DE0112088CEA
:1010F30091DE0112088C1CDF0112088C83DF0112C0
:10110300088CCEDF0112088CF2DF0112088C16E086
:101113000112088C71E00112088C8CE00112088C1A
:1011230045E10112088C1EE80312088C5DE80312E6
:10113300088C78800212088CBE800212088C9E8173
:101143000212088CA0820212088CA3830212088C5C
:101153002F850212088C8D850212088C4A86021292
:10116300088C68870212088CD9870212088C1588AC
:101173000212088C63880212088C6D880212088C94
:10118300B1880212088C0D890212088CA8890212F8
:10119300088C258A0212088CF48A0212088C8D8B23
:1011A3000212088CAD8B0212088CE38B0212088C9E
:1011B300148C0212088CD58C0212088CE58C021256
:1011C300088C398D0212088C548D0212088C668D9E
:1011D3000212088C6F8D0212088CC98D0212088CC2
:1011E300258E0212088C718E0212088C8C8E0212CC
:1011F300088CBD8E0212088CDA8E0212088CE68EE1
:101203000212088C5A900212088C73900212088CF6
:10121300DA900212088CED900212088CFB900212F5
:10122300088CAF910212088C93920212088C999346
:101233000212088C23940212088C2D940212088C3B
:101243009A940212088CB1940212088CE39402124D
:10125300088C1C950212088C46950212088CA795DF
:101263000212088CC7950212088CE5950212088CAD
:101273002B960212088C51970212088C9E97021229
:10128300088CCD970212088C43980212088C6B9835
:101293000212088CA4980212088CB2980212088CCD
:1012A3000A990212088C59990212088C9899021211
:1012B300088CC8990212088CF4990212088CFF99C1
:1012C3000212088C1D9A0212088CDF9A0212088CF3
:1012D300E99A0212088C2A9B0212088C7F9B021245
:1012E300088C939B0212088CA19C0212088CB49C5C
:1012F3000212088CC99C0212088C6B9D0212088C86
:10130300EE9D0212088CAC9E0212088CB79E02124C
:10131300088CE39F0212088CFF9F0212088C51A0D5
:101323000212088C90A00212088CA5A00212088C4D
:1013330007A10212088C96A10212088CE1A10212E5
:10134300088C32A40212088CB0A40212088C25A5C2
:101353000212088C47A70212088C5FA70212088C9E
:1013630062A70212088C6EA70212088C82A70212CF
:10137300088C8AA70212088CBDA70212088C6DA8DC
:101383000212088CE3A80212088C56A90212088CD8
:101393000AAA0212088CBFAA0212088CDEAA021241
:1013A300088C84AB0212088CAFAB0212088CB2AB70
:1013B3000212088C1CAC0212088C44AD0212088C79
:1013C3001CAE0212088CA7AE0212088CC0AF021228
:1013D300088C7DB00212088CB6B00212088CE7B0FC
:1013E3000212088CA5B10212088CD5B10212088C26
:1013F300B0B20212088C49B30212088CD4B30212A1
:10140300088C85B40212088C08B50212088C3AB510
:101413000212088C7BB50212088C09F50112088CA4
:101423006EF50112088CABF50112088CFAF5011266
:10143300088C10F80112088CF3F90112088C5DFD79
:101443000112088C98FD0112088CBDD70212088C7A
:101453001DFE0112088C51FE0112088C74FE01124C
:10146300088CA1FE0112088CFDFE0112088C278D49
:101473000312088CA58D0312088CDB8D0312088CD4
:10148300478E0312088CBA8F0312088CD68F03126F
:10149300088C1B900312088CA9900312088C0291EC
:1014A3000312088C2F920312088CD7DF0212088CC8
:1014B3009E930312088C0A940312088C6B940312F4
:1014C300088CAC940312088C59950312088C6B9604
:1014D3000312088C96960312088CE1960312088C6B
:1014E30028970312088CBA970312088C7598031275
:1014F300088CE8DC0312088C62DD0312088C6DDDB6
:101503000312088C30A00312088C7CA00312088CF1
:10151300EAA00312088C0BA10312088CBBA10312CF
:10152300088CC4A10312088C17A20312088C40A2D2
:101533000312088CA7A20312088C38A30312088C89
:101543007AA30312088CC4A30312088C23A40312E6
:10155300088C4FA40312088CE0A40312088C1FA567
:101563000312088C5EA50312088C93A50312088C42
:10157300A5A50312088CB7A50312088CD6A50312E0
:10158300088CDFA50312088C95A60312088CD5A638
:101593000312088C64E40312088CD6D60312088C59
:1015A3000CD70312088C55D70312088CA5D8031245
:1015B300088C7FE10112088CBEE20112088CFAE26A
:1015C3000112088CB9E40112088CE2E40112088CC0
:1015D30075E70112088CB9E70112088C42E9011280
:1015E300088CDAE90112088C42EA0112088CE3EA5A
:1015F3000112088C25EB0112088C65EB0112088C93
:10160300F0EC0112088C60EE0112088C85F00112D7
:10161300088CB3F00112088CDAF00112088CE3F0A5
:101623000112088C6AF10112088C88F40112088CEB
:1016330036E90312088C4CE90312088CD3E7031232
:10164300088C79C90312088C8CC90312088C29CA27
:101653000312088C64CA0312088C7FCA0312088C15
:10166300A4CA0312088CE9CA0312088C1ACB03120A
:10167300088C4BCB0312088CD1CC0312088C49FF86
:101683000112088C7FFF0112088C9BFF0112088C4A
:10169300DDFF0112088CEDFF0112088CFEA6031278
:1016A300088CA2A70312088C70A80312088C22A925
:1016B3000312088CF7AA0312088C3DAB0312088CA3
:1016C300B3AB0312088C00800312088C55800312FD
:1016D300088C3E810312088CD7810312088C218267
:1016E3000312088C7E820312088C92820312088CE8
:1016F300C4820312088CC2830312088C068403126B
:10170300088C21840312088C70840312088C86844D
:101713000312088C93840312088CC7840312088C69
:10172300E0840312088CAA850312088C0486031232
:10173300088C52860312088C74860312088CEB887B
:101743000312088C20890312088CB0890312088CB9
:10175300258A0312088C2A8A0312088C668A0312CC
:10176300088CBC8A0312088C808B0312088CA58B0F
:101773000312088CAF8B0312088CB28B0312088CF4
:101783003B8C0312088C568C0312088C698C031251
:10179300088CA48C0312088CA78C0312088CB28CBF
:1017A3000312088CEE8C0312088C86E70312088C54
:1017B3009EE70312088CEC980312088C3B990312E2
:1017C300088CDD9A0312088C999C0312088CE19C07
:1017D3000312088CC99D0312088CFA9E0312088C0D
:1017E3001C9F0312088C789F0312088CFC9F031222
:1017F300088C10650012088C31650012088CAE65E8
:101803000012088C33660012088CAF660012088C35
:1018130018670012088C64670012088CE3670012D3
:10182300088C75680012088C01690012088C4369E2
:101833000012088C8C6D0012088C0C6F0012088C3F
:10184300E26F0012088C11700012088CFC710012F8
:10185300088C7C740012088C35750012088C527643
:101863000012088CA9790012088CB9790012088C2F
:101873001A7B0012088CA67B0012088CCF7C001206
:10188300088CC07D0012088C427E0012088C8AE608
:101893000212088C44E70212088CB6E70212088C85
:1018A30052E80212088CC2E80212088C7BEB021287
:1018B300088C52EC0212088CBFEC0212088C3CEE2E
:1018C3000212088C06EF0212088C76EF0212088CC3
:1018D3003FF10212088C52F20212088CEBF2021250
:1018E300088CB1F30212088CD5BE0312088C29BFF1
:1018F3000312088C81BF0312088CCCBF0312088C1F
:101903002EC00312088C9AC00312088C4DC1031217
:10191300088C8EC10312088CA4C10312088C00C268
:101923000312088C3EC20312088C0EDB0312088CD0
:101933003FDB0312088CF9DB0312088C5FDC031214
:10194300088C82D90312088C37E50312088C48E50A
:101953000312088CE8E50312088C41FE0212088C7E
:101963004FFE0212088CED7F0012088CA2E60312D0
:10197300088CB2E60312088CCAE60312088C2BE724
:101983000312088C62E30312088CE7E30312088C4A
:101993004BE40312088C60DE0312088C7CDE031216
:1019A300088CD3DE0312088CF3DE0312088C30DFBD
:1019B3000312088C8BDF0312088C6FC20312088C8E
:1019C3007DC20312088CF7C20312088CDBC3031217
:1019D300088C94C50312088C14E90312088CDECC1E
:1019E3000312088C2CCD0312088CC9CD0312088C6A
:1019F30074CE0312088C8CCE0312088C08CF03120A
:101A0300088C1ECF0312088C31CF0312088C3FCFF2
:101A13000312088CA3B10312088CF8B10312088CCB
:101A2300F4B30312088C26B40312088C48B40312CF
:101A3300088C61B40312088C7AB40312088C84B541
:101A43000312088C1FB60312088CC2DF0312088C22
:101A5300E6DF0312088CFFDF0312088C32E0031267
:101A6300088C63E00312088C91E00312088CF3E006
:101A73000312088C02E10312088C0CE10312088C98
:101A830019E10312088C83CF0312088CA9CF031228
:101A9300088CE6CF0312088CF5CF0312088C14D000
:101AA3000312088C7CD00312088C85D00312088C97
:101AB300E4D00312088C08D10312088CC7D1031297
:101AC300088CD4D10312088CE5D10312088CABE83F
:101AD3000312088CC8E80312088C96B60312088C0C
:101AE300F4B70312088C01B80312088C14B803125C
:101AF300088C33B80312088C49B80312088C5DB8FC
:101B03000312088CD2B80312088C37B90312088C5D
:101B1300E7B90312088CBCBA0312088CCCBA0312BF
:101B2300088CDBBA0312088C09E60312088C2DE635
:101B33000312088C55E60312088C7DE60312088C09
:101B430013D20312088C3AD20312088C5BD203120D
:101B5300088CC0D20312088C79D40312088C92D457
:101B63000312088C9ED40312088CB2D40312088C7F
:101B7300D0D40312088CDAD40312088CE4D40312F1
:101B8300088CF7D40312088C4AD50312088C83D52A
:101B93000312088CB2D50312088C00D60312088CEA
:101BA3004FD60312088C6AD60312088C74D603121C
:101BB300088C85D60312088CCBD60312088C35E724
:101BC3000312088C05F50212088C2FF50212088CFB
:101BD3004BF50212088C5EF50212088C74F50212A2
:101BE300088CD1F50212088C04F60212088C40FA14
:101BF3000212088C66FB0212088C99FB0212088CF5
:101C0300E5FB0212088C11FD0212088C39FD021249
:101C1300088C4EFD0212088C5EFD0212088CA2FD98
:101C23000212088C03FE0212088C13FE0212088CA7
:101C330023E10312088C3EE10312088C67E10312CF
:101C4300088C81E10312088CA6E10312088CC5E11C
:101C53000312088CDDE10312088C0BE20312088CDB
:101C630025E20312088C67E80312088CF9C50312F6
:101C7300088C00C60312088C0CC70312088C3CC7DF
:101C83000312088C62C70312088C85C70312088CE1
:101C9300A7C70312088CE1C70312088C47C80312B5
:101CA300088C80C80312088CCCC80312088CF9C8AE
:101CB3000312088C19C90312088C56E20312088C0C
:101CC3006EE20312088C5CE30312088C5FE30312D9
:101CD300088CDA7E0012088C4C7F0012088C8A7FF5
:101CE3000012088CCB7F0012088C14BB0312088CE3
:101CF30033BB0312088C82BB0312088C9EBB0312F6
:101D0300088CCFBB0312088CDCBB0312088CE9BB25
:101D13000312088CD5BC0312088C13BD0312088C64
:101D230023BE0312088C2EBE0312088C40BE03127E
:101D3300088C49BE0312088C53BE0312088CE6AC10
:101D43000312088C2BB10312088C39B10312088CCF
:101D5300E7E80312088C86D60212088CDAD5021241
:101D6300088C20D40212088CD0D10212088C57D1CF
:101D73000212088CFED00212088C8ED00212088C3C
:101D830065D00212088C45CE0212088C11CE0212C5
:101D9300088CDECD0212088CC2CD0212088CDBCC7B
:101DA3000212088C93CC0212088CDECA0212088C31
:101DB3005ECA0212088C5BCA0212088C58C902124E
:101DC300088C26C90212088C63C80212088C8EC6BE
:101DD3000212088C1FC60212088CBBDF0212088C89
:101DE3003FDF0212088CF6DE0212088CAEDE02120E
:101DF300088CFCDD0212088CF1C50212088CEEC5BA
:101E03000212088CDBC50212088C86C50212088CEC
:101E13006EDD0212088C75C50212088C67C40212AB
:101E2300088C31C40212088CDFC30212088C61DDF6
:101E33000212088C41930312088C80C30212088C8F
:101E43004FC30212088C17C00212088CD7BF0212AC
:101E5300088CCBBF0212088C2BBF0212088C6BBEFE
:101E63000212088CEDBB0212088C7EB90212088C98
:101E73003CB90212088C10B80212088CC5B70212C2
:101E8300088C04B70212088CD7B60212088C1AB653
:101E93000212088CB0B50212088CEAB50212088C43
:101EA3005BDA0212088CBAFD0100000080FBE473C8
:101EB30000013636010100010201000103010001A6
:101EC3000401060605020000070100340801000FA3
:101ED300090401010D0100FF0E08000017020000B4
:101EE300190100FF1A0100011B0100FE1C0100087B
:101EF3001D0200001F01000120010001210200005A
:101F03002301000F2402000026010001270100081D
:101F1300280200FF2A0100072B0102402C010000C8
:101F23002D0100012E0100012F0100FF30010B1CC8
:101F3300310800003A0100083B01000F2F010000A7
:101F430003027102300160021102700201020202F7
:101F530002028002100261023A004100630273022E
:101F630072026202430200021302380000020002FE
:101F73000402120200020002000200020402040230
:101F8300370037003C02440200023900000200021D
:101F93006502000235028102000205028202830209
:101FA3000002030071003001600011007000310273
:101FB300200350048000100061000000140063003F
:101FC300730072006200430000001300060000006B
:101FD30000000400120000000000000000000400E4
:101FE3000400370037003C024400000000000000FA
:101FF30000006500000035008100000005000000BE
:1020030083000000030471040204600411047004DB
:102013000204020401040204100461040004140411
:102023006304730472046204430400041304060487
:102033000004000404041204000400040004000467
:102043005104640000040004000444040004000478
:1020530000040004650400043504810464000504DD
:10206300000483040004010371030103010301035A
:10207300010301032203020301031003000300030E
:1020830000030003000300030003420300032403CF
:10209300060300030003040312032503230325039C
:1020A30023030403040300030003000344030003A6
:1020B30000032303000365032100350381030003A9
:1020C3000503000300030003010171010101010184
:1020D30011010101310101010101800110016101BF
:1020E3003B001400630173017201620143010001AB
:1020F300130106013D013500040112010001000135
:102103000001000104010401330133013C014401D6
:102113003201360000010001650100013500810133
:102123000001050182018301000136000100060060
:1021330000000F000000000000000000000000008D
:1021430003FFFF00000403FFFF0000FFFF0FF40184
:102153000005C4040320000100000B000000000080
:1021630000000003010F0000A61813004618010029
:10217300A618020010180300161804001C18050006
:10218300221806002E18FFFF000001680E06980EA5
:1021930008920E0BA40E10E40D026E0E05860E07B8
:1021A300740E0C4A0E0D5C0EFF000003EAF5E5D534
:1021B300D5C5B5A59595858575756565555545450C
:1021C300353525251515057012A01276127C129A45
:1021D300128E128812A612AC12B212BE1282126AA8
:1021E30012641200160F00000B150B020002220FDF
:1021F300320000065A136C1372133A127813341216
:10220300401274116E11AA11B011A4115C11B41310
:10221300D213D813BA13C613C013303016181920AB
:10222300231A1C1E300C0E020B040B0A0708000FA6
:1022330000383C3E363B3B352B432C3030171819C6
:1022430021301B1D1F300001191618161615230304
:102253000000034948424D1817250502A8137E13B1
:10226300841390138A139412B812CC13C412CA1293
:10227300020402010101010902801186117A11B6DB
:10228300110000000000008C119E1100BE040A0E14
:1022930000150004007F00E8030C00280000000084
:1022A300000308100C0A03080900040001FF1E1EA6
:1022B3000C05040F1008C082C0838A828B83E0D28E
:1022C300E7F0121774023430C082C08379001227FA
:1022D3008512549CC082C083900334124222D0835F
:1022E300D082C3E09CA3E09D500C125B70FAA3E084
:1022F3001222FC600109023430FBEA75F00BA4FAE8
:10230300A8F075F00BEBA428FB900336E02AF8A3A2
:10231300E03B8882F583E0540F2274F712040889A6
:102323000812278512282BACF075F00BE9A42CF9C1
:10233300900336E028FEA3E039FF740165086006C8
:102343007402650870208A828B831228171234FE68
:1023530074026508701B1226D612285E70138E82D3
:102363008F83E4F0800BEA2403FCEB1227F9122895
:1023730005EEFAEFFB120B7402346874F4120408CE
:1023830012649779008E828F83E06076890A890BC5
:102393008065E50A75F00BA4FAA8F075F00BE50B60
:1023A3001223097046E50A75F00BA4F8AAF075F03C
:1023B3000BE50B12283D8E828F83E0850882850909
:1023C3008312291F850882850983A31234FEEE2414
:1023D30003FCEF122802123437124F16AA08AB0976
:1023E300120B74790190033412492BE50A2401F589
:1023F3000AE50B3400F50B1226DEE50A9AE50B9B82
:1024030040900236A874F5120408EAFEEBFF740B41
:10241300120B3D12343C750A01EC4D602BEC126437
:10242300B3ED12549C1234F67901120B80E5084582
:1024330009606F850882850983A31264A17902AAC2
:1024430008AB09120B80805AE5084509602B12542A
:10245300A0123B6A123438122848700CEEFAEFFBD4
:10246300120B86E9F50A80CBEE2403FA122780705B
:10247300317903EEFAEFFB80CA8E828F83A3E06487
:10248300FE7003A3E0F4700BEE24030A0A0A12277A
:1024930080700CEEFAEFFB120B86E9F50A800375E8
:1024A3000A00A90A7F0302066774F712040890035F
:1024B30034123478EA4B602FEA75F00BA4FAA8F0D3
:1024C30075F00BEBA428FBEAFEEBFF1215A69003B5
:1024D300361234789003361247706012EEFCEFFD2B
:1024E30079001215108007900336E4F0A3F002344C
:1024F30068900334123EDAC3EE98EF9922C082C08B
:1025030083EC4D6005121CE480097C087D00790092
:1025130012151002343074F61204087900EA4B6085
:1025230018780088081257E3EB125B6C600479019A
:10253300780808E8C3940840EA02350774F71204E0
:102543000874F3120955ECFEEDFF85188285198393
:10255300E4F004120B3DEAF0A3EB124C9C7403125B
:102563000B3DAC82AD83EEFAEFFB120B98EEFAEF64
:10257300FB120B9E02346374F712040874F31209FE
:1025830055ECFEEDFF851882851983E4F0EAFCEB38
:10259300FD7403120B3D1229187401120B3D123402
:1025A300F28E828F831234FE74FE68700374FF69A7
:1025B300600479018002790002346374F71204081D
:1025C300EAFEEBFF12261C70141226278E828F83DD
:1025D300E0F4F88A828B83E058F0120B74A90802A6
:1025E300346874F7120408EAFEEBFF7508008E8264
:1025F3008F83E0602212261C701D1226278A828B8D
:1026030083E08F838E82F8E058700CE0F88A828B27
:1026130083E048F0120B7480C4120B7AE9F5087456
:10262300016508221264AC12282F122771FAA3E065
:1026330039FB2274F41204088A088B097C007D009C
:102643001226D612280512279612649E7900850851
:1026530082850983A3E064FE7003A3E0F460717EC6
:10266300007F008062EEFAEF1222FC6057EEFAEF71
:10267300FBEA75F00BA4FAA8F075F00BEBA428FBAA
:10268300900336E02AF50AA3E03BF50B8508828523
:102693000983A3124BEA850A82850B83A3E06A7040
:1026A30003A3E06B701EE50A2403FAE50B122781EE
:1026B300700AE50A2403FCE50B12280212278A7923
:1026C300011254B21230751226DEEE9AEF9B40953A
:1026D3000236A8EA24030A0A0AEB229003341250B2
:1026E30089C32274F31204088A088B098A828B83B4
:1026F300A31264A112278512649E750C001226D6BC
:1027030012278170547E007F008049122763FAA349
:10271300E0398A82F583E0540F6036122763F50AA5
:10272300A3E039F50BE50A2403FCE50B12280C346E
:1027330000FB121CDEE964017017850A82850B8396
:10274300A312514AA31234FE12278A750C011254A4
:10275300B21230751224F440B2A90C7F0502066749
:10276300EEF8EFF9E875F00BA4F812277122AAF03E
:1027730075F00BE9A42AF9900336E02822EF12281A
:1027830058221264B2EB221227961254ADEEF0A334
:10279300EFF022E5081264B3E5092274F512040888
:1027A300EAFEEBFF8E828F83A31264A17C007D007F
:1027B300EE24030A0A0AEF122805EEFAEFFB120BC6
:1027C3007AE9F50A7401650A70291264AC12282BA0
:1027D300AAF075F00BE912283D850882F5831228CB
:1027E30017122848700DE5082403FCE5091227F9A0
:1027F3001228050224A53400FDEE2403FAEF221269
:10280300280C3400FB120B98223400FDE508240346
:10281300FAE50922A312281C2212282022E0F8A399
:10282300E0F98E828F83A32212282F223400F583AE
:10283300123EDEE875F00BA4F822122777F508A301
:10284300E039F50922E8F0A3E9F0E5082403FAE505
:10285300091228582212285E6401223400FB120B4D
:102863009EE92274F312040874E612095512649760
:10287300750C01750800750900750A00750B008554
:102883001882851983E4F0EE2403FCEF3400FD7411
:1028930003120B3D122918E964017023740B120B08
:1028A3003D1234F67401120B3D124BEE7003A3E09C
:1028B3006960518518828519838582088583097427
:1028C3000D120B3DE412291F740E120B3D1234FE40
:1028D300740D120B3DAA82AB83120BBCE964017029
:1028E3000B740D120B3D85820A85830B780A12083F
:1028F300C4AC08AD09EEFAEFFB120B8C740212089C
:10290300D7E9F50CEEFAEFFB120BB6A90C741A1209
:1029130008D702275E122BEB120BC222123473125A
:102923003EDA22C082C083780079008003122A161F
:102933001226DEE89AE99B5029E8FAE9FBEA75F0EA
:102943000BA4FAACF075F00BEBA42CFB900336E070
:102953002AFCA3E03B8C82F583E0540F70CF79000F
:1029630080027901023430C082C083902294123FE6
:1029730030EC75F012A4FCA8F075F012EDA428FD5C
:1029830079FF7A137B0812151002343074F712049E
:1029930008E9FEEAFF7A007B00780079008028E8E6
:1029A300FCE9FDEC75F012A4FC85F00875F012ED5E
:1029B300A42508122E2BC39E400AE0FCEFC39C40C3
:1029C30003122F4A122A16122E1F40D3023468C054
:1029D30082C083780079008003122A16122A0A50D3
:1029E3001F122E2FF470F2E875F012A4F8AAF075F6
:1029F300F012E9A42AF9741328FA740839FB800445
:102A03007A007B00023430902294122EE0C3E89ABD
:102A1300E99B22E8240108E93400F92274F0120446
:102A23000874F31209558A0A8B0B8C0C8D0D8908D7
:102A3300EC450D6016AA0CAB0D120C108A0E8B0F11
:102A4300AE0EAF0FEE4F6003022ADD120BE68A0EC5
:102A53008B0FA80EA90FE8FEE9FFE849607C9022DE
:102A6300A2122B3F60227403650860067404650894
:102A730070167A047903120BE09022A2122B5640AF
:102A8300077A007B00022B3C9022A0122B3F601B95
:102A930074016508600674026508700F7A02790193
:102AA300120BE09022A0122B5650D685188285195E
:102AB300837401F0120B3D124F16AC0CAD0D740371
:102AC300120B3D122BE4740B120B3D1234441238DB
:102AD300DEE4124EFE1210B48004EE4F604A78001A
:102AE30074FF2508C39404500278048E828F8312E6
:102AF3004F168E828F83A3A3A3A3E508F0E88E82EB
:102B03008F83A3A3A3A3A3124F1E1202B7122EF700
:102B13008E828F83A3A3A3A3A3A3A3F0122EEE12EB
:102B23000B1A125496120B26122B444005900D6F6C
:102B3300E4F0120F8EEEFAEFFB023EE41250384936
:102B4300227A047900120BE0902294125B52EA98E5
:102B5300EB9922122B6F758322758294E493C398A9
:102B6300F8A3E49399F9C3EA98EB9922E493F874F0
:102B73000193F92274F212040874F31209558A08B6
:102B83008B09ECFEEDFF750A00EEFAEFFB120C1059
:102B93008A0C8B0DA80CA90DE849603E88828983B5
:102BA300E065087004A3E06509602F88828983A328
:102BB300A3A3A3E0C394055021125344851882852F
:102BC30019837401F0120B3D125348EEFCEFFD74B0
:102BD30003120B3D122BE4750A01A90A740D024975
:102BE300E2122BEB120BCE22AA82AB83120B988537
:102BF3001882851983AA82AB832274F61204081201
:102C03002C39600FA3A3A3A3E014C3940450047945
:102C1300018002790002350774F6120408122C3978
:102C2300600FA3A3A3A3E014C3940250047901800B
:102C3300027900023507120C0A8A828B83E58245EA
:102C4300832274F6120408122C39600BA3A3A3A3E6
:102C5300E07004790180027900023507C082C083E5
:102C6300EAFCEBFD7A007B0002342DC082C0837C3A
:102C7300007D0002342D74F412040874F312095514
:102C8300EAFEEBFF8C0A8D0BC3EC94F8ED94FF4046
:102C930007EE4F7003022D32750800750900802E70
:102CA3008518828519837401F012309D120B3D1231
:102CB30030AB60137403120B3DAC82AD83EEFAEFBD
:102CC300FB121CDEE97049E5082401122ECB902289
:102CD30094E4125040E50898E509995052E50875C7
:102CE300F012A4F8AAF075F012E509A42AF9125B10
:102CF3008560D4EE4F70A974FF650A700474FF6594
:102D03000B60C412308D650A7004A3E0650B70B7C5
:102D1300E50875F012A4F508A8F075F012E509A40A
:102D230028F50974132508FA74083509FB80047A19
:102D3300007B000236A374F412040874F3120955DD
:102D4300750800120C108A0A8B0BAE0AAF0BEE4FFC
:102D5300602A851882851983740112346DF8A3E003
:102D6300F9740B120B3D123581120BB07C127D00EE
:102D730079FFEEFAEFFB121510750801122B445080
:102D830009900D6F7401F0120F8EA9080236A37417
:102D9300F7120408E9FE74FE6A700374FF6B78008F
:102DA300790070058052122A16122E1F504AE8FC31
:102DB300E9FDEC75F012A4FCAFF075F012EDA42F51
:102DC300122E2BF460E0E8FCE9FDEC75F012A4FC94
:102DD30075F012EDA42FFD74132CF58274083DF5E4
:102DE30083E06A7003A3E06B70BC8009122E2F147A
:102DF300C394044017122A16122A0A5018EE70ECD4
:102E0300122E2F64016005E0640370E912307EFA2C
:102E1300A3E0FB80047AFE7BFF02346890229412C5
:102E23003F34C3E89CE99D22122F7F22E8FAE9FB95
:102E3300EA75F012A4FAACF075F012EBA42CFB7453
:102E4300172AF58274083BF583E022120C22023420
:102E530030C082C083790180F274F01204088A0AB8
:102E63008B0B7A047901120BE08A0C8B0DEA450D6A
:102E7300603EEAC333FAEB33FB1215A68A088B09CB
:102E8300AE08AF09EE4F60237AFE7BFF120C287465
:102E9300FE6A700374FF6B601B85088285098312C9
:102EA3003478E5082402122ECB80E1750C008004EF
:102EB3007E007F00850A82850B83E50CF0EEFAEF36
:102EC300FB023EE9E5082407F508E5093400F509A6
:102ED30022902294123F34C3EA9CEB9D22E493FA9E
:102EE300740193FB221215047403221254A7E4F015
:102EF30090808522E88E828F83A3A3A3A3A3A3A399
:102F0300A3122F197401122F19A3F0EE24101254D7
:102F1300AAE4F0A3F0221238EAA3A3A322C082C03A
:102F2300837A007B00800419122F4A122ED450108A
:102F3300122F69C3940550F0E970EC122F538004EB
:102F43007A007B00023430EA24010AEB3400FB22CE
:102F5300EA75F012A4FA75F012EBA428FB74132A95
:102F6300FA74083BFB22EAFCEBFDEC75F012A4FCBF
:102F7300A8F075F012EDA428122F7F22FD74172CF0
:102F8300F58274083DF583E02274F712040874F3A4
:102F93001209557E007F00023031E50875F017A451
:102FA300F8A9F0125DE6FAA3E0FBEEF8EFF9E87595
:102FB300F012A4F8ACF075F012E9A42C12308C6A6C
:102FC3007003A3E06B603FE50875F017A4F8AAF05F
:102FD300EA125DE5F8A3E0F97401120B3DE06870B5
:102FE30003A3E0696020E50875F017A4F8EAF97413
:102FF3008F28FC740939FD7403120B3DAA82AB833D
:10300300121CDEE96014E50875F017A4F8A9F07442
:103013008D28FA740939FB1210C005089022A6E422
:1030230093F8E508C3985003022F9D123075902240
:103033009412612C5039EEF8EFF912307EF47003DC
:10304300A3E0F460E68518828519837401F0EEF835
:10305300EFF9E875F012A4F875F012E9A42AF91251
:10306300309D120B3D1230AB60C175080080AD027C
:103073003463EE24010EEF3400FF22E875F012A44E
:10308300F8AAF075F012E9A42AF912309122741308
:1030930028F582740839F583E022741528F58274C3
:1030A3000839123ED8740B22E8F0A3E912358912CD
:1030B3000BC8E922C082C08390033D7480F0A374DF
:1030C3000EF090033F747AF0A3740EF090034374F0
:1030D3009AF0A3740CF002343074F7120408EAFE79
:1030E300EBFF900377E06408601BE0640460168ED6
:1030F300828F83E05403640170481234371239DF3E
:10310300E06406703D8E828F83A3A3E064FE7003A8
:10311300A3E0F4602D8E828F83A3A31234F2900375
:1031230068E0687003A3E069700BEE2415F582EF85
:10313300125B6C6008120F2EE9F5088008120F3439
:1031430080F67508C2EEFAEFFB1215AC0225E074A7
:10315300F41204088A088B098A828B83E0F8A3E0BF
:10316300FAE82AFAE43400FB1215A68A0A8B0BAE9E
:103173000AAF0BEE4F6063850882850983E0FC7D0F
:103183000079001215108E828F83A3A31264A112FB
:103193000F708E828F83A3A3A3A312347885088232
:1031A300850983E0F8EE28F8EF34001234FA850835
:1031B30082850983A3E0C0E0EE240D125499D0E088
:1031C300F0120F82EE240E125499E9124B4BE0C019
:1031D300E0EE2411125499D0E0F0EEFAEFFB023640
:1031E300A874F612040874EB120955EAFEEBFF12F9
:1031F300476D60030232887A077B001215A690039D
:103203003912347812476D60788E828F83120B1ACD
:1032130090033A1239E2120B26126365C0E01232B0
:1032230094D0E0F0EE2405FAEF3400FB8A088B0912
:103233008A82F583E0C0E012328FD0E012369FE03D
:10324300C0E012328FA3D0E01234E4120B1A8518B7
:1032530082851983120B2688828983E0C0E0740576
:10326300120B3DD0E0F0850882850983E0C0E0744D
:1032730004120B3DD0E0F07407120B3D1233CA80E9
:10328300067910800279017415023504123294A371
:1032930022900339E0FAA3E0F5838A82A3A3A3A3D0
:1032A30022C082C08312476D600D9003391250779C
:1032B300900339E4F0A3F0120E9E12106002343032
:1032C30074F012040874EB120955ECFEEDFF890843
:1032D3007425120B3D780C120AE07429120B3DE0A1
:1032E300F9742A120B3DE0FC742B120B3DE0FD74C4
:1032F3000F697005740F6C6012900DB5E064027075
:103303000579C10233C5E9C39C40F6900378780C74
:10331300120AFEE50890037EF0E990037CF0ECA32B
:10332300F0ED90037FF074FF6A700374FF6B701D00
:10333300900DC0E0F47003A3E0F4700512151C8037
:103343000C900DC012344DE8F0A3E980079003758B
:10335300EAF0A3EBF0EE4F6017EEFAEFFB12112049
:10336300E96401700BEEFCEFFD7A897B03121CE428
:10337300900368E4F0A3F090036BF0A3F09003884C
:10338300F0900DB5E06402700890037C740FF0A315
:10339300F09003777405F014120B3DE4F09003787A
:1033A300120B1A851882851983120B2690037EE06F
:1033B300C0E07405120B3DD0E0F07407120B3D1210
:1033C30033CA7415023EE6E4123589121D0E22C07B
:1033D30082C083900338E07003121840120C6A8095
:1033E3004CC082C083900338E0900D6E7004E4F00B
:1033F300802D7401F0900338E0F460237C41E0C336
:1034030094415002E0FCECF8E0C398F0EC75F0E86E
:10341300A4CCA8F075F003A428FD7A80123F3C7A6F
:103423006E7B0D7941121CFC8003120C16D083D0E5
:1034330082020889EE1254A822E0F508A3E0F509F8
:103443002212344822122820A322123EDA90037556
:103453002274F7120408EB90037FF0120E8C8005A0
:10346300740D1208D77F01020667123473A3E0229A
:103473001234E4A322EAF0A3EBF02274F712040857
:1034830074F8120955EAFEEBFF7900900377E064C4
:1034930008704485188285198374FDF0A374FFF0C6
:1034A300120F6A7402120B3D1234787405120B3D2D
:1034B300E4123473E0C0E07404120B3DD0E0123424
:1034C300DFC0E07406120B3DD0E0F07407120B3D31
:1034D300E4123585120FAC74080234651234E4E04B
:1034E30022F08E828F8322F085188285198322121F
:1034F3003EDA22E0F8A3E0F91254A7E8F0A3E9F0DA
:10350300221208D77F02020667C082C08390034954
:10351300742AF0A3740DF09003EF7406F0A37410F3
:10352300F090034D7460F0A3740DF090034F742A70
:10353300F0A3740DF09003517466F0A3740DF002C0
:10354300343074F412040874F91209558A088B098B
:103553008C0A8D0B8518828519837808120AFE74EC
:1035630004120B3DE9F07405120B3DE4F0740612EE
:103573000B3DE4123585120C5274070236A5E8F0B0
:10358300A3E9123589221234EAAA82AB832274F4A6
:103593001204088A088B098A828B831254B5EE4F72
:1035A300700302369D90031212477060158A828B56
:1035B30083A3A3E0F9EEFAEFFB9003131239E212AF
:1035C3001EB18E828F83A3A3A3A3A3A3A3A3A3E06C
:1035D300640270748E828F83A3A3A3A3A3A3E05476
:1035E30002700302366F850882850983A3A3E06412
:1035F300E960798E828F83A3A3A3A3A3A3A3A3A329
:10360300A3E07014900DB8E0048E828F83A3A3A36C
:10361300A3A3A3A3A3A3A3F08E828F83A3A3A3A394
:10362300A3A3A3A3A3A3E01412369FA3A3A3740489
:10363300F0900DB9124EF0E8F0A3E9125FC98B0BBD
:10364300EA450B70031259A78E828F83A3A3A3A30A
:10365300A3A3A3A3A3E0640260128E828F83A3A318
:10366300A3A3A3A3A3A3A3E06406702E8E828F83D8
:10367300A3A3A3A3A3A3E0A2E0501F850882850907
:1036830083A3A3E0F9EEFAEFFB121D928E828F83E0
:10369300A3A3A3A3A3A3E054FEF080091238E62258
:1036A300740D1208D77F0402066774EC12040874C1
:1036B300DD120955EAFEEBFF8C088D097437120BF6
:1036C3003D780C120AE0750A007405120B3DAC82BA
:1036D300AD83120B507412120B3DE0700874151277
:1036E3000B3DE060207405120B3DE0A2E6501E8EF8
:1036F300828F83A3A3A3A3A3A3A3A3A3124BEA121F
:103703000FE2E960087903121CCC0238CC7405126D
:103713000B3DE0540C64047005750B018003750BBD
:1037230000E0A2E55035750A01E50BA2E0402C123A
:103733000F708A108B11A810A911123437E068702A
:1037430003A3E06960157405120B3D1264A8124BC4
:10375300E6121D9EE96004790480AC7405120B3DEA
:10376300E0A2E650227406120B3DE0540370187475
:1037730005120B3DE0540C640C600CE0540C64081F
:10378300600575100180037510007405120B3DE090
:103793005403F8740268700C1264A8124BE6120BFF
:1037A300620238CC740168703AE510A2E05003124B
:1037B30038D47405120B3DA882A9837403120B3D00
:1037C300E8F0A3E9123ECE8518828519831238DE0C
:1037D300E0C0E07402120B3DD0E0123585121E8268
:1037E3000238CCE860030238CC90035FE0640170D8
:1037F300108E828F83A3A3A3A3A3A3E07003023736
:103803005A7422120B3D7402123ECE741A120B3DEF
:103813001234FEE510A2E050087405120B3D123875
:10382300D4E50BA2E0506AEE240FF582EF125B6C35
:10383300C0E07417120B3DD0E0F0900314124770F0
:1038430070030238CC120F708A128B13A812A913BB
:10385300741A120B3DE0687003A3E069706B780C77
:103863001208BC780A1208C878081208C4A9107490
:103873000C120B3DAC82AD837421120B3DAA82ABBB
:10388300839003141239DF121EB174071208D78014
:1038930038780C1208BC780A1208C878081208C4D1
:1038A300900375120734EE2412F582EF12589A74BE
:1038B30023120B3DAC82AD83740E120B3DAA82AB77
:1038C30083121D8674091208D774231208D7025F66
:1038D300941264A8125085120B5622E8F0A3E91241
:1038E30038E6221238EA22F08E828F83A3A3A3A3A1
:1038F300A3A32274F712040812172C02346874F776
:1039030012040812173202346874F71204081217EB
:103913003E023468C082C08312173802343074F711
:1039230012040812174402346874F7120408740965
:10393300120B3DE0F50878081208C81217507401FD
:10394300023465C082C08312175C023430C082C067
:103953008312176202343074F712040812176802D4
:10396300346874F7120408EAFEEBFF8908740165F2
:103973000870147900120DA29022B1E493FC79002F
:10398300EEFAEFFB120D1802346874F41204087493
:10399300F9120955E9FE8A088B098C0A8D0B7413F9
:1039A300120B3D124BEA90058C1247706027EE858F
:1039B3001882851983F07401120B3D7808120AFEF0
:1039C300EAF8EBF97405120B3D12358190058C1260
:1039D30039DF121EB102357CFB90034BE0F8A3E004
:1039E300F583888222C082C0831217980234307410
:1039F300F7120408900D71E0F97E00800B125B58FA
:103A0300540D64017001190E123BEC5003E970ED83
:103A130002346874F7120408900D72E0F97E008096
:103A23000B125B58548D64817001190E123BEC50DC
:103A330003E970ED02346874F2120408890BE97526
:103A4300F006A4240CF508E5F0122ECF8A0CE50845
:103A5300250CFAE5093400FB1215A68A0C8B0DAE72
:103A63000CAF0DEE4F6027AC08AD097900121510AD
:103A7300123437E50BF0EE2508F8EF3509F98E829D
:103A83008F83A3A3A3A3A3A3A3A3A31234FEEEFA3A
:103A9300EFFB0249E574F6120408EAFEEBFF120C91
:103AA300F4900D70E0F8E9C3984009900345124B78
:103AB300EA120CFAEE2402F8EF1251FA90034712BD
:103AC30050B4900347E004F0EEFAEFFB120D0085CB
:103AD3000882850983E00256B0C082C083790090D2
:103AE3000345800109124BEA8A828B83E582458371
:103AF30070F202343074F7120408EAFEEBFFEE4F63
:103B03006056900345124770604E888289837A001D
:103B13007B00EE65827003EF6583600FAA82AB833F
:103B2300123B5EE5824583602F80E7900345123B9D
:103B33006A687002EF698E828F8370081234F29084
:103B430003458003125FA61234FEEEFAEFFB121E4A
:103B530052EEFAEFFB1215AC023468123B622212EA
:103B63003EDE8882898322123EDAEE22C082C0833F
:103B7300900345800488828983124770600B888292
:103B83008983124222EC4D70EC8A828B83E4F0A38A
:103B9300F0E84960068882898380039003451234E4
:103BA3007802343074F712040890034580048A8243
:103BB3008B83123BE74B60257E0080010E123BECAA
:103BC30050ECEE75F006A4FCADF0EA2CFCEB3DFDE9
:103BD300EC2410F582ED123C3C70E180047A007B0A
:103BE30000023468125089EA22123C45EEC398223F
:103BF30074F71204087D0080010D123C41EDC39857
:103C03005034ED75F006A4FEA8F0E8FFEA2EFEEBB3
:103C13003FFFEE2410F582EF123C3C70DCED75F0B3
:103C230006A4FEE8FFEA2EFAEB3FFBEA2411F58235
:103C3300EB125B6C4CF0023468125B786922123C25
:103C430045221264B2EB3400F583E0F82274F612D5
:103C53000408120E1A7A007B008025EAF8EBF9E8D3
:103C630075F006A4F8ACF075F006E9A42C12505ECA
:103C7300126373A3E4125154F0A31263791264F034
:103C830090229C122B4E40D37A007B00801C8A0822
:103C93008B0974037808120A20124B12A374FEF0E6
:103CA300A304124F34A3E41264F09022A5123CEF54
:103CB30040DC7A007B00801D8A088B097403780836
:103CC300120A2074B51257E4740C12602B74FEF0C0
:103CD300A3041264F09022AB123CEF40DB9022AFBE
:103CE300E493900353F0123CF9023507E493F8C3CD
:103CF300EA98EB9400227CE87D037A107B00900322
:103D0300C2E0F91216602274F012040874F5120965
:103D1300558A088B09890A8C0BE9A2E050147508AF
:103D2300FC7509FFA2E15005D2E4023DCCD2E302C7
:103D33003DCC1249D17003A3E06970057900023EBE
:103D430099AC0A7902AA08AB09120DF6E960EDE510
:103D53000AF50C780C1208C879027CFE7DFFAA08CC
:103D6300AB0912474C1208D7E96003023E97E50AF4
:103D7300C2E5F50A9003B5E07051E50AA2E6404BAF
:103D83007403120B3DAC82AD83AA08AB09120BA4DA
:103D9300E9703212406D8A0C8B0DA80CA90DE8FE58
:103DA300E9FFE8496025EE24020A0AEF12285E6063
:103DB3001AEE2402FCEF3400FD7403120B3DAA82B9
:103DC300AB83121CE4E50AD2E5F50A900348E0F55B
:103DD3000C900368E0F50EA3E0F50F780E1208C40B
:103DE3007D017C00900348E0F9AA0EAB0F120DAEE3
:103DF30074021208D7E9F8900348E004F0E860037E
:103E0300023E97E50AA2E55004740E80027406C0D0
:103E1300E07401120B3DD0E01254C68A0E8B0FAE34
:103E23000EAF0FEE4F6069123EB7123ECE88828905
:103E3300837401F07478550AA31264B8E50C126414
:103E4300B8A3E508F0E509123EA6E4F0E50AA2E509
:103E5300500F7403120B3DAC82AD83E82406123E6F
:103E63009D8E828F83A3A374FDF0A374FFF0E50BF3
:103E730060159022B2E493F8E50BC3985009EE2441
:103E830013125499E50BF0EEFAEFFB120C46800681
:103E93007910800279C7740B8049FAE93400FB1268
:103EA3001CE42288828983A3A3A3A3123EB2221215
:103EB300522DA322EE24171254AA7401F0120F6A92
:103EC300EE241A1254AAEAF0A3EB22F01264AC34E3
:103ED30000123ED822F583123EDE22E0F8A3E0F979
:103EE30022740D1208D77F0802066774F6120408BD
:103EF3007A007B101259B460089003D47401F080E7
:103F03002990062DE06401900DB67006E0FC79015E
:103F13008004E0FC79037A007B00120D1890229A4A
:103F2300123F307A007B10123F3E023507123F34B6
:103F330022E493FC740193FD227B009003C2E0F919
:103F430012165A2274EC1204088A088B098C0C8D01
:103F53000D890E7414120B3D12492B7416120B3D6E
:103F6300E0F510A3E0F511120FE2E960077AFF7B99
:103F7300FF02406A900DB5E06402600302405D7980
:103F830000AA08AB09120DFCA90E120DF08A128BC0
:103F930013AE12AF13EE4F70030240458E828F8330
:103FA300A3A3A3A3A3E064018E828F83A3A3706959
:103FB300124BEA8E828F83A3A3A3A3A3A3E0541877
:103FC30060439022B0E4938E828F83A3A3A3A3F0D4
:103FD300EA650C7003EB650D6014EA650A7003EB88
:103FE300650B600AEA65107003EB6511701F7810AA
:103FF3001208C4AC0AAD0BAA0CAB0D1210DE74028E
:104003001208D7800890036712599EA3F074FE6AC2
:10401300700374FF6B601D804EA3A3A3E064036071
:10402300298E828F83A3A3A3A3A3E0640470057ADC
:10403300FE023F728E828F83A3A3A3A3A3E0640235
:1040430070089003B4E06402701012406D8B0BEAA9
:10405300450B6006AA08AB09800DAA08AB099003BB
:10406300491239DF121EB1025F9490037512475251
:104073001210A22274F7120408EAFEEBFF120BF8E7
:10408300E9700AEEFAEFFB120C04E96006EEFAEFB0
:10409300FB80047AFE7BFF02346874F01204088A02
:1040A3000A8B0B8C0E8D0F8909750800120FE2E93C
:1040B30079006003024214AA0AAB0B120DFCA90992
:1040C300120DF08A0C8B0DAE0CAF0DEE4F60198EF6
:1040D300828F83A3A3A3A3A3E0640270559003B4C8
:1040E300E064027003024212AA0AAB0B90034F1260
:1040F30039DF121EB1120C0A8A0C8B0DA80CA90D04
:10410300E849700302421288828983A3A3A3A3A36D
:10411300E0A2E04003024212750C01A2E15068796B
:1041230001AC0AAD0BAA0EAB0F120D48E970640285
:1041330042128E828F83A3A3A3A3A3E0640370051B
:10414300750C0280528E828F83A3A3A3A3A3E06482
:104153000160030242129003751242228E828F8302
:104163001245778A0C8B0DA80CA90DE84960D190F4
:1041730022A9E493FA88828983E0C39A50C2A3E018
:10418300600302421280B988828983A3A3A3A3A3F5
:10419300D2E1F0EE4F603A8E828F83A3A3A3A3A351
:1041A300A3E05418602B7508018E828F83A3A3129A
:1041B3000734750CFE750DFF780C1208C47900AC3A
:1041C3000AAD0BAA0EAB0F120E0E74041208D780A1
:1041D3003E900368E0650E7004A3E0650F701490D1
:1041E30022B1E493FCA909AA0AAB0B120D187508B6
:1041F30001801CA90CAC0AAD0BAA0EAB0F120D4823
:10420300E9700C750801A909AA0AAB0B120DA2A942
:1042130008023EE9E50C2415F582E50D1254AD12B2
:104223004F0A2274EA12040874F01209558A0C8B9F
:104233000D8C088D097426120B3DE0F514A3E0F5EF
:10424300157512069003F5124770602390037512DB
:104253004222AA08AB091210CC8A108B11EA45112D
:10426300600D8A828B83A3E07005790002455FE5C8
:104273000C241DF50EE50D3400F50F850E82124753
:104283005CF51388828983A3A3A3E0FA88828983D8
:10429300A3A3A3A3E0F9EA2400FEE439FFAA08AB31
:1042A30009120DA8850E82850F8312459AE029F520
:1042B3000BE50AA2E5500375120E7487550A7017B1
:1042C3007418550A6418600FE50C2417F582E50D80
:1042D300125B6C651260077901121CCC808C530A47
:1042E30078C3EE94F8EF94FF501D7900EEFAEFFBDC
:1042F300124569601288828983A3A3A3A3A3A3E0C1
:104303005418600302426D78081208C47D001245F8
:104313008D1208D7E9F8740368700302426DE860F0
:10432300030243D87418550A700302448DE50AD278
:10433300E0F50AA2E45004D2E1F50AA90A124BE31C
:10434300124569605388828983A3A3A3A3A3A3E02F
:104353005418604488828983A3A3A3A3A3E06401C0
:104363007036E51045116030900375124222888241
:1043730089831245778A0E8B0FA80EA90FE849602F
:104383001788828983A3E0600F851082851183A338
:104393001256BB500302426DE50AF50E780E120861
:1043A300C81245801208D7E9702B7C007D00851464
:1043B3008285158374FFF0A3F0850C82850D83A39A
:1043C300A3A3A3A3A3A3A3E06003124217A90B1201
:1043D3004BE3121756851482851583E0F47003A30B
:1043E300E0F460399003B4E06402700302426D129A
:1043F300491CE0FAA3E01239DB121EB1EA6508702A
:1044030003EB6509600302426DEEFAEF1239DB122A
:104413001EB1851482851583EAF0A3EBF0780812A8
:1044230008C47D0112458D1208D7A90AEEFAEFFBE5
:10443300120DFC8A088B09A808A909900368E06893
:104443007003A3E0696003024550EEFAEFFB120C20
:104453000A8A088B09A808A909E849606E88828935
:1044630083A3A3A3A3E06401600D88828983A3A32C
:10447300A3A3E064027054851882851983AC82ADCE
:1044830083EEFAEFFB120BA48055900361E0600FFB
:10449300E50AF50E780E1208C81245801208D7E512
:1044A3000AF50E780E1208C879027CFE7DFFEEFA3B
:1044B300EFFB12474C1208D7E960030243D8851477
:1044C3008285158374FFF0A302441F120F6AEAFC6E
:1044D300EBFD851882851983AA82AB83121CE485C0
:1044E3000C82850D83A3A3A3A3A3A3A3A3E06401C9
:1044F300700F1242177408120B3DAA82AB83121C71
:10450300E41247261253324430F50878081208C8DB
:104513007401120B3D85820885830978081208C44B
:10452300740B120B3D85820885830978081208C431
:10453300E513F50878081208C87900EEFCEFFD12C0
:104543004BE3120D4274061208D702426D1247263E
:1045530012549C12459AE50BF0120F827410120844
:10456300D77F0E020667120DF08A0E8B0FA80EA9D5
:104573000FE84922A3A31250891210CC227901AC6F
:1045830008AD0912507E12474C22AC0BA9131250EE
:104593007E120DAE74022212533AA3A3A3A3227474
:1045A300F012040874F01209558A0C8B0DECFAED25
:1045B300FB750F089003F512477060141256B48A06
:1045C300828B83E58245836007A3E0700302472162
:1045D300124726340012475CF50B88828983124701
:1045E3002FE0FBEC2400FEE43BFF88828983A3A336
:1045F30012472FA3A3E0FBECF508E43BF5098882FF
:104603008983A3A3A3A3A3A3A3E0F50EE50AA2E4CE
:104613005003750F10A2E550067408250FF50F74AB
:104623008F550A700FE50C2417F582E50D125B6CAC
:10463300650F60087901121CCC024721530A707878
:1046430000E50AA2E45022124726125B6C2408FC00
:10465300A3E03400FD7408120B3DAA82AB83121C45
:10466300E47808E50AC2E4F50AE50AA2E55028124F
:104673004726125B6C28F8A3E03400F9E82408FC11
:10468300E93400FD851882851983AA82AB83121C45
:10469300E4E50AC2E5F50AAC0EA90BEEFAEFFB124C
:1046A3000DB4E9F87403686075900368E06E7003F5
:1046B300A3E06F605EE87054E50AF50F780F120807
:1046C300C812473D1208D7E97054780A1208C87413
:1046D30001120B3D85820C85830D780C1208C4747E
:1046E3000B120B3D85820C85830D780C1208C4E5F3
:1046F3000BF50A780A1208C8A90EAC08AD09EEFA40
:10470300EFFB120D4274061208D78012740468700E
:104713000D80B7780A1208C812473D1208D77410E3
:10472300023EE6E50C241DF582E50D22A3A3A3E0DA
:10473300FC88828983A3A3A3A322790112492312AC
:1047430054AD12475212474C22120D6C740122E0F1
:10475300FCA3E0FDAA08AB0922F583123B62A3E0A8
:10476300F50A88828983A3A3E0229003391250E5D6
:104773002274E812040874F5120955EAFEEBFF8C63
:10478300088D0989147423120B3DE0F50F7424126C
:104793000B3DE0F512A3E0F5137426120B3DE0F593
:1047A30016A3E0F5177428120B3DE0F50EA90F12BE
:1047B3000DBA8A108B117401120B3D7408F0E50ECB
:1047C300A2E450037410F0E50EA2E55004E02408BF
:1047D300F0851882851983AA82AB83120FCA8A0CCB
:1047E3008B0DEA450D7003024903EA2417F582EBAA
:1047F300124915120F6AE50C241AF582E50D1254BD
:104803009C1234787403120B3DAC82AD83AA10ABB7
:1048130011120BA4E9601D12490D7403120B3DA87C
:1048230082A983E50C2418F582E50D12549CE8F067
:10483300A3E98024E50EA2E4501FE5106E7003E5A2
:10484300116F701512490DE50C2418F582E50D1250
:10485300549CE512F0A3E513F012491C12492B8571
:104863000A82F5837402F0A3E50E124933E50FF0D3
:10487300EE850A82850B83A3A3A3F0EF850A8285C5
:104883000B83A3A3A3A3124933A3A3A3E508F0E5D2
:1048930009850A82850B83A3A3A3A3A3A3F0AA106C
:1048A300AB11120DA8E92514850A82850B83A3A3F6
:1048B300A3A3A3A3A3F0750800E50EA2E45011ACD3
:1048C30012AD13E50A2408FAE50B123E9F7508089A
:1048D300E50EA2E55014AC16AD17E50A2508F8E578
:1048E3000B3400F9E82408123E9D850C82850D8364
:1048F300A3A3E510F0A3E511F0AA0CAB0D120C462F
:10490300740B1208D77F10020667E50C2416F58294
:10491300E50D1254AD7401F0221249231254AD2255
:10492300E50C1264B3E50D22E0F50AA3E0F50B22D2
:10493300F0850A82850B83A3A32274F21204088AEA
:10494300088B09ECFEEDFF890A79001249D1700347
:10495300A3E069700479018073750B01900368E02B
:1049630065087004A3E06509601F750B00780B12DE
:1049730008C8A90AEEFCEFFDAA08AB0912101E74C1
:10498300011208D7E9F50B80417900EEFAEFFB122B
:104993000DF0EA4B602B8A828B83A3A3A3A3A3A36B
:1049A300E05418601C7508FE7509FF78081208C4E6
:1049B3008A828B83A3A31207341262C81208D7809A
:1049C300097901EEFAEFFB120CCAA90B8014120D40
:1049D300FC8A0C8B0DA80CA90D900368E0682212C9
:1049E30008D77F0602066774F41204087508FD757C
:1049F300090A7A10125FD08B0BEA450B7003123C45
:104A0300F9900353E014F0700C9022AFE4939003F9
:104A130053F0120E087E007F00806C8508828509A2
:104A230083A3A3A3A3E06059F46056E5082404F527
:104A330082E5091259987049850882850983A3A3E1
:104A4300A3A3A3E06403701979028508828509830F
:104A5300124222850882850983A3A3124BEA120D11
:104A630048850882850983A3A3A3A3A3E064016007
:104A73001085088285098374FEF0A304124B44E475
:104A8300F0123075122EC790229E12612C408C7E3C
:104A9300007F008039120F108E088F097403780885
:104AA300120A2074752508FC740C3509FD7A547BB1
:104AB3000D120EFEEA4B70DD8E088F097403780821
:104AC300120A20124B12126373E4F0123075902213
:104AD300A5E493F8C3EE98EF9400501B8E088F095A
:104AE30074037808120A20124B1AE82407F582E9A6
:104AF30012599870D680A17E007F00800A124B2540
:104B0300600214F012307512612940F10236A812C6
:104B13004B1A888289832274752508F8740C350929
:104B2300F922EEF8EFF9E875F006A4F8AAF075F0AB
:104B330006E9A42AF9741528F582740C39F583E083
:104B430022124B4BA3A3A322F0850882850983A3DA
:104B5300A32274F712040874E1120955ECFEEDFF69
:104B6300750800EE4F60728A828B83E0241C125911
:104B7300C912477060638A828B83124BEA8518825D
:104B8300851983AC82AD83EA241BF582EB12589A14
:104B9300EA241CF582EB124BE6120F52740B120B34
:104BA3003D124BEE7003A3E069702E7402120B3DAD
:104BB300E064017024741D120B3D1239DFE06401BF
:104BC3007017741D120B3D1239E1A3A3E0F88E8216
:104BD3008F83E0687003750801A908741F023465A8
:104BE3001249233400F5831250892212281CE068ED
:104BF3002274F4120408E97024790090034D1239E9
:104C0300DF121EB18A0A8B0BAE0AAF0B74FE6E70F5
:104C13000374FF6F701A9022ACE4936013790190D0
:104C2300034D1239DF121EB18A0A8B0BAE0AAF0B8A
:104C3300120F8E0231DD74F612040874F312095553
:104C430012151C8A088B09AE08AF09900368E06E41
:104C53007003A3E06F60E9120F76EA6E7002EB6FE8
:104C630060DEEEFAEFFB120FE2E970D4EE4F60D094
:104C7300851882851983E4F004120B3DEEF0A3EF4F
:104C8300124C9CE970BA74FE6E700374FF6F60B0CF
:104C9300EEFAEFFB740D023504123589120BBC22B8
:104CA300C082C083120F8E0234307F0A02066774FB
:104CB300F2120408EAFEEBFF8C0A8D0B8908740ECE
:104CC300120B3DE0F50974FC6E700374FF6F700501
:104CD30079000249E57900120DFC8A0C8B0DAE0CAC
:104CE300AF0D900368E06E7003A3E06F7006E509F3
:104CF300A2E650DCA9091261B6706179007AFE7BE5
:104D0300FF1261B67056741855097003024DE978A5
:104D13000079008003122A1690229E122A0D400366
:104D2300024DE9E8FAE9FBEA75F007A4FAACF0757D
:104D3300F007EBA42CFB74032AF582740B3BF58379
:104D4300E0541870D0E875F007A4F8AAF075F007DE
:104D5300E9A42AF974FD28F8740A39F98882898349
:104D6300A3A3A3A3A3A3E05418600974185509705F
:104D730003024CD388828983EEF0A3EFF074FE65BF
:104D83000A700474FF650B6003124F1088828983D5
:104D9300A3A3A3A3A3A3E509F0A2E0500D888289EE
:104DA30083A3A3A3A3A3A3D2E2F07401650888821B
:104DB3008983A3A3A3A3A370387401124F34E054CF
:104DC3001860289022B0E49388828983A3A3A3A3C5
:104DD300124EFE1210CC8B0DEA450D6003024CD32C
:104DE3007800790080397902024CD5900367E0801E
:104DF300D7E064017003024CD388828983A3A3A301
:104E0300A3A3A3E0541860079022B0E49380049016
:104E13000366E0123EA6E508F0024CD3122A169070
:104E230022A6E493FAC3E89AE994004003024CD320
:104E33007A007B00804BEAFCEBFDEC75F007A4FCE9
:104E4300AEF075F007EDA42EFD74FF2CF582740A05
:104E53003DF5831254B5E8FCE9FDEC75F017A4FCAD
:104E630085F00975F017EDA42509FD748D2CF582E5
:104E730074093DF583E06E7003A3E06F609E122F0B
:104E83004A90229E122ED740AD123F30EC6A700238
:104E9300ED6B7088E875F017A4F8AAF075F017E9C0
:104EA300A42AF9748D28FE740939FF7C177D0079D3
:104EB30000EEFAEFFB1215108E828F83124F1690BD
:104EC3000375124EF0A3A3A3A3A3A3E8F0A3E912CF
:104ED3004EF67401F0EE240E1254997401124F1E13
:104EE3001202B7EE240D125499E8024E1B123448F5
:104EF300A3A322F0EE240F1254AA22F0124F07AA02
:104F03000AAB0B22900375E0FCA3E0FD22888289A3
:104F130083A3A3E50AF0A3E50BF022F0124F2322AB
:104F23009022A9E4932401F8E43400F97A027B0087
:104F330022123EB2A32274ED1204088A088B098957
:104F43000E1250674005790502503512179EAA08C4
:104F5300AB0912513990229C125038650A7003E94B
:104F6300650B70077AFE7BFF12513990229CE41285
:104F73005040E50A98E50B99400302503312504420
:104F83006012E50A75F006A4F875F006E50B1250F9
:104F93008F1215ACE50E6018E50A75F006A4F8AAA1
:104FA300F075F006E50B1250BB701A79010250350B
:104FB300E50A75F006A4F8AAF075F006E50B1250A1
:104FC3009CE4F0A3F0E50A75F006A4F8AAF075F0E6
:104FD30006E50B12505CA312534888828983A3AA67
:104FE30082AB831250AA8A828B83E0603F125044C3
:104FF300603A8E108F1175120078101208C0E50EFA
:10500300C333FCE433FDE50A75F006A4F50AA8F002
:1050130075F006E50BA428F50B7419250AF58274BF
:105023000C350B124BE8122EE81208D779008002D8
:1050330079070261CC122B6FE822902294125B5302
:1050430022E50A75F006A4F8AAF075F006E50B123E
:105053005097F8A3E0F9E84922A42A1251F0888274
:105063008983A322ECFEEDFF9022A7E493F8E9C322
:105073009822F5831250891215AC22E50C1264B301
:10508300E50D3400F583E0FAA3E0FB22125097FA12
:10509300A3E0FB2212509CE022A42AF9741928F5FC
:1050A30082740C39F58322E50EF0900DB71250B4DB
:1050B30022E088828983F022125214F50CE934002D
:1050C300F50DE50EC333FAE433FB1215A6850C8206
:1050D300850D83EAF0A3EBF0850C82850D831250D6
:1050E300E522123EDEE8492274F4120408ECFEEDD8
:1050F300FF740C120B3D1234F288088909125139DE
:10510300AC0AAD0BECF8EDF990229C125141502101
:10511300E875F006A4F8AAF075F006E912505CE011
:105123008E828F8312515412514A1234FE790080B9
:105133000279040236A8120D7E8A0A8B0B22122EE4
:10514300E0C3EC9AED9B22123EDA8508828509833F
:10515300221252292274F61204087E007F0080284E
:10516300EEF8EFF9E875F006A4F8ACF075F006E98F
:10517300A42CF9741728F582740C125DD76A700396
:10518300A3E06B605712307512612940D31261247A
:105193007002E96F704674FE6A700374FF6B703CB3
:1051A3007E007F008003123075126129502E124B4E
:1051B3002570F3EEF8EFF9E875F006A4F81251E65E
:1051C30012521B6017125202F8E91251FA88821226
:1051D3005075850882850983E4F0A3F0EEFAEFFBAE
:1051E30002350775F006E91251EE22A42AF9741567
:1051F30028F8740C39F9223400F98808890922EE59
:10520300F8EFF9E875F006A4F875F006E912521400
:10521300221251EEE8240422A3A374FE1252261292
:1052230050E522F0A30412522D22F088828983A331
:10523300A3A3A32274F6120408EA241DF582EB1239
:105243005332F9604BEA241DF582EB125B6C2402A6
:10525300FCA3E03400FD12506B4003025325780099
:1052630080298C828D83E0F508A3E0FFE508240004
:10527300E43FF509E833FEE433FF745D2EF58274F1
:105283000C3FF58312534812532808E8C39940D2C0
:105293008A828B83A3A3A3A3A3A3A3A3A3124222C0
:1052A300900368E06C7003A3E06D700F7C5D7D0C70
:1052B300122785124BE6120D728067EA2411F582DC
:1052C300EB125B6C605CFC74FF2CF07508017808D2
:1052D3001208C875085D75090C78081208C4E9F549
:1052E3000878081208C8EA2412F582EB125B6CF501
:1052F3000878081208C8EA2415F582EB12549C12A8
:105303000734ECF912278512421F8A828B83A3A3E9
:10531300A3A3A3A3A3A3A3124BEA120D8A74071298
:1053230008D7023507EC24020C0CED3400FD2212E1
:1053330054AD12533AE022E0F8A3E0F5838882A348
:105343002288828983E508F0A3E509F02274EA1232
:10535300040874FD1209558A148B158C0E8D0F8960
:105363000D7419120B3D1254B5741B120B3DE0F56D
:1053730011741C120B3DE0F50C741D120B3D124908
:105383002B741F120B3DE0F5106008E50CC33324AA
:105393000480027402C0E07401120B3DD0E0125489
:1053A300C68A088B09EA450970030254918A828BE5
:1053B30083A3A3E514F0A3E515125FBFE50EF0A3E5
:1053C300E50FF0EA2413F582EB12549CE50DF0EAA5
:1053D3002414F582EB12549CE511F0EA2417F582AC
:1053E300EB125B6C64017040120F708A0E8B0FA876
:1053F3000EA90F850882850983A3A3A3A3E0687080
:1054030003A3E0696022EE4F6011E508241AF582D8
:10541300E50912549CEEF0A3EF800CE5082417F580
:1054230082E50912549CE4F01254A01254B58E8202
:105433008F837405F0A3E5107004E50C80487401B4
:10544300250C1254BF7A008028850A82850B83E0DD
:105453001254BB850A82850B83A3E08E828F83F06F
:10546300E50A2402F50AE50B3400F50BA30EAF831E
:105473000AEAC3950C40D2120F70EA1254BB120F02
:1054830070EB8E828F83F0AA08AB09120C4674036B
:10549300024561EE240CF582EF1254AD22122796D9
:1054A3001254AD22EE240BF582EF3400F5832290E3
:1054B3000334E0FEA3E0FF228E828F83F0A3AE824B
:1054C300AF8322123589120FCA22C082C083E9C377
:1054D30033FCE433FDEA2CFAEB3DFBEA24FEF582D0
:1054E300EB34FF124BE802343074F21204088909DA
:1054F3008A0A1250674004790080407508008002D0
:105503000508E508C39509502AE508C333F8E433D1
:10551300F9EE28F582EF39F583C082C083120F704C
:105523008A0C8B0DD083D082E0650C7004A3E065F8
:105533000D70CDE50A650870BE79010249E574F086
:1055430012040874F31209558A088B098C0A8D0B0F
:10555300890C750D00120FE2E979006003025643CE
:10556300AA08AB09120DFCA90C120DF08A0E8B0FC1
:10557300AE0EAF0FEE4F70030256418E828F83A3A0
:10558300A3A3A3A3A3E0A2E24003025641120F7018
:10559300EA650A7003EB650B7011780D1208C8E415
:1055A300F50EF50F780E1208C48044AA0AAB0B124D
:1055B3000BFEE9640170688518828519837404F011
:1055C3007401120B3D124F16851882851983AA8226
:1055D300AB83120BBCE964017045750D01780D12A4
:1055E30008C8E4F50EF50F780E1208C4750D00789F
:1055F3000D1208C8780D1208C87408120B3D858275
:105603000E85830F780E1208C49022B2E493F9AC8E
:105613000AAD0BAA08AB09120D8A74071208D78EBC
:10562300828F83A3A3A3A3A3A3E0A2E1400D8E8251
:105633008F83A3A3A3A3A3A3C2E2F0750D01A90DB6
:10564300023EE474F6120408E9FE7900120DFCEE42
:10565300F9120DF08A088B09A808A909E849600620
:105663001264FAF98002790402350774F612040809
:105673007E0790035CE070341256B48A088B09A845
:1056830008A909E8496025900361E06401888289DB
:1056930083A3A3700B1256BB888289835001A3A3F3
:1056A300E0F91210EAE9FEEE70027E07EEF9023528
:1056B30007124F071210CC22E0FA88828983A3E0F5
:1056C300C39A2274EE120408EAFEEBFF890A8C0CDB
:1056D3008D0B7412120B3D12343C12579012506E04
:1056E3005051890E750F007403780E120A20747BD3
:1056F300250EF582740C350FF583E0F8E50CC3989D
:10570300502DE50B602475110074037810120A20E4
:1057130074752510F8740C3511F988828983A3A355
:10572300A3A3A3A3E50C12579AF07900024CAD7919
:105733000380F979007AFE7BFF125790E49365109A
:105743007004790280E6E50B60E0890E750F007442
:1057530003780E120A207475250EF8740C350FF9B0
:1057630088828983A3EEF0A3EF12579A124F34E590
:105773000C123EAE74FF126379E50AF0900366E003
:1057830088828983A3A3A3A3A3A3A3809C120DEA66
:10579300E9F5109022A5221264BCA3E508F0A3E565
:1057A300092274F6120408ECFF120DEA9022A512E6
:1057B300506E5027890875090074037808120A206F
:1057C300747A1257E4740C12602BE0F8EFC398500C
:1057D30006EFF07900800679038002790402350729
:1057E300EA2508F5822274F4120408EAFEEBFF129C
:1057F3000DEAE9F50A9022A512506E5019750B00B7
:105803007403780A120A207478250AF582740C3519
:105813000B124BE8801890034B124770600CEEFAA2
:10582300EFFB1239E2121EB180047AFE7BFF0236CF
:10583300A874F61204088A828B83A3A3A3A3A3E408
:10584300F0F88001089022ABE493F9E8C399501E65
:1058530088081258928C828D83A3A3A3A3A3A3A326
:10586300A3E06970DFECFAEDFB120F16801EE493E0
:105873006870198C828D83A3A3A3A3A3A3A3A3A35B
:105883007406F07A008C828D831259BD0235077439
:10589300FD2508F582740C125B78F92274F4120466
:1058A30008EAFEEBFF8E828F83A3A3E0141259D480
:1058B300A3E0F9120EF28A088B09EA450970030284
:1058C30059958E828F83A3A3E070358A828B83A33D
:1058D300A3A3A3A3A3A3A3A3E064028A828B83A3AA
:1058E300A3A3A3A3A3A3A3A360107406F07AF085D4
:1058F30008828B831259BD0259957406F00259959B
:105903008E828F83A3A3A3A3A3A3E060738E828F4E
:1059130083A3A3A3A3E0607AEE2403F582EF1259D5
:1059230098706F90035512599E1259D4E014125F68
:10593300B6E06403705C8E828F83A3A3A3A3E0709D
:105943000DAC08AD09EEFAEFFB120DC080448A825C
:105953008B83A3A3A3A3A3A3A3A3A37404F01215EC
:105963001CEA540F04850882850983A3A3A3A3F02B
:10597300A3E4F07A20FB1259B470171259A78012CE
:105983008A828B83A3A3A3A3A3A3A3A3A3E06403F8
:1059930060AF0236A8125B7814F022E08E828F8308
:1059A300A3A3A3227A207B009003C2E0F912155E21
:1059B30022125FD28B09EA450922E0240C1259C94D
:1059C300E0F9120E3822F8A3E03400F988828983C3
:1059D300221259D9A3221234E4A3A3A32274F612E8
:1059E300040879007E0080258E0875090074037809
:1059F30008120A2074B52508FA740C3509FB8A824B
:105A03008B83A3A3E06005120DC679010E9022AB30
:105A1300E493F8EEC39840D0E9A2E07A407B00908B
:105A230003C2E0F9501512166C8B09EA4509700E92
:105A33007C647D007A40123CFF80031216660235B7
:105A43000774F4120408ECFEEDFF7508B575090C34
:105A53007C008045850882850983A3A3A3A3A3A310
:105A6300A3E0F8EA2412F582EB125B6C68701F85E1
:105A730008828509831234F2125B70687003A3E015
:105A830069700B850882850983A3A3E070200CE568
:105A9300082408F8E5091251FA9022ABE493F8ECD4
:105AA300C39840B0E4936C700579000236A885086A
:105AB30082850983A3A3A3A3A3A3E0700479018030
:105AC300EA1261C41210A28B0BEA450B600F850822
:105AD30082850983A3A3A3A3A3A3E014F07C00807E
:105AE300010C8C0A125B465020EC125B7E60F212B2
:105AF300308D6E7003A3E06F70E78508828509839C
:105B0300A3A3A3A3A3A3E014F09022A6E493F89085
:105B13002294E49328F8A3E4933400F9850882855A
:105B23000983A3A3A3A3A3A3E0FAC3E89AE9940078
