:020000040000FA
:06000000020AD80201BB58
:030013000201DE09
:03002B0002092C9B
:030033000206DBE7
:03003B000202338B
:030053000200ECBC
:03006B000206B5D5
:100083000201500101FF01010503010F10FEFF866C
:10009300138613861386133C1236128613A71F008A
:1000A3000000006B20000000000C0000000C0001A9
:1000B300FFFF010101005805000000CD05E80364BE
:1000C300006400B801020200080000050207051ED3
:1000D30002051E020A0A03B80B02803E0102FFFF5B
:1000E300011496511800020206C0E074F212047B58
:1000F300A2AFE433FED2AFE5A7FFE5A1F5085F5455
:10010300106006121A6A75A1EFE5085F54086008CB
:10011300121A7075A1F7802BEFA2E0C0D0E508A2F8
:10012300E092F0120A15158182F05017906198E061
:10013300F89007A2E0C398A2D265D0335002E8F04A
:1001430075A1FEEEA2E092AF7F01020532C0E0741A
:10015300F212047BA2AFE433FED2AF9061A4E0F8C5
:10016300759B00E59158540860087591F7121AB809
:10017300802AE59158541060087591EF121ABE80D9
:100183001BE8A2E0C0D0E591A2E092F0120A151597
:100193008182F05007E0C2E0F0121C029061A3E0FC
:1001A300F8E5E9585404600E121BD875E9FB906119
:1001B30093E0A2E640F2808BC0E074F212047BA2CB
:1001C300AFE433FED2AF9061A5E0F8E5BF58540425
:1001D300600675BFFB121C1A020146C0E0C0D0E8DE
:1001E300C0E0E9C0E0C082C083E5C1C0E090070E73
:1001F300E0F8748D28F58274063400F583D0E0F0BE
:1002030090070DE0F8A3E0687006E595900710F0FD
:1002130090070EE004F0C394804002E4F0A374C698
:10022300F0D083D082D0E0F9D0E0F8D0D0D0E03263
:10023300C0E0C0D0E8C0E0C008C009C082C083905D
:100243000791E0F8A3E0687008539AFBA374018058
:1002530026C2E9900791E0F50874012508F07411AE
:100263002508F58274073400F583E0F5C190079102
:10027300E0C394804002E4F0D083D082D009D00858
:1002830080A6C3E498F8E499F91202C68026C3E471
:100293009AFAE49BFBE920E7E91202C6E498F8E442
:1002A30099F922C3E498F8E499F91202C6E498F89C
:1002B300E499F9C3E49AFAE49BFB22EB20E7CFE944
:1002C30020E7E0B90010BB0008E88AF084F8AAF040
:1002D30022E4FBC8FA22EB70227B10C833C8C9336F
:1002E300C9335007C39AC3DBF280069A50012ADB55
:1002F300EAC833F4C8C933F4C9FA2275F008E4C86C
:1003030033C8C933C933C99AC99B5004C92AC93BE5
:10031300D5F0ECFBC833F4C8E4C9FA22080808EAAC
:10032300C0E0EBC0E086F0E7A4FA180986F0E7A482
:100333002AFA180986F0E7A42AFA180986F0E7A42E
:100343002AFA1986F0E7A4FBE5F02AFA190886F0E1
:10035300E7A42BFBE5F03AFA190886F0E7A42BFB98
:10036300E5F03AFA18180986F0E7A4C5F02BFBE488
:100373003AFA1908E7C5F0C6A426F6E5F03BFBE414
:100383003AFA1886F0E7A4F6E5F00826F6E43B0807
:10039300F6E43A08F6D0E0FBD0E0FA22E4CFC0E07E
:1003A300E4CEC0E0E4CDC0E0E4CCC0E075F020C30F
:1003B300E633F608E633F608E633F608E633F618CE
:1003C3001818EC33FCED33FDEE33FEEF33FFC3ECD3
:1003D3009709ED9709EE9709EF97191919400FFF40
:1003E300EC97FC09ED97FD09EE97FE191906D5F078
:1003F300BEECF709EDF709EEF709EFF7191919D074
:10040300E0FCD0E0FDD0E0FED0E0FF222518C5825D
:10041300C0E0E51934FFC583C0E0E518C395822425
:10042300F810AF088583198582188008858319859C
:100433008218D2AFCEF0A3E520F0A37808E608F047
:10044300A3DEFAEFF0A3E58124FAF8E608F0A3E6C9
:1004530008F0A3E608F0A30808E608F0A3E608F00E
:10046300A315811581D0E0FED0E0F8158115811523
:1004730081E8C0E0EEC0E022C0D02518C582C0E00C
:10048300E51934FFC583C0E0E518C3958224F31052
:10049300AF0885831985821880088583198582189A
:1004A300D2AFC8F0A3E9F0A3EAF0A3EBF0A3790875
:1004B300E709F0A3D8FAECF0A3EDF0A3EEF0A3EF75
:1004C300F0A3D0E0F0A3D0E0F0A3D0E0F0A3E520C8
:1004D300F0A3E5F0F0A322120B3AB9000302051CC6
:1004E300E49003017869790B8002F0A3D8FCD9FA70
:1004F300900D69AA82AB8390008678677901801595
:10050300E493A3AC82AD838A828B83F0A3AA82ABEC
:10051300838C828D83D8E9D9E77582487583D1743A
:100523000312088B7582AE75831E740012088B85C7
:100533001983851882E0C0E0A3E0F9A3E0FAA3E001
:10054300FBA37808E0F608A3DFFAE0FCA3E0FDA331
:10055300E0FEA3E0FFA3E0C0E0A3E0C0E0A3E0F57A
:10056300D0A3E0F520A3E0A3F5F010AF088583192D
:100573008582188008858319858218D2AFD082D0EE
:1005830083D0E0F8D0E0320E0075F0108E1A8F1B86
:1005930085821F85831E851882851983E0CEA3E09B
:1005A300CF851F82851E83EBC9EAC8EDCBECCAC396
:1005B300E833C8E933C9EA33CAEB33CBC3EA9EF560
:1005C3001DEB9FF51CB35004AB1CAA1DEC33CCED03
:1005D30033CDD5F0DAAE1AAF1B22D083D082ECC074
:1005E300E0EDC0E0E493A3FCE493A3FDED4C600DC8
:1005F3001206F9EC24FFFCED34FFFD80EFE493A336
:10060300FCE493A3FDED4C600D120796EC24FFFC74
:10061300ED34FFFD80EFD0E0FDD0E0FCE493A3C018
:10062300E0E493C0E022D083D082E9C0E0E493A366
:10063300C386F0C5F095F0F908E493A386F0C5F0FE
:1006430095F0700BE493A3C3994005E9048002A3DA
:10065300E475F002A42582F582E5F03583F583D0B5
:10066300E0F9E493A3C0E0E493C0E0228519838515
:100673001882E0A3FEE0A3F5207808E0A3F608DFE4
:10068300FAE0A3FFE0A3C0E0E0A3C0E0E0A3C0E082
:10069300E0A3C0E0E0A3C0E010AF08858218858323
:1006A300198008858218858319D2AFD083D082023E
:1006B3000891C0E074F212047BA2AFE433FED2AF20
:1006C300E589A2E450031219AA758900C2C5EEA2F6
:1006D300E092AF7F01020532C0E074F212047BA204
:1006E300AFE433FED2AFE58BA2E050031219AA7533
:1006F3008B00C2E880D8C0E0C3E4939608740193EA
:100703009618400FE4936670080874019366187096
:10071300007019A3A3C3E49396087401939618A3D6
:10072300A3400DD0E0D0E0D0E0020619A3A3A3A319
:10073300A3A3D0E0227404800474028000CCC0E040
:10074300EDC0E0E518C39CCCAD1950011D10AF06F8
:100753008C188D1980068C188D19D2AF12080DD004
:10076300E0FDD0E0FC2274028000CCC0E0EDC0E0EC
:10077300E518C39CCCAD1950011D10AF068C188D24
:100783001980068C188D19D2AF1207EBD0E0FDD07B
:10079300E0FC22C0E0C0F088F0E4936670080874BF
:1007A300019366187000A8F0A3A3700BD0F0D0E0FB
:1007B300D0E0D0E0020619A3A3D0F0D0E022D0838A
:1007C300D082CCC0E0E493A3600612084D1470FA03
:1007D300E493A360061209731470FAD0E0FCE49367
:1007E300A3C0E0E493C0E022CAC0E0E493A3C582BF
:1007F300CCC582C583CDC583F0A3C582CCC582C5D4
:1008030083CDC583DAE5D0E0CA22CAC0E0E0A3C540
:1008130082CCC582C583CDC583F0A3C582CCC582F6
:10082300C583CDC583DAE6D0E0CA2270090808087B
:10083300226016181818C6C333C608C633C608C6BE
:1008430033C608C633C6D5E0EA22C0E0E493A3D397
:100853009C5010E493A3C39C400AD0E0D0E0D0E0C6
:100863000207DEA3A3A3D0E022C008C3E096F508E5
:1008730008A3E096420808A3E096420808A3E0967E
:1008830045087001D3D00822C09FF59FE473D09F21
:1008930022D083D082C09FE493C0E0740193C0E070
:1008A300740293F59F222518F58210AF08F51840BE
:1008B3000215198008F51840021519D2AF8519835E
:1008C300227404800A74038006740280027401C0D7
:1008D300E0F4041208A9D0E0120B1522C0D02518A9
:1008E30010AF08F518500205198008F518500205D5
:1008F30019D2AFD0D022BB0102E722C082C08389C4
:10090300828A83BB0003E08002E493D083D08222F7
:100913006016080808C6C313C618C613C618C6133C
:10092300C618C613C6D5E0EA22C0E0C0D0E8C0E0CE
:10093300E5A8D2AFC2C7A2E792AFD0E0F8D0D0D03B
:10094300E032C3E0C696F608A3E0C696F608A3E035
:10095300C696F608A3E0C696F622251810AF08F54A
:1009630018400215198008F51840021519D2AF2254
:10097300C0E0E493A36C7009D0E0D0E0D0E00207BC
:10098300DEA3A3D0E022E066701008A3E066700A3D
:1009930008A3E066700408A3E06622E76670100807
:1009A30009E766700A0809E76670040809E7662222
:1009B300C3E09608A3E09608A3E09608A3E096A2F6
:1009C300D265D03322C3E096F008A3E096F008A3E3
:1009D300E096F008A3E096F022E026F008A3E036C4
:1009E300F008A3E036F008A3E036F022E627F60885
:1009F30009E637F60809E637F60809E637F622E08E
:100A030026F608A3E036F608A3E036F608A3E03698
:100A1300F622C0E0E8C0E0E58124FCF8E6A2E7D0D6
:100A2300E0F8D0E022700422600D18C6C333C60874
:100A3300C633C6D5E0F41822E657F60809E657F69A
:100A43000809E657F60809E657F622E056F608A322
:100A5300E056F608A3E056F608A3E056F622E05661
:100A6300F008A3E056F008A3E056F008A3E056F020
:100A730022E647F60809E647F60809E647F60809B5
:100A8300E647F622E4C396F608E496F608E496F6FB
:100A930008E496F622C3E7960809E7960809E7965D
:100AA3000809E79622C6F4C608C6F4C608C6F4C603
:100AB30008C6F4C622600D08C6A2E713C618C613FB
:100AC300C6D5E0F322C3E09608A3E09608A3E09618
:100AD30008A3E0962275D000758140751801751939
:100AE30003000204DAE0F608A3E0F608A3E0F60840
:100AF300A3E0F622600C08C6C313C618C613C6D5F6
:100B0300E0F422E6F008A3E6F008A3E6F008A3E683
:100B1300F022CAC0E0E6F0A308DAFAD0E0FA22E055
:100B2300FAA3E0FBA3E0FCA3E0FD22EAF0A3EBF0D1
:100B3300A3ECF0A3EDF022E5C754F84401F5C7791F
:100B430001222518F582E43519F58322C2AF75D643
:100B53009F02000022120894F7E20212089444E470
:100B630002120894E7E4021208942EE60212089493
:100B73004CE602120894BA2200120894CC22001206
:100B830008941E23001208947F230012089409245A
:100B930000120894AD240012089401250012089451
:100BA3001A25001208944025001208947B25001290
:100BB3000894BF2500120894E625001208943726EE
:100BC30000120894E726001208949F270012089445
:100BD3006728001208942729001208946B29001231
:100BE3000894902900120894D32900120894202A0B
:100BF30000120894782B00120894FE2B001208941C
:100C03001C2C00120894462C00120894602C00122D
:100C130008946F2C001208947A2C001208943A2D31
:100C230000120894932D00120894552E0012089474
:100C33005D2E00120894212F001208948D2F0012AC
:100C43000894B83000120894C930001208943F3158
:100C530000120894D131001208942932001208942A
:100C6300E932001208941033001208942233001260
:100C73000894753300120894B23300120894BF33FA
:100C83000012089442350012089497360012089413
:100C9300C936001208945C37001208949537001285
:100CA3000894E13700120894FD3800120894463B7B
:100CB30000120894513B001208945C3B0012089404
:100CC300663B00120894713B001208948B3B0012A0
:100CD3000894953B001208949F3B00120894AA3B8A
:100CE30000120894D23B001208942D3C0012089481
:100CF300513C00120894753C00120894D33C001236
:100D03000894173D00120894333D00120894AA3D3D
:100D130000120894E23D001208942E3E001208943B
:100D23008B3E00120894453F00120894294100129B
:100D33000894824100120894B24200120894D842E7
:100D430000120894614400120894DD4700120894CD
:100D5300AF4900120894784B00120894254C0012F6
:100D63000894904D001208942F4E00120894744E6C
:100D730000120894DE4E00120894ED4E00120894FF
:100D830074510012089426530012089493530012CE
:100D930008947254001208948B5500120894085753
:100DA300001208942757001208947C5700120894E5
:100DB300815800120894A95800120894015900128E
:100DC3000894E05900120894245A001208946F5AA8
:100DD30000120894DA5A001208941B5C001208945B
:100DE3007F5C00120894CD5D001208942D60001200
:100DF30008945E60001208941662001208946B62F5
:100E0300001208946F63001208940C640012089493
:100E1300656400120894186500120894BA650012FC
:100E230008945A6600120894FF6600120894A3807F
:100E330001120894E2800112089429830112089494
:100E43007383011208948E8401120894FE840112A4
:100E53000894338501120894A786011208942A89FD
:100E630001120894538A01120894E98A0112089422
:100E7300F193011208948694011208946D9701125C
:100E83000894609801120894C19801120894DD999E
:100E930001120894C29B01120894D39D0112089475
:100EA3003D9E011208940F9F01120894C69F0112E0
:100EB3000894D09F01120894FE9F01120894BBA0CE
:100EC3000112089492A10112089459A201120894E4
:100ED3000BA30112089434A30112089456A3011220
:100EE3000894ACA50112089484A601120894C8A61C
:100EF3000112089430A701120894E8A7011208947C
:100F03001AA8011208945EA80112089494A8011269
:100F13000894E0A80112089435A9011208943AA98B
:100F2300011208948DA901120894B2A90112089420
:100F3300C1AA0112089425AB0112089495AB0112C2
:100F4300089421AC01120894EEAE01120894D2AFBA
:100F53000112089455B1011208948BB3011208943D
:100F630039B401120894E9B4011208942AB70112A2
:100F73000894CDB70112089414B801120894C0B9AB
:100F830001120894D4B901120894DEB9011208942D
:100F930006BA0112089412BA0112089431BA011266
:100FA300089416BC011208944DBC0112089457BC56
:100FB300011208948DBC01120894DCBD011208943F
:100FC30020BE01120894C8BE01120894ABBF0112DF
:100FD300089456C001120894A2C101120894A0C239
:100FE3000112089446C301120894D6C3011208944F
:100FF300EDC30112089424C4011208942EC40112F3
:10100300089439C40112089457C4011208949BC46C
:1010130001120894F8C4011208941DC50112089422
:1010230037C501120894C3C501120894E0C6011222
:1010330008944DC70112089434C8011208945BC880
:1010430001120894CFC8011208944AC901120894E6
:101053004ECA0112089444CB01120894F3CB011237
:10106300089406CD01120894A2CD011208942FCE44
:10107300011208940DCF0112089445CF0112089470
:101083009DCF0112089466D00112089487D00112F3
:1010930008940ED10112089432D10112089454D14C
:1010A300011208949DD101120894B3D3011208943C
:1010B3009AD4011208944BD50112089481D70112D6
:1010C3000894D1D70112089411D80112089453D867
:1010D30001120894AFD801120894DDD801120894C4
:1010E30001D90112089454D90112089482D901122A
:1010F3000894BBD90112089410DA0112089476DA25
:1011030001120894CADB01120894EDDD0112089460
:101113005ADE0112089483DE011208940EDF0112D5
:10112300089475DF01120894C0DF01120894E4DF0C
:101133000112089408E00112089463E00112089474
:101143007EE00112089437E10112089420E20312B1
:1011530008945FE203120894788002120894BE8018
:10116300021208949E8102120894A082021208942B
:10117300A383021208942F85021208948D8502120C
:1011830008944A8602120894688702120894D98741
:1011930002120894158802120894638802120894B4
:1011A3006D8802120894B188021208940D89021204
:1011B3000894A88902120894258A02120894F48AD2
:1011C300021208948D8B02120894AD8B02120894BC
:1011D300E38B02120894148C02120894D58C021229
:1011E3000894E58C02120894398D02120894548DE8
:1011F30002120894668D021208946F8D02120894ED
:10120300C98D02120894258E02120894718E02125F
:1012130008948C8E02120894BD8E02120894DA8E02
:1012230002120894E68E021208945A90021208944D
:10123300739002120894DA9002120894ED9002124D
:101243000894FB9002120894AF91021208949392AF
:101253000212089499930212089423940212089498
:101263002D94021208949A9402120894B1940212D3
:101273000894E394021208941C950212089446956C
:1012830002120894A79502120894C79502120894B3
:10129300E595021208942B960212089451970212B4
:1012A30008949E9702120894CD97021208944398CB
:1012B300021208946B9802120894A49802120894DC
:1012C300B298021208940A990212089459990212C8
:1012D3000894989902120894C89902120894F499F0
:1012E30002120894FF99021208941D9A021208949C
:1012F300DF9A02120894E99A02120894249B0212BC
:1013030008943A9B021208948F9B02120894A39BA1
:1013130002120894B19C02120894C49C021208940D
:10132300D99C021208947B9D02120894FE9D02121E
:101333000894BC9E02120894C79E02120894F39F5D
:10134300021208940FA00212089461A002120894DA
:10135300A0A002120894B5A00212089417A10212C9
:101363000894A6A102120894F1A10212089442A4BF
:1013730002120894C0A40212089435A5021208941C
:1013830057A7021208946FA70212089472A70212B9
:1013930008947EA70212089492A7021208949AA7AF
:1013A30002120894CDA7021208947DA80212089491
:1013B300F3A80212089466A9021208941AAA021248
:1013C3000894CFAA02120894EEAA021208948EABD4
:1013D300021208949AAB02120894C5AB0212089445
:1013E300C8AB0212089432AC021208945AAD02122E
:1013F300089432AE02120894BDAE02120894D6AF1E
:101403000212089493B002120894CCB0021208940A
:10141300FDB002120894BBB102120894EBB10212A0
:101423000894C6B2021208945FB302120894EAB396
:10143300021208949BB4021208941EB50212089477
:1014430050B50212089491B502120894C58B031289
:10145300089444DA02120894678C03120894B68C39
:1014630003120894CC8E03120894AF9003120894CD
:101473001994031208945494031208947694031253
:101483000894D994031208940D9503120894309587
:10149300031208945D9503120894B99503120894F6
:1014A3000080031208947E8003120894A2E00212C3
:1014B3000894208103120894938203120894AF8244
:1014C30003120894F482031208948283031208948B
:1014D300DB83031208940885031208941A86031207
:1014E3000894778603120894E386031208944487CA
:1014F3000312089485870312089432880312089410
:101503004489031208946F8903120894BA89031259
:101513000894018A03120894938A031208944E8B49
:1015230003120894DBD60312089455D703120894C8
:1015330060D703120894419F031208948D9F0312EE
:101543000894FB9F031208941CA003120894CCA0D8
:1015530003120894D5A00312089428A10312089437
:1015630051A103120894B8A10312089449A20312CB
:1015730008948BA203120894D5A20312089434A3EF
:101583000312089460A303120894F1A303120894AE
:1015930030A4031208946FA403120894A4A40312A2
:1015A3000894B6A403120894C8A403120894E7A4E9
:1015B30003120894F0A403120894A6A50312089436
:1015C300E6A50312089408DE0312089416CF03124B
:1015D30008944CCF0312089495CF03120894E5D0D6
:1015E300031208944B67001208948A680012089447
:1015F300C66800120894856A00120894AE6A001245
:101603000894416D00120894856D001208940E6FC2
:1016130000120894A66F001208940E70001208942A
:10162300AF7000120894F170001208943171001227
:101633000894BC72001208942C740012089451761A
:10164300001208947F7600120894A676001208947C
:10165300AF7600120894367700120894547A001279
:10166300089438E3031208944EE303120894D5E177
:101673000312089415BF0312089428BF0312089499
:10168300C5BF0312089400C0031208941BC00312C1
:10169300089440C00312089485C003120894B6C08E
:1016A30003120894E7C0031208946DC2031208944E
:1016B300A6DF03120894DCDF03120894F8DF031299
:1016C30008943AE0031208944AE003120894D57A86
:1016D300001208947F7B00120894647C0012089423
:1016E300107D001208948D7D00120894D17D0012A4
:1016F30008944C7E0012089473E602120894C8E61C
:1017030002120894B1E7021208944AE802120894FC
:1017130094E802120894F6E8021208940AE9021205
:101723000894ECEA0212089467EB0212089491EB16
:10173300021208946AED0212089485ED02120894CD
:10174300D4ED02120894EAED02120894F7ED0212A6
:1017530008942BEE0212089444EE02120894E4EE6D
:10176300021208943EEF021208948CEF02120894BE
:101773009FF00212089410F30212089445F3021228
:101783000894D3F30212089434F40212089439F43F
:101793000212089475F402120894D7F40212089402
:1017A300A7F502120894CCF502120894D6F502129A
:1017B3000894D9F50212089448F60212089463F6C5
:1017C3000212089476F602120894A2F60212089402
:1017D300DDF602120894E0F6021208941CF70212D6
:1017E300089487E1031208949FE10312089455F7C4
:1017F30002120894A4F70212089446F902120894FC
:1018030002FB021208944AFB0212089432FC0212F1
:10181300089463FD0212089485FD02120894E1FD09
:101823000212089465FE0212089471E101120894F1
:101833009CE1011208947FE20112089404E301126F
:1018430008946DE301120894B9E30112089438E493
:1018530001120894CAE40112089456E5011208948F
:1018630098E501120894E1E90112089461EB011271
:10187300089431EC0112089458EC01120894B9EE63
:101883000112089445EF011208945FF001120894C5
:101893003EF101120894C0F10112089458F20112AA
:1018A300089412F30112089484F30112089420F4AB
:1018B3000112089490F40112089449F70112089454
:1018C30020F8011208948DF8011208940AFA011203
:1018D3000894D4FA011208941BFC011208942EFDFB
:1018E30001120894C7FD011208948DFE0112089499
:1018F30087C203120894DBC20312089433C3031292
:1019030008947EC303120894E0C30312089479C4B5
:1019130003120894E1C403120894EDC4031208945B
:101923004ED3031208947FD30312089439D40312BD
:1019330008949FD403120894C2D103120894DBDEE7
:1019430003120894ECDE031208948CDF031208944C
:1019530028D50312089436D503120894E57F0012A4
:101963000894F4E00312089404E1031208941CE1C0
:10197300031208947DE10312089406DD0312089410
:101983008BDD03120894EFDD0312089499FE021213
:101993000894B5FE021208940CFF021208942CFF5F
:1019A3000212089469FF02120894C4FF02120894F9
:1019B3000BB80312089419B80312089493B80312CE
:1019C300089477B90312089430BB0312089416E302
:1019D300031208941EC5031208946CC503120894DD
:1019E30009C603120894B4C603120894CCC60312A2
:1019F300089448C7031208945EC70312089471C77A
:101A0300031208947FC703120894CCAA0312089404
:101A130021AB031208941DAD031208944FAD0312BA
:101A2300089471AD031208948AAD03120894A3AD10
:101A330003120894ADAE0312089448AF031208943E
:101A430053D80312089477D80312089490D803123A
:101A53000894C3D803120894F4D80312089422D923
:101A63000312089484D90312089493D90312089497
:101A73009DD903120894AAD903120894C3C7031269
:101A83000894E9C70312089426C80312089435C8BA
:101A93000312089454C803120894BCC80312089490
:101AA300C5C80312089424C90312089448C9031231
:101AB300089407CA0312089414CA0312089425CA87
:101AC30003120894ADE203120894CAE203120894C5
:101AD300BFAF031208941DB1031208942AB1031275
:101AE30008943DB1031208945CB10312089472B1D7
:101AF3000312089486B103120894FBB103120894ED
:101B030060B20312089410B303120894E5B30312EE
:101B13000894F5B30312089404B4031208945BE029
:101B2300031208947FE003120894A7E003120894B9
:101B3300CFE00312089453CA031208947ACA03121B
:101B430008949BCA0312089400CB03120894B9CCDF
:101B530003120894D2CC03120894DECC0312089427
:101B6300F2CC0312089410CD031208941ACD031279
:101B7300089424CD0312089437CD031208948ACD18
:101B830003120894C3CD03120894F2CD03120894F0
:101B930040CE031208948FCE03120894AACE0312E8
:101BA3000894B4CE03120894C5CE031208940BCF45
:101BB30003120894947F0012089405960312089464
:101BC3002F96031208944B96031208945E96031201
:101BD3000894749603120894D196031208940497F8
:101BE30003120894409B03120894669C0312089402
:101BF300999C03120894E59C03120894119E031206
:101C03000894399E031208944E9E031208945E9E14
:101C130003120894A29E03120894039F03120894CC
:101C2300139F03120894B4D903120894CFD9031253
:101C33000894F8D90312089412DA0312089437DAD5
:101C43000312089456DA031208946EDA0312089406
:101C53009CDA03120894B6DA0312089469E20312B9
:101C6300089495BB031208949CBB03120894A8BC68
:101C730003120894D8BC03120894FEBC0312089400
:101C830021BD0312089443BD031208947DBD0312C2
:101C93000894E3BD031208941CBE0312089468BEA3
:101CA3000312089495BE03120894B5BE0312089458
:101CB300FADB0312089412DC0312089400DD03120A
:101CC300089403DD03120894E7DA0312089459DB3E
:101CD3000312089497DB03120894D8DB03120894C9
:101CE3003DB4031208945CB403120894ABB403121A
:101CF3000894C7B403120894F8B40312089408B5FF
:101D03000312089415B50312089422B5031208941C
:101D13000EB6031208944CB60312089456B6031277
:101D2300089466B70312089471B70312089483B733
:101D3300031208948CB70312089496B703120894FD
:101D43000FA60312089454AA0312089462AA03125A
:101D53000894E9E203120894A6D7021208946FD6F6
:101D630002120894C3D50212089409D402120894EB
:101D7300B9D10212089440D102120894E7D002129A
:101D8300089477D0021208944ED0021208942ECEF3
:101D930002120894FACD02120894C7CD02120894D5
:101DA300ABCD02120894C4CC021208947CCC02126C
:101DB3000894C7CA0212089447CA0212089444CA74
:101DC3000212089441C9021208940FC9021208941E
:101DD3004CC80212089477C602120894C0DF02129C
:101DE3000894A4DF0212089428DF02120894DFDEAD
:101DF3000212089497DE0212089408C6021208948D
:101E0300DAC502120894D7C502120894C4C5021297
:101E13000894E5DD021208946FC5021208945EC5AA
:101E23000212089450C4021208941AC402120894AD
:101E330057DD02120894B48003120894C8C3021237
:101E4300089469C30212089438C30212089400C0AC
:101E530002120894C0BF02120894B4BF021208947D
:101E630014BF0212089454BE02120894D6BB021285
:101E7300089467B90212089425B902120894F9B7B5
:101E830002120894AEB702120894EDB60212089437
:101E930030B602120894C6B50212089400B60212B4
:101EA30008944ADD021208942A8C0300000080FB88
:101EB300E473000136360101000102010001030150
:101EC30000010401060605020000070100340801B1
:101ED300000F090401010D0100FF0E0800001702A5
:101EE3000000190100FF1A0100011B0100FE1C0183
:101EF30000081D0200001F01000120010001210252
:101F030000002301000F2402000026010001270125
:101F13000008280200FF2A0100072B0102402C01C0
:101F230000002D0100012E0100012F0100FF3001EF
:101F33000B1C310800003A0100083B01000F2F0180
:101F430000000302710230016002110270020102FB
:101F5300020202028002100261023A00410063029F
:101F6300730272026202430200021302380000028B
:101F73000002040212020002000200020002040234
:101F83000402370037003C02440200023900000219
:101F9300000265020002350281020002050282028C
:101FA3008302000203007100300160001100700021
:101FB300310220035004800010006100000014006F
:101FC3006300730072006200430000001300060008
:101FD30000000000040012000000000000000000E8
:101FE30004000400370037003C02440000000000F6
:101FF30000000000650000003500810000000500BE
:10200300000083000000030471040204600411044F
:1020130070040204020401040204100461040004B5
:102023001404630473047204620443040004130479
:102033000604000400040404120400040004000461
:102043000004510464000004000400044404000478
:1020530000040004000465040004350481046400E2
:102063000504000483040004010371030103010355
:10207300010301030103220302030103100300030D
:1020830000030003000300030003000342030003F3
:10209300240306030003000304031203250323039D
:1020A3002503230304030403000300030003440381
:1020B30000030003230300036503210035038103A9
:1020C3000003050300030003000301017101010183
:1020D300010111010101310101010101800110011F
:1020E30061013B001400630173017201620143014A
:1020F3000001130106013D01350004011201000135
:1021030000010001000104010401330133013C011A
:102113004401320136000001000165010001350070
:1021230081010001050182018301000136000100E4
:10213300060000000F000000000000000000000087
:10214300000003FFFF00000403FFFF0000FFFF0F79
:10215300F4010005C4040320000100000B0000008B
:10216300000000000003010F0000B41813007818EA
:102173000100B418020042180300481804004E1866
:102183000500541806006018FFFF000001760E06D4
:10219300A00E089A0E0BB80E10F20D027C0E058EDF
:1021A3000E07820E0C580E0D6A0EFF000003EAF5AF
:1021B300E5D5D5C5B5A595958585757565655555DC
:1021C3004545353525251515059612C6129C12A2CF
:1021D30012C012B412AE12CC12D212D812E412A848
:1021E3001290128A1200160F00000B150B02000248
:1021F300220F32000006861398139E136012A41355
:102203005A1266129A119411D011D611CA11821161
:10221300E61304140A14EC13F813F21330301618EF
:102223001920231A1C1E300C0E020B040B0A07087C
:10223300000F00383C3E363B3B352B432C303017E8
:10224300181921301B1D1F300001191618161615F9
:1022530023030000034948424D1817250502DA13EA
:10226300AA13B013BC13B613BA12DE12FE13EA128A
:10227300F012020402010101010902A611AC11A02E
:1022830011DC11000000000000B211C41100BE04F3
:102293000A150004007F00E8030C0028000000007A
:1022A30000090308100C0A03080900040001FF1EBB
:1022B3001E0C05040F1008C082C0838A828B83E042
:1022C300D2E7F01217AC02336EC082C083790012DA
:1022D30027861256D7C082C08390033412445DD040
:1022E30083D082C3E09CA3E09D500C125DABFAA3A4
:1022F300E01222FD60010902336EFBEA75F00BA4C4
:10230300FAA8F075F00BEBA428FB900336E02AF84B
:10231300A3E03B8882F583E0540F2274F712040F85
:10232300890812278612282CACF075F00BE9A42C2F
:10233300F9900336E028FEA3E039FF7401650860D5
:10234300067402650870208A828B8312281812375C
:102353004E74026508701B1226D712285F70138E05
:10236300828F83E4F0800BEA2403FCEB1227FA123A
:102373002806EEFAEFFB120B760236AB74F4120466
:102383000F1266D279008E828F83E06076890A8984
:102393000B8065E50A75F00BA4FAA8F075F00BE560
:1023A3000B12230A7046E50A75F00BA4F8AAF07520
:1023B300F00BE50B12283E8E828F83E08508828521
:1023C3000983122920850882850983A312374EEEDB
:1023D3002403FCEF12280312352C125151AA08AB27
:1023E30009120B767901900334124B66E50A240136
:1023F300F50AE50B3400F50B1226DFE50A9AE50B27
:102403009B40900238F874F512040FEAFEEBFF7458
:102413000B120B45123531750A01EC4D602BEC1292
:1024230066EEED1256D71237467901120B82E50894
:102433004509606F850882850983A31266DC7902EA
:10244300AA08AB09120B82805AE5084509602B12D2
:1024530056DB123DA512352D122849700CEEFAEF0A
:10246300FB120B88E9F50A80CBEE2403FA122781CD
:1024730070317903EEFAEFFB80CA8E828F83A3E07B
:1024830064FE7003A3E0F4700BEE24030A0A0A123D
:102493002781700CEEFAEFFB120B88E9F50A800333
:1024A300750A00A90A7F0302066F74F712040F90DE
:1024B30003341236BBEA4B602FEA75F00BA4FAA87B
:1024C300F075F00BEBA428FBEAFEEBFF1215D89096
:1024D30003361236BB9003361249AB6012EEFCEFA3
:1024E300FD79001215428007900336E4F0A3F00251
:1024F30036AB900334124115C3EE98EF9922C08294
:10250300C083EC4D6005121CDA80097C087D0079DC
:102513000012154202336E74F612040F7900EA4B6F
:10252300601878008808125A1EEB125DA7600479C0
:1025330001780808E8C3940840EA02375774F71291
:10254300040F74F312095DECFEEDFF851882851903
:1025530083E4F004120B45EAF0A3EB124ED77403A5
:10256300120B45AC82AD83EEFAEFFB120B9AEEFA37
:10257300EFFB120BA00236A674F712040F74F312CA
:10258300095DECFEEDFF851882851983E4F0EAFC12
:10259300EBFD7403120B451229197401120B45123A
:1025A30037428E828F8312374E74FE68700374FF36
:1025B3006960047901800279000236A674F7120477
:1025C3000FEAFEEBFF12261D70141226288E828F4F
:1025D30083E0F4F88A828B83E058F0120B76A90823
:1025E3000236AB74F712040FEAFEEBFF7508008E98
:1025F300828F83E0602212261D701D1226288A8294
:102603008B83E08F838E82F8E058700CE0F88A8227
:102613008B83E048F0120B7680C4120B7CE9F5083B
:1026230074016508221266E7122830122772FAA392
:10263300E039FB2274F412040F8A088B097C007DB5
:10264300001226D71228061227971266D979008519
:102653000882850983A3E064FE7003A3E0F460713C
:102663007E007F008062EEFAEF1222FD6057EEFAE1
:10267300EFFBEA75F00BA4FAA8F075F00BEBA428B6
:10268300FB900336E02AF50AA3E03BF50B850882AD
:10269300850983A3124E25850A82850B83A3E06AED
:1026A3007003A3E06B701EE50A2403FAE50B1227FF
:1026B30082700AE50A2403FCE50B12280312278B18
:1026C30079011256ED1230761226DFEE9AEF9B4017
:1026D300950238F8EA24030A0A0AEB22900334121B
:1026E30052C4C32274F312040F8A088B098A828BA3
:1026F30083A31266DC1227861266D9750C00122694
:10270300D712278270547E007F008049122764FA13
:10271300A3E0398A82F583E0540F6036122764F50B
:102723000AA3E039F50BE50A2403FCE50B12280D97
:102733003400FB121CD4E964017017850A82850BEF
:1027430083A3125385A312374E12278B750C0112E4
:1027530056ED1230761224F540B2A90C7F0502061D
:102763006FEEF8EFF9E875F00BA4F812277222AABE
:10277300F075F00BE9A42AF9900336E02822EF1252
:102783002859221266EDEB221227971256E8EEF033
:10279300A3EFF022E5081266EEE5092274F51204B0
:1027A3000FEAFEEBFF8E828F83A31266DC7C007D33
:1027B30000EE24030A0A0AEF122806EEFAEFFB12D0
:1027C3000B7CE9F50A7401650A70291266E7122881
:1027D3002CAAF075F00BE912283E850882F58312C6
:1027E3002818122849700DE5082403FCE50912276F
:1027F300FA1228060224A63400FDEE2403FAEF227F
:1028030012280D3400FB120B9A223400FDE5082434
:1028130003FAE50922A312281D2212282122E0F837
:10282300A3E0F98E828F83A322122830223400F58D
:1028330083124119E875F00BA4F822122778F508E2
:10284300A3E039F50922E8F0A3E9F0E5082403FA47
:10285300E5091228592212285F6401223400FB1271
:102863000BA0E92274F312040F74E612095D1266D9
:10287300D2750C01750800750900750A00750B0007
:10288300851882851983E4F0EE2403FCEF3400FD00
:102893007403120B45122919E964017023740B1296
:1028A3000B451237467401120B45124E297003A3D0
:1028B300E0696051851882851983858208858309BB
:1028C300740D120B45E4122920740E120B451237B6
:1028D3004E740D120B45AA82AB83120BBEE9640141
:1028E300700B740D120B4585820A85830B780A12CF
:1028F30008CCAC08AD09EEFAEFFB120B8E74021292
:1029030008DFE9F50CEEFAEFFB120BB8A90C741A09
:102913001208DF02275F122BEC120BC4221236B609
:1029230012411522C082C083780079008003122AE5
:10293300171226DFE89AE99B5029E8FAE9FBEA75C2
:10294300F00BA4FAACF075F00BEBA42CFB90033660
:10295300E02AFCA3E03B8C82F583E0540F70CF792F
:10296300008002790102336EC082C08390229412E8
:10297300416BEC75F012A4FCA8F075F012EDA428DD
:10298300FD79FF7A117B0812154202336E74F71238
:10299300040FE9FEEAFF7A007B00780079008028C3
:1029A300E8FCE9FDEC75F012A4FC85F00875F01263
:1029B300EDA42508122E2CC39E400AE0FCEFC39C15
:1029C3004003122F4B122A17122E2040D30236AB8C
:1029D300C082C083780079008003122A17122A0B61
:1029E300501F122E30F470F2E875F012A4F8AAF01A
:1029F30075F012E9A42AF9741128FA740839FB80D6
:102A0300047A007B0002336E902294122EE1C3E815
:102A13009AE99B22E8240108E93400F92274F012B0
:102A2300040F74F312095D8A0A8B0B8C0C8D0D89CC
:102A330008EC450D6016AA0CAB0D120C128A0E8B16
:102A43000FAE0EAF0FEE4F6003022ADE120BE88AC1
:102A53000E8B0FA80EA90FE8FEE9FFE849607C90F2
:102A630022A2122B40602274036508600674046579
:102A73000870167A047903120BE29022A2122B57E4
:102A830040077A007B00022B3D9022A0122B40606E
:102A93001B74016508600674026508700F7A027979
:102AA30001120BE29022A0122B5750D68518828573
:102AB30019837401F0120B45125151AC0CAD0D7416
:102AC30003120B45122BE5740B120B451235391209
:102AD3003B2EE41251391210DA8004EE4F604A782B
:102AE3000074FF2508C39404500278048E828F83F8
:102AF3001251518E828F83A3A3A3A3E508F0E88E1E
:102B0300828F83A3A3A3A3A31251591202BE122E31
:102B1300F88E828F83A3A3A3A3A3A3A3F0122EEF04
:102B2300120B221256D1120B2E122B454005900D7B
:102B33006DE4F0120FB4EEFAEFFB02411F12527371
:102B430049227A047900120BE2902294125D8DEAF5
:102B530098EB9922122B70758322758294E493C3A8
:102B630098F8A3E49399F9C3EA98EB9922E493F8CC
:102B7300740193F92274F212040F74F312095D8A3B
:102B8300088B09ECFEEDFF750A00EEFAEFFB120C61
:102B9300128A0C8B0DA80CA90DE849603E88828926
:102BA30083E065087004A3E06509602F8882898348
:102BB300A3A3A3A3E0C39405502112557F851882D4
:102BC3008519837401F0120B45125583EEFCEFFD5A
:102BD3007403120B45122BE5750A01A90A740D0241
:102BE3004C1D122BEC120BD022AA82AB83120B9A30
:102BF300851882851983AA82AB832274F612040F87
:102C0300122C3A600FA3A3A3A3E014C394045004AB
:102C130079018002790002375774F612040F122CDF
:102C23003A600FA3A3A3A3E014C394025004790151
:102C330080027900023757120C0C8A828B83E5825B
:102C430045832274F612040F122C3A600BA3A3A33C
:102C5300A3E07004790180027900023757C082C073
:102C630083EAFCEBFD7A007B0002336BC082C083F6
:102C73007C007D0002336B74F412040F74F31209A9
:102C83005DEAFEEBFF8C0A8D0BC3EC94F8ED94FF29
:102C93004007EE4F7003022D33750800750900805D
:102CA3002E8518828519837401F012309E120B450C
:102CB3001230AC60137403120B45AC82AD83EEFA91
:102CC300EFFB121CD4E97049E5082401122ECC90C5
:102CD3002294E412527BE50898E509995052E508DD
:102CE30075F012A4F8AAF075F012E509A42AF912F6
:102CF3005DC060D4EE4F70A974FF650A700474FF61
:102D0300650B60C412308E650A7004A3E0650B7016
:102D1300B7E50875F012A4F508A8F075F012E509F7
:102D2300A428F50974112508FA74083509FB8004F1
:102D33007A007B000238F374F412040F74F312095F
:102D43005D750800120C128A0A8B0BAE0AAF0BEEEC
:102D53004F602A85188285198374011236B0F8A34F
:102D6300E0F9740B120B451237D1120BB27C127DB2
:102D73000079FFEEFAEFFB121542750801122B459D
:102D83005009900D6D7401F0120FB4A9080238F3C5
:102D930074F712040FE9FE74FE6A700374FF6B7814
:102DA30000790070058052122A17122E20504AE82B
:102DB300FCE9FDEC75F012A4FCAFF075F012EDA484
:102DC3002F122E2CF460E0E8FCE9FDEC75F012A460
:102DD300FC75F012EDA42FFD74112CF58274083DDF
:102DE300F583E06A7003A3E06B70BC8009122E3098
:102DF30014C394044017122A17122A0B5018EE70AA
:102E0300EC122E3064016005E0640370E912307F38
:102E1300FAA3E0FB80047AFE7BFF0236AB90229498
:102E230012416FC3E89CE99D22122F8022E8FAE940
:102E3300FBEA75F012A4FAACF075F012EBA42CFBCC
:102E430074152AF58274083BF583E022120C2402E0
:102E5300336EC082C083790180F274F012040F8A4A
:102E63000A8B0B7A047901120BE28A0C8B0DEA456B
:102E73000D603EEAC333FAEB33FB1215D88A088B95
:102E830009AE08AF09EE4F60237AFE7BFF120C2ACE
:102E930074FE6A700374FF6B601B85088285098367
:102EA3001236BBE5082402122ECC80E1750C00809B
:102EB300047E007F00850A82850B83E50CF0EEFA21
:102EC300EFFB024124E5082407F508E5093400F582
:102ED300092290229412416FC3EA9CEB9D22E49352
:102EE300FA740193FB221215367403221256E2E49C
:102EF300F090807F22E88E828F83A3A3A3A3A3A352
:102F0300A3A3122F1A7401122F1AA3F0EE24101286
:102F130056E5E4F0A3F022123B3AA3A3A322C08216
:102F2300C0837A007B00800419122F4B122ED550D8
:102F330010122F6AC3940550F0E970EC122F5480DD
:102F4300047A007B0002336EEA24010AEB3400FBAF
:102F530022EA75F012A4FA75F012EBA428FB74119F
:102F63002AFA74083BFB22EAFCEBFDEC75F012A491
:102F7300FCA8F075F012EDA428122F8022FD741521
:102F83002CF58274083DF583E02274F712040F7464
:102F9300F312095D7E007F00023032E50875F017F9
:102FA300A4F8A9F0126021FAA3E0FBEEF8EFF9E828
:102FB30075F012A4F8ACF075F012E9A42C12308D60
:102FC3006A7003A3E06B603FE50875F017A4F8AAE5
:102FD300F0EA126020F8A3E0F97401120B45E068EF
:102FE3007003A3E0696020E50875F017A4F8EAF917
:102FF300748D28FC740939FD7403120B45AA82AB46
:1030030083121CD4E96014E50875F017A4F8A9F03D
:10301300748B28FA740939FB1210E605089022A76D
:10302300E493F8E508C3985003022F9E123076907C
:1030330022941263675039EEF8EFF912307FF4707F
:1030430003A3E0F460E68518828519837401F0EE2A
:10305300F8EFF9E875F012A4F875F012E9A42AF96B
:1030630012309E120B451230AC60C175080080AD62
:103073000236A6EE24010EEF3400FF22E875F012AB
:10308300A4F8AAF075F012E9A42AF9123092227476
:103093001128F582740839F583E022741328F58228
:1030A300740839124113740B22E8F0A3E91237D9DB
:1030B300120BCAE922C082C0839003417488F0A333
:1030C300740EF002336E74F712040FEAFEEBFF90F6
:1030D3000377E06408601BE0640460168E828F83CC
:1030E300E054036401704812352C123C24E064065A
:1030F300703D8E828F83A3A3E064FE7003A3E0F48C
:10310300602D8E828F83A3A3123742900368E068F9
:103113007003A3E069700BEE2415F582EF125DA72F
:103123006008120F42E9F5088008120F4880F6750F
:1031330008C2EEFAEFFB1215DE0225E174F4120465
:103143000F8A088B098A828B83E0F8A3E0FAE82AC6
:10315300FAE43400FB1215D88A0A8B0BAE0AAF0BC4
:10316300EE4F6063850882850983E0FC7D0079006A
:103173001215428E828F83A3A31266DC120F848EF4
:10318300828F83A3A3A3A31236BB850882850983F9
:10319300E0F8EE28F8EF340012374A8508828509F3
:1031A30083A3E0C0E0EE240D1256D4D0E0F0120F5A
:1031B30096EE240E1256D4E9124D86E0C0E0EE24BA
:1031C300111256D4D0E0F0EEFAEFFB0238F874F4A3
:1031D30012040F74EB12095D8A088B098C0A8D0B9C
:1031E300E9FE900377E064046005E0640870047905
:1031F300C2802EA37808120B06EE90037E1233AC26
:10320300120B067405120B45E9F07404120B457496
:1032130001F07407120B45E4F09003777402123344
:103223000974150238F574F612040F74EB12095D74
:10323300EAFEEBFF1249A860030232CD7A077B0056
:103243001215D89003391236BB1249A860788E82C2
:103253008F83120B2290033A123C27120B2E126516
:10326300A0C0E01232D9D0E0F0EE2405FAEF34002A
:10327300FB8A088B098A82F583E0C0E01232D4D03E
:10328300E01238EFE0C0E01232D4A3D0E012372FBF
:10329300120B22851882851983120B2E888289834B
:1032A300E0C0E07405120B45D0E0F0850882850983
:1032B30083E0C0E07404120B45D0E0F07407120BF6
:1032C300451233088006791080027901741502379C
:1032D300541232D9A322900339E0FAA3E0F5838A8A
:1032E30082A3A3A3A322C082C0831249A8600D9026
:1032F30003391252B2900339E4F0A3F0120EB21262
:10330300108602336EE41237D9121D0A22C082C01E
:1033130083900338E07003121872120C6C804CC057
:1033230082C083900338E0900D6C7004E4F0802D2C
:103333007401F0900338E0F460237C41E0C39441CE
:103343005002E0FCECF8E0C398F0EC75F0E8A4CC94
:10335300A8F075F003A428FD7A801241777A6C7B7C
:103363000D7941121CF28003120C18D083D0820213
:10337300089174F412040F74EB12095D8A088B0927
:103383008C0A8D0B90037774011233AC120B067405
:1033930005120B45E9F07404120B457403F074072E
:1033A300120B4512330802322412373A780822747A
:1033B300F712040F7C01120C7E0236AB74F2120476
:1033C3000F74FC12095DE9851882851983F0EAFE02
:1033D300EBFF8C0A90037512445D120EA68A088BCC
:1033E30009EA4509700579CA0235278A828B83A3C6
:1033F300A3A3A3A3A3A3E064FE7003A3E0F4700557
:1034030079C3023527900375124E251210EC8508F7
:1034130082850983A3A3A3A3A3A3A3A3A3A3E004D4
:1034230090038812368A7402120B457402F0141248
:103433000B45AA82AB83120FF08A0C8B0DAE0CAF37
:103443000DEE4F700302351E12352C123D99740692
:10345300F0A3A882A9839003621252EF1240F2F004
:10346300EE24131256D474011251317440F0A3E4C4
:10347300124D7FA3A312353912374EEE2411125683
:10348300D4E50AF0EEFAEFFB120C48E9FE60030202
:1034930035209003777409F0122EC8AA08FB794BE4
:1034A300121CF285088285098312367C12374E90EE
:1034B300036AE0F8851882851983E068600CE09060
:1034C300036A1237D579E1121CF2900DA712374225
:1034D300900DA9E0687003A3E069601A90033B12A2
:1034E300374E900DA9124E25120FAE900DA912441E
:1034F3005D7A011241777A007B049003C2E0F912EE
:103503001698900DA912353174027808120A28AC66
:1035130008AD09FA7B0412417980027E10900541BF
:10352300E4F0EEF97404024C1DEE1256E322E0F5CA
:1035330008A3E0F5092212353D22122821A32274A3
:10354300F512040F74E212095D851882851983EC64
:10355300F0A3EDF0EAFEEBFF89087429120B45E0B6
:10356300F509742C120B45E0F50A900377E0640427
:103573006005E06408700579C2023674742A120B80
:1035830045E064FE7003A3E0F4700579C30236746A
:1035930090037774031237D57950121CF2742A12F0
:1035A3000B45AA82AB83794B121CF28518828519CD
:1035B3008312368312374EE50890036AF0742A1299
:1035C3000B4512367C12374EE50990036212368A98
:1035D30074CE55094480C0E07412120B45D0E0F05C
:1035E3007401250A900388F0740F120B457402F0DE
:1035F300742A120B451237427407120B45E8F0A3E5
:10360300E91236C17410120B4512374E7405120BB2
:1036130045E508F0741B120B45E4F090037D740F2D
:10362300F07A7D7B037954121CF290037C740FF0C3
:103633007A7C7B037947121CF290037CE0C3940FDE
:1036430050237405120B45E0C0E07402120B45D001
:10365300E0F07404120B457401F004120B45AA82C6
:10366300AB83121D167405120B45AA82AB83121C81
:10367300F8741E1208DF0224A812411590036B226E
:1036830012411590037522F0EEFCEFFD7A897B035E
:10369300121CDA2274F712040FEB90037FF0120E60
:1036A300948005740D1208DF7F0102066F1236B68F
:1036B300A3E02212372FA322EAF0A3EBF022123762
:1036C30035F8A3E0F92274F712040F74F812095DB8
:1036D300EAFEEBFF7900900377E0640870448518F5
:1036E3008285198374FDF0A374FFF0120F7E7402B8
:1036F300120B451236BB7405120B45E41236B6E0C5
:10370300C0E07404120B45D0E012372AC0E07406FF
:10371300120B45D0E0F07407120B45E41237D512B3
:103723000FD274080236A812372FE022F08E828F50
:10373300832212373AE022F08518828519832212F8
:10374300411522E0F8A3E0F91256E2E8F0A3E9F00C
:10375300221208DF7F0202066FC082C083900349F2
:103763007438F0A3740DF09003EF742CF0A374106D
:10377300F090034D746EF0A3740DF090034F743802
:10378300F0A3740DF09003517474F0A3740DF00260
:10379300336E74F412040F74F912095D8A088B09ED
:1037A3008C0A8D0B8518828519837808120B067491
:1037B30004120B45E9F07405120B45E4F07406128C
:1037C3000B45E41237D5120C5A74070238F5E8F0AA
:1037D300A3E91237D92212373AAA82AB832274F4AF
:1037E30012040F8A088B098A828B831256F0EE4FDC
:1037F30070030238ED9003121249AB60158A828B75
:1038030083A3A3E0F9EEFAEFFB900313123C271214
:103813001EB38E828F83A3A3A3A3A3A3A3A3A3E017
:10382300640270748E828F83A3A3A3A3A3A3E05423
:103833000270030238BF850882850983A3A3E0646D
:10384300E960798E828F83A3A3A3A3A3A3A3A3A3D6
:10385300A3E07014900DBCE0048E828F83A3A3A316
:10386300A3A3A3A3A3A3A3F08E828F83A3A3A3A342
:10387300A3A3A3A3A3A3E0141238EFA3A3A37404E5
:10388300F0900DBD12512BE8F0A3E91262048B0BEB
:10389300EA450B7003125BE28E828F83A3A3A3A37B
:1038A300A3A3A3A3A3E0640260128E828F83A3A3C6
:1038B300A3A3A3A3A3A3A3E06406702E8E828F8386
:1038C300A3A3A3A3A3A3E0A2E0501F8508828509B5
:1038D30083A3A3E0F9EEFAEFFB121D9A8E828F8386
:1038E300A3A3A3A3A3A3E054FEF08009123B3622B3
:1038F300740D1208DF7F0402066F74EC12040F7458
:10390300DD12095DEAFEEBFF8C088D097437120B9B
:1039130045780C120AE8750A007405120B45AC824F
:10392300AD831214AC7412120B45E07008741512B7
:103933000B45E060207405120B45E0A2E6501E8E95
:10394300828F83A3A3A3A3A3A3A3A3A3124E25128E
:103953001008E960087903121CC2023B1C740512AB
:103963000B45E0540C64047005750B018003750B63
:1039730000E0A2E55035750A01E50BA2E0402C12E8
:103983000F848A108B11A810A91112352CE06870CE
:1039930003A3E06960157405120B451266E3124E2A
:1039A30021121DA6E96004790480AC7405120B454D
:1039B300E0A2E650227406120B45E054037018741B
:1039C30005120B45E0540C640C600CE0540C6408C5
:1039D300600575100180037510007405120B45E036
:1039E3005403F8740268700C1266E3124E21120B32
:1039F30064023B1C740168703AE510A2E0500312A4
:103A03003B247405120B45A882A9837403120B454A
:103A1300E8F0A3E9124109851882851983123B2E28
:103A2300E0C0E07402120B45D0E01237D5121E8AB3
:103A3300023B1CE86003023B1C90035FE0640170DF
:103A4300108E828F83A3A3A3A3A3A3E070030239E1
:103A5300AA7422120B457402124109741A120B45FF
:103A630012374EE510A2E050087405120B45123BC5
:103A730024E50BA2E0506AEE240FF582EF125DA756
:103A8300C0E07417120B45D0E0F09003141249AB59
:103A93007003023B1C120F848A128B13A812A91302
:103AA300741A120B45E0687003A3E069706B780C1D
:103AB3001208C4780A1208D078081208CCA9107426
:103AC3000C120B45AC82AD837421120B45AA82AB59
:103AD30083900314123C24121EB374071208DF8070
:103AE30038780C1208C4780A1208D078081208CC67
:103AF30090037512073CEE2412F582EF125AD57427
:103B030023120B45AC82AD83740E120B45AA82AB14
:103B130083121D8E74091208DF74231208DF0261F9
:103B2300CF1266E31252C0120B5822E8F0A3E91237
:103B33003B3622123B3A22F08E828F83A3A3A3A3A8
:103B4300A3A32274F712040F1217640236AB74F79F
:103B530012040F1217760236ABC082C0831217709D
:103B630002336E74F712040F12177C0236AB74F72C
:103B730012040F7409120B45E0F50878081208D0F7
:103B830012178874010236A8C082C08312179402E8
:103B9300336EC082C08312179A02336E74F7120415
:103BA3000F1217A00236AB74F712040FEAFEEBFFF5
:103BB30089087401650870147900120DB09022B25F
:103BC300E493FC7900EEFAEFFB120D260236AB7498
:103BD300F412040F74F912095DE9FE8A088B098C4B
:103BE3000A8D0B7413120B45124E2590058D124945
:103BF300AB6027EE851882851983F07401120B459B
:103C03007808120B06EAF8EBF97405120B45123724
:103C1300D190058D123C24121EB30237CCFB9003C6
:103C23004BE0F8A3E0F58388822274F712040F9027
:103C33000D6FE0F97E00800B125D93540D640170EB
:103C430001190E123E275003E970ED0236AB74F7EB
:103C530012040F900D70E0F97E00800B125D9354F7
:103C63008D64817001190E123E275003E970ED0235
:103C730036AB74F212040F890BE975F006A4240C19
:103C8300F508E5F0122ED08A0CE508250CFAE509B3
:103C93003400FB1215D88A0C8B0DAE0CAF0DEE4F12
:103CA3006027AC08AD09790012154212352CE50BDB
:103CB300F0EE2508F8EF3509F98E828F83A3A3A3CD
:103CC300A3A3A3A3A3A312374EEEFAEFFB024C2048
:103CD30074F612040FEAFEEBFF120D02900D6EE074
:103CE300F8E9C3984009900345124E25120D08EEDA
:103CF3002402F8EF1254359003471252EF90034712
:103D0300E004F0EEFAEFFB120D0E850882850983BD
:103D1300E00258EBC082C08379009003458001091B
:103D2300124E258A828B83E582458370F202336EBD
:103D330074F712040FEAFEEBFFEE4F605690034553
:103D43001249AB604E888289837A007B00EE6582DC
:103D53007003EF6583600FAA82AB83123D99E582FE
:103D63004583602F80E7900345123DA5687002EFFD
:103D7300698E828F83700812374290034580031245
:103D830061E112374EEEFAEFFB121E5AEEFAEFFB29
:103D93001215DE0236AB123D9D221241198882892B
:103DA3008322124115EE22C082C083900345800412
:103DB300888289831249AB600B8882898312445DB0
:103DC300EC4D70EC8A828B83E4F0A3F0E849600643
:103DD3008882898380039003451236BB02336E7455
:103DE300F712040F90034580048A828B83123E22CC
:103DF3004B60257E0080010E123E2750ECEE75F0DD
:103E030006A4FCADF0EA2CFCEB3DFDEC2410F5829E
:103E1300ED123E7770E180047A007B000236AB122C
:103E230052C4EA22123E80EEC3982274F712040FA2
:103E33007D0080010D123E7CEDC3985034ED75F08A
:103E430006A4FEA8F0E8FFEA2EFEEB3FFFEE2410E7
:103E5300F582EF123E7770DCED75F006A4FEE8FF05
:103E6300EA2EFAEB3FFBEA2411F582EB125DA74C35
:103E7300F00236AB125DB36922123E80221266ED68
:103E8300EB3400F583E0F82274F612040F120E28C7
:103E93007A007B008025EAF8EBF9E875F006A4F8D0
:103EA300ACF075F006E9A42C1252991265AEA3E4A6
:103EB30012538FF0A31265B412672B90229C122B1E
:103EC3004F40D37A007B00801C8A088B09740378E7
:103ED30008120A28124D4DA374FEF0A30412516F69
:103EE300A3E412672B9022A6123F2A40DC7A007BC0
:103EF30000801D8A088B0974037808120A2874B39A
:103F0300125A1F740C12626674FEF0A30412672B1C
:103F13009022AC123F2A40DB9022B0E493900353EB
:103F2300F0123F34023757E493F8C3EA98EB940056
:103F3300227CE87D037A107B009003C2E0F912161D
:103F4300922274F012040F74F512095D8A088B092A
:103F5300890A8C0BE9A2E050147508FC7509FFA2CD
:103F6300E15005D2E4024007D2E3024007124C0CB1
:103F73007003A3E069700579000240D4AC0A7902AA
:103F8300AA08AB09120E04E960EDE50AF50C780CFA
:103F93001208D079027CFE7DFFAA08AB091249877B
:103FA3001208DFE960030240D2E50AC2E5F50A9090
:103FB30003B5E07051E50AA2E6404B7403120B45CA
:103FC300AC82AD83AA08AB09120BA6E97032124288
:103FD300A88A0C8B0DA80CA90DE8FEE9FFE849603F
:103FE30025EE24020A0AEF12285F601AEE2402FC6F
:103FF300EF3400FD7403120B45AA82AB83121CDA63
:10400300E50AD2E5F50A900348E0F50C900368E071
:10401300F50EA3E0F50F780E1208CC7D017C00901D
:104023000348E0F9AA0EAB0F120DBC74021208DFAD
:10403300E9F8900348E004F0E860030240D2E50A9F
:10404300A2E55004740E80027406C0E07401120BE2
:1040530045D0E01257018A0E8B0FAE0EAF0FEE4F15
:1040630060691240F2124109888289837401F074F5
:1040730078550AA31266F3E50C1266F3A3E508F07C
:10408300E5091240E1E4F0E50AA2E5500F740312DA
:104093000B45AC82AD83E824061240D88E828F8311
:1040A300A3A374FDF0A374FFF0E50B60159022B396
:1040B300E493F8E50BC3985009EE24131256D4E5A4
:1040C3000BF0EEFAEFFB120C4880067910800279B0
:1040D300C7740B8049FAE93400FB121CDA22888288
:1040E3008983A3A3A3A31240ED22125468A322EE53
:1040F30024171256E57401F0120F7EEE241A12569D
:10410300E5EAF0A3EB22F01266E734001241132232
:10411300F58312411922E0F8A3E0F922740D120885
:10412300DF7F0802066F74F612040F7A007B101209
:104133005BEF60089003D47401F0802990062CE0B3
:104143006401900DBA7006E0FC79018004E0FC790B
:10415300037A007B00120D2690229A12416B7A009B
:104163007B1012417902375712416F22E493FC749A
:104173000193FD227B009003C2E0F912168C227496
:10418300EC12040F8A088B098C0C8D0D890E7414A4
:10419300120B45124B667416120B45E0F510A3E0A3
:1041A300F511121008E960077AFF7BFF0242A59020
:1041B3000DB9E0640260030242987900AA08AB09D2
:1041C300120E0AA90E120DFE8A128B13AE12AF1332
:1041D300EE4F70030242808E828F83A3A3A3A3A317
:1041E300E064018E828F83A3A37069124E258E82B1
:1041F3008F83A3A3A3A3A3A3E0541860439022B186
:10420300E4938E828F83A3A3A3A3F0EA650C7003C8
:10421300EB650D6014EA650A7003EB650B600AEA4F
:1042230065107003EB6511701F78101208CCAC0A8F
:10423300AD0BAA0CAB0D12110474021208DF800837
:10424300900367125BD9A3F074FE6A700374FF6B6B
:10425300601D804EA3A3A3E0640360298E828F8335
:10426300A3A3A3A3A3E0640470057AFE0241AD8E69
:10427300828F83A3A3A3A3A3E0640270089003B473
:10428300E0640270101242A88B0BEA450B6006AA89
:1042930008AB09800DAA08AB09900349123C24120C
:1042A3001EB30261CF90037512498D1210C8227498
:1042B300F712040FEAFEEBFF120BFAE9700AEEFAAB
:1042C300EFFB120C06E96006EEFAEFFB80047AFEC0
:1042D3007BFF0236AB74F012040F8A0A8B0B8C0E31
:1042E3008D0F8909750800121008E979006003022F
:1042F300444FAA0AAB0B120E0AA909120DFE8A0C2F
:104303008B0DAE0CAF0DEE4F60198E828F83A3A37E
:10431300A3A3A3E0640270559003B4E064027003A6
:1043230002444DAA0AAB0B90034F123C24121EB356
:10433300120C0C8A0C8B0DA80CA90DE84970030212
:10434300444D88828983A3A3A3A3A3E0A2E04003EF
:1043530002444D750C01A2E150687901AC0AAD0B22
:10436300AA0EAB0F120D56E9706402444D8E828F74
:1043730083A3A3A3A3A3E064037005750C02805277
:104383008E828F83A3A3A3A3A3E0640160030244EB
:104393004D90037512445D8E828F831247B28A0C4F
:1043A3008B0DA80CA90DE84960D19022AAE493FAD9
:1043B30088828983E0C39A50C2A3E0600302444D1C
:1043C30080B988828983A3A3A3A3A3D2E1F0EE4F8C
:1043D300603A8E828F83A3A3A3A3A3A3E0541860A0
:1043E3002B7508018E828F83A3A312073C750CFEE5
:1043F300750DFF780C1208CC7900AC0AAD0BAA0E30
:10440300AB0F120E1C74041208DF803E900368E0A9
:10441300650E7004A3E0650F70149022B2E493FC60
:10442300A909AA0AAB0B120D26750801801CA90C59
:10443300AC0AAD0BAA0EAB0F120D56E9700C750842
:1044430001A909AA0AAB0B120DB0A908024124E580
:104453000C2415F582E50D1256E81251452274EA33
:1044630012040F74F012095D8A0C8B0D8C088D09F0
:104473007426120B45E0F514A3E0F51575120690AA
:1044830003F51249AB602390037512445DAA08AB90
:10449300091210F28A108B11EA4511600D8A828B82
:1044A30083A3E07005790002479AE50C241DF50EFD
:1044B300E50D3400F50F850E82124997F5138882B6
:1044C3008983A3A3A3E0FA88828983A3A3A3A3E098
:1044D300F9EA2400FEE439FFAA08AB09120DB685F8
:1044E3000E82850F831247D5E029F50BE50AA2E575
:1044F300500375120E7487550A70177418550A64A1
:1045030018600FE50C2417F582E50D125DA76512FF
:1045130060077901121CC2808C530A78C3EE94F8A9
:10452300EF94FF501D7900EEFAEFFB1247A46012DF
:1045330088828983A3A3A3A3A3A3E05418600302DF
:1045430044A878081208CC7D001247C81208DFE996
:10455300F874036870030244A8E860030246137406
:1045630018550A70030246C8E50AD2E0F50AA2E428
:104573005004D2E1F50AA90A124E1E1247A4605351
:1045830088828983A3A3A3A3A3A3E05418604488C8
:10459300828983A3A3A3A3A3E064017036E5104536
:1045A30011603090037512445D888289831247B28B
:1045B3008A0E8B0FA80EA90FE8496017888289839A
:1045C300A3E0600F851082851183A31258F6500370
:1045D3000244A8E50AF50E780E1208D01247BB1262
:1045E30008DFE9702B7C007D0085148285158374B8
:1045F300FFF0A3F0850C82850D83A3A3A3A3A3A33C
:10460300A3A3E06003124452A90B124E1E12178E8D
:10461300851482851583E0F47003A3E0F460399078
:1046230003B4E0640270030244A8124B57E0FAA3F8
:10463300E0123C20121EB3EA65087003EB650960C3
:10464300030244A8EEFAEF123C20121EB385148233
:10465300851583EAF0A3EBF078081208CC7D0112EC
:1046630047C81208DFA90AEEFAEFFB120E0A8A08FE
:104673008B09A808A909900368E0687003A3E0699F
:10468300600302478BEEFAEFFB120C0C8A088B09CE
:10469300A808A909E849606E88828983A3A3A3A314
:1046A300E06401600D88828983A3A3A3A3E064026D
:1046B3007054851882851983AC82AD83EEFAEFFBC3
:1046C300120BA68055900361E0600FE50AF50E78A2
:1046D3000E1208D01247BB1208DFE50AF50E780E5A
:1046E3001208D079027CFE7DFFEEFAEFFB124987B8
:1046F3001208DFE96003024613851482851583746B
:10470300FFF0A302465A120F7EEAFCEBFD851882E6
:10471300851983AA82AB83121CDA850C82850D83EB
:10472300A3A3A3A3A3A3A3A3E06401700F12445202
:104733007408120B45AA82AB83121CDA1249611268
:10474300556D4430F50878081208D07401120B45F2
:1047530085820885830978081208CC740B120B45EF
:1047630085820885830978081208CCE513F5087853
:10477300081208D07900EEFCEFFD124E1E120D5008
:1047830074061208DF0244A81249611256D7124771
:10479300D5E50BF0120F9674101208DF7F0E020698
:1047A3006F120DFE8A0E8B0FA80EA90FE84922A3E4
:1047B300A31252C41210F2227901AC08AD091252AD
:1047C300B912498722AC0BA9131252B9120DBC744A
:1047D3000222125575A3A3A3A32274F012040F742B
:1047E300F012095D8A0C8B0DECFAEDFB750F089046
:1047F30003F51249AB60141258EF8A828B83E5826A
:1048030045836007A3E0700302495C1249613400E9
:10481300124997F50B8882898312496AE0FBEC24DD
:1048230000FEE43BFF88828983A3A312496AA3A302
:10483300E0FBECF508E43BF50988828983A3A3A395
:10484300A3A3A3A3E0F50EE50AA2E45003750F109A
:10485300A2E550067408250FF50F748F550A700FE3
:10486300E50C2417F582E50D125DA7650F60087945
:1048730001121CC202495C530A707800E50AA2E4E3
:104883005022124961125DA72408FCA3E03400FD05
:104893007408120B45AA82AB83121CDA7808E50A66
:1048A300C2E4F50AE50AA2E55028124961125DA7A0
:1048B30028F8A3E03400F9E82408FCE93400FD8576
:1048C3001882851983AA82AB83121CDAE50AC2E532
:1048D300F50AAC0EA90BEEFAEFFB120DC2E9F87460
:1048E30003686075900368E06E7003A3E06F605E19
:1048F300E87054E50AF50F780F1208D012497812C0
:1049030008DFE97054780A1208D07401120B458548
:10491300820C85830D780C1208CC740B120B458521
:10492300820C85830D780C1208CCE50BF50A780A06
:104933001208D0A90EAC08AD09EEFAEFFB120D5028
:1049430074061208DF8012740468700D80B7780A49
:104953001208D01249781208DF7410024121E50CC5
:10496300241DF582E50D22A3A3A3E0FC888289839D
:10497300A3A3A3A3227901124B5E1256E812498D19
:1049830012498722120D7A740122E0FCA3E0FDAAEA
:1049930008AB0922F583123D9DA3E0F50A888289BD
:1049A30083A3A3E0229003391253202274E8120454
:1049B3000F74F512095DEAFEEBFF8C088D0989146B
:1049C3007423120B45E0F50F7424120B45E0F51226
:1049D300A3E0F5137426120B45E0F516A3E0F517D3
:1049E3007428120B45E0F50EA90F120DC88A108B1F
:1049F300117401120B457408F0E50EA2E450037420
:104A030010F0E50EA2E55004E02408F08518828535
:104A13001983AA82AB83120FF08A0C8B0DEA450D22
:104A23007003024B3EEA2417F582EB124B50120F30
:104A33007EE50C241AF582E50D1256D71236BB74A7
:104A430003120B45AC82AD83AA10AB11120BA6E97E
:104A5300601D124B487403120B45A882A983E50C11
:104A63002418F582E50D1256D7E8F0A3E98024E572
:104A73000EA2E4501FE5106E7003E5116F7015125E
:104A83004B48E50C2418F582E50D1256D7E512F0D4
:104A9300A3E513F0124B57124B66850A82F5837414
:104AA30002F0A3E50E124B6EE50FF0EE850A828548
:104AB3000B83A3A3A3F0EF850A82850B83A3A3A390
:104AC300A3124B6EA3A3A3E508F0E509850A82852B
:104AD3000B83A3A3A3A3A3A3F0AA10AB11120DB638
:104AE300E92514850A82850B83A3A3A3A3A3A3A308
:104AF300F0750800E50EA2E45011AC12AD13E50AFF
:104B03002408FAE50B1240DA750808E50EA2E55011
:104B130014AC16AD17E50A2508F8E50B3400F9E8DF
:104B230024081240D8850C82850D83A3A3E510F0D9
:104B3300A3E511F0AA0CAB0D120C48740B1208DF9D
:104B43007F1002066FE50C2416F582E50D1256E878
:104B53007401F022124B5E1256E822E50C1266EE47
:104B6300E50D22E0F50AA3E0F50B22F0850A828524
:104B73000B83A3A32274F212040F8A088B09ECFEA1
:104B8300EDFF890A7900124C0C7003A3E0697004ED
:104B930079018073750B01900368E065087004A3C5
:104BA300E06509601F750B00780B1208D0A90AEEA7
:104BB300FCEFFDAA08AB0912104474011208DFE9E7
:104BC300F50B80417900EEFAEFFB120DFEEA4B6024
:104BD3002B8A828B83A3A3A3A3A3A3E05418601CF3
:104BE3007508FE7509FF78081208CC8A828B83A3A7
:104BF300A312073C1265031208DF80097901EEFA5C
:104C0300EFFB120CDEA90B8014120E0A8A0C8B0D1B
:104C1300A80CA90D900368E068221208DF7F060242
:104C2300066F74F412040F7508FB75090A7A1012E3
:104C3300620B8B0BEA450B7003123F34900353E076
:104C430014F0700C9022B0E493900353F0120E16FC
:104C53007E007F00806C850882850983A3A3A3A3BC
:104C6300E06059F46056E5082404F582E509125B17
:104C7300D37049850882850983A3A3A3A3A3E06412
:104C8300037019790285088285098312445D8508BA
:104C930082850983A3A3124E25120D5685088285AA
:104CA3000983A3A3A3A3A3E06401601085088285FD
:104CB300098374FEF0A304124D7FE4F012307612E0
:104CC3002EC890229E126367408C7E007F0080393D
:104CD300120F248E088F0974037808120A2874733C
:104CE3002508FC740C3509FD7A627B0D120F12EA5C
:104CF3004B70DD8E088F0974037808120A28124D51
:104D03004D1265AEE4F01230769022A6E493F8C318
:104D1300EE98EF9400501B8E088F097403780812E5
:104D23000A28124D55E82407F582E9125BD370D6A1
:104D330080A17E007F00800A124D60600214F01291
:104D4300307612636440F10238F8124D5588828937
:104D5300832274732508F8740C3509F922EEF8EFF1
:104D6300F9E875F006A4F8AAF075F006E9A42AF9A3
:104D7300741328F582740C39F583E022124D86A34F
:104D8300A3A322F0850882850983A3A32274F712C3
:104D9300040F74E112095DECFEEDFF750800EE4FA0
:104DA30060728A828B83E0241C125C041249AB601C
:104DB300638A828B83124E25851882851983AC8280
:104DC300AD83EA241BF582EB125AD5EA241CF58243
:104DD300EB124E21120F66740B120B45124E297003
:104DE30003A3E069702E7402120B45E06401702482
:104DF300741D120B45123C24E064017017741D12DC
:104E03000B45123C26A3A3E0F88E828F83E06870E3
:104E130003750801A908741F0236A8124B5E3400FB
:104E2300F5831252C42212281DE0682274F412047E
:104E33000FE97024790090034D123C24121EB38AAB
:104E43000A8B0BAE0AAF0B74FE6E700374FF6F70A8
:104E53001A9022ADE4936013790190034D123C2420
:104E6300121EB38A0A8B0BAE0AAF0B120FB40231B8
:104E7300CA74F612040F74F312095D12154E8A08F0
:104E83008B09AE08AF09900368E06E7003A3E06F6F
:104E930060E9120F8AEA6E7002EB6F60DEEEFAEFE2
:104EA300FB121008E970D4EE4F60D0851882851983
:104EB30083E4F004120B45EEF0A3EF124ED7E97032
:104EC300BA74FE6E700374FF6F60B0EEFAEFFB749A
:104ED3000D0237541237D9120BBE22C082C083127F
:104EE3000FB402336E7F0A02066F74F212040FEAE4
:104EF300FEEBFF8C0A8D0B8908740E120B45E0F54F
:104F03000974FC6E700374FF6F70057900024C2006
:104F13007900120E0A8A0C8B0DAE0CAF0D9003684C
:104F2300E06E7003A3E06F7006E509A2E650DCA90A
:104F3300091263F1706179007AFE7BFF1263F170ED
:104F430056741855097003025024780079008003C1
:104F5300122A1790229E122A0E4003025024E8FAC6
:104F6300E9FBEA75F007A4FAACF075F007EBA42CA3
:104F7300FB74012AF582740B3BF583E0541870D05F
:104F8300E875F007A4F8AAF075F007E9A42AF97404
:104F9300FB28F8740A39F988828983A3A3A3A3A3FE
:104FA300A3E054186009741855097003024F0E8862
:104FB300828983EEF0A3EFF074FE650A700474FF38
:104FC300650B600312514B88828983A3A3A3A3A318
:104FD300A3E509F0A2E0500D88828983A3A3A3A3CC
:104FE300A3A3D2E2F07401650888828983A3A3A3F3
:104FF300A3A37038740112516FE0541860289022F3
:10500300B1E49388828983A3A3A3A3125139121015
:10501300F28B0DEA450D6003024F0E780079008094
:10502300397902024F10900367E080D7E064017082
:1050330003024F0E88828983A3A3A3A3A3A3E054EF
:105043001860079022B1E4938004900366E0124055
:10505300E1E508F0024F0E122A179022A7E493FA13
:10506300C3E89AE994004003024F0E7A007B008064
:105073004BEAFCEBFDEC75F007A4FCAEF075F00712
:10508300EDA42EFD74FD2CF582740A3DF5831256B2
:10509300F0E8FCE9FDEC75F017A4FC85F00975F068
:1050A30017EDA42509FD748B2CF58274093DF58356
:1050B300E06E7003A3E06F609E122F4B90229E124E
:1050C3002ED840AD12416BEC6A7002ED6B7088E82C
:1050D30075F017A4F8AAF075F017E9A42AF9748BF0
:1050E30028FE740939FF7C177D007900EEFAEFFB87
:1050F3001215428E828F8312515190037512512BD8
:10510300A3A3A3A3A3A3E8F0A3E91251317401F06D
:10511300EE240E1256D474011251591202BEEE241B
:105123000D1256D4E802505612353DA3A322F0EED9
:10513300240F1256E522F0125142AA0AAB0B229019
:105143000375E0FCA3E0FD2288828983A3A3E50A1B
:10515300F0A3E50BF022F012515E229022AAE49311
:105163002401F8E43400F97A027B00221240EDA313
:105173002274ED12040F8A088B09890E1252A24081
:105183000579050252701217D6AA08AB0912537497
:1051930090229C125273650A7003E9650B70077ABB
:1051A300FE7BFF12537490229CE412527BE50A9813
:1051B300E50B99400302526E12527F6012E50A75A5
:1051C300F006A4F875F006E50B1252CA1215DEE5D7
:1051D3000E6018E50A75F006A4F8AAF075F006E566
:1051E3000B1252F6701A7901025270E50A75F00635
:1051F300A4F8AAF075F006E50B1252D7E4F0A3F079
:10520300E50A75F006A4F8AAF075F006E50B12524C
:1052130097A312558388828983A3AA82AB831252F0
:10522300E58A828B83E0603F12527F603A8E108F53
:105233001175120078101208C8E50EC333FCE4336D
:10524300FDE50A75F006A4F50AA8F075F006E50B6E
:10525300A428F50B7417250AF582740C350B124E2E
:1052630023122EE91208DF7900800279070264070E
:10527300122B70E822902294125D8E22E50A75F0BB
:1052830006A4F8AAF075F006E50B1252D2F8A3E0D3
:10529300F9E84922A42A12542B88828983A322EC99
:1052A300FEEDFF9022A8E493F8E9C39822F5831258
:1052B30052C41215DE22E50C1266EEE50D3400F53C
:1052C30083E0FAA3E0FB221252D2FAA3E0FB2212FC
:1052D30052D7E022A42AF9741728F582740C39F501
:1052E3008322E50EF0900DBB1252EF22E0888289F3
:1052F30083F02212544FF50CE93400F50DE50EC38B
:1053030033FAE433FB1215D8850C82850D83EAF05A
:10531300A3EBF0850C82850D8312532022124119D1
:10532300E8492274F412040FECFEEDFF740C120B27
:105333004512374288088909125374AC0AAD0BEC45
:10534300F8EDF990229C12537C5021E875F006A4E5
:10535300F8AAF075F006E9125297E08E828F831255
:10536300538F12538512374E790080027904023825
:10537300F8120D8C8A0A8B0B22122EE1C3EC9AEDE4
:105383009B221241158508828509832212546422C7
:1053930074F612040F7E007F008028EEF8EFF9E820
:1053A30075F006A4F8ACF075F006E9A42CF97415B1
:1053B30028F582740C1260126A7003A3E06B6057C5
:1053C30012307612636440D312635F7002E96F7028
:1053D3004674FE6A700374FF6B703C7E007F00802E
:1053E30003123076126364502E124D6070F3EEF8A0
:1053F300EFF9E875F006A4F8125421125456601719
:1054030012543DF8E912543588821252B08508824D
:10541300850983E4F0A3F0EEFAEFFB02375775F04A
:1054230006E912542922A42AF9741328F8740C39B2
:10543300F9223400F98808890922EEF8EFF9E875B2
:10544300F006A4F875F006E912544F22125429E825
:10545300240422A3A374FE12546112532022F0A346
:105463000412546822F088828983A3A3A3A322741D
:10547300F612040FEA241DF582EB12556DF9604B09
:10548300EA241DF582EB125DA72402FCA3E034009D
:10549300FD1252A64003025560780080298C828D4C
:1054A30083E0F508A3E0FFE5082400E43FF509E8FD
:1054B30033FEE433FF745B2EF582740C3FF58312E5
:1054C300558312556308E8C39940D28A828B83A31C
:1054D300A3A3A3A3A3A3A3A312445D900368E06CB7
:1054E3007003A3E06D700F7C5B7D0C122786124E58
:1054F30021120D808067EA2411F582EB125DA7600B
:105503005CFC74FF2CF075080178081208D075084C
:105513005B75090C78081208CCE9F50878081208BD
:10552300D0EA2412F582EB125DA7F5087808120879
:10553300D0EA2415F582EB1256D712073CECF91288
:10554300278612445A8A828B83A3A3A3A3A3A3A36C
:10555300A3A3124E25120D9874071208DF023757C2
:10556300EC24020C0CED3400FD221256E8125575A2
:10557300E022E0F8A3E0F5838882A322888289836E
:10558300E508F0A3E509F02274EA12040F74FD1292
:10559300095D8A148B158C0E8D0F890D7419120BEE
:1055A300451256F0741B120B45E0F511741C120BD7
:1055B30045E0F50C741D120B45124B66741F120B5C
:1055C30045E0F5106008E50CC3332404800274023F
:1055D300C0E07401120B45D0E01257018A088B0911
:1055E300EA450970030256CC8A828B83A3A3E51490
:1055F300F0A3E5151261FAE50EF0A3E50FF0EA2436
:1056030013F582EB1256D7E50DF0EA2414F582EB7D
:105613001256D7E511F0EA2417F582EB125DA76461
:10562300017040120F848A0E8B0FA80EA90F8508F4
:1056330082850983A3A3A3A3E0687003A3E0696041
:1056430022EE4F6011E508241AF582E5091256D7B8
:10565300EEF0A3EF800CE5082417F582E509125656
:10566300D7E4F01256DB1256F08E828F837405F066
:10567300A3E5107004E50C80487401250C1256FA5A
:105683007A008028850A82850B83E01256F6850A04
:1056930082850B83A3E08E828F83F0E50A2402F5D3
:1056A3000AE50B3400F50BA30EAF830AEAC3950C8E
:1056B30040D2120F84EA1256F6120F84EB8E828FB9
:1056C30083F0AA08AB09120C48740302479CEE242A
:1056D3000CF582EF1256E8221227971256E822EEB3
:1056E300240BF582EF3400F58322900334E0FEA30C
:1056F300E0FF228E828F83F0A3AE82AF8322123724
:10570300D9120FF022C082C083E9C333FCE433FD16
:10571300EA2CFAEB3DFBEA24FEF582EB34FF124E52
:105723002302336E74F212040F89098A0A1252A2F9
:1057330040047900804075080080020508E508C32D
:105743009509502AE508C333F8E433F9EE28F582C6
:10575300EF39F583C082C083120F848A0C8B0DD07E
:1057630083D082E0650C7004A3E0650D70CDE50A7B
:10577300650870BE7901024C2074F012040F74F3B3
:1057830012095D8A088B098C0A8D0B890C750D0033
:10579300121008E97900600302587EAA08AB0912C7
:1057A3000E0AA90C120DFE8A0E8B0FAE0EAF0FEE72
:1057B3004F700302587C8E828F83A3A3A3A3A3A35A
:1057C300E0A2E2400302587C120F84EA650A7003E8
:1057D300EB650B7011780D1208D0E4F50EF50F7818
:1057E3000E1208CC8044AA0AAB0B120C00E9640128
:1057F30070688518828519837404F07401120B454F
:10580300125151851882851983AA82AB83120BBE6C
:10581300E964017045750D01780D1208D0E4F50EA9
:10582300F50F780E1208CC750D00780D1208D0789C
:105833000D1208D07408120B4585820E85830F78EC
:105843000E1208CC9022B3E493F9AC0AAD0BAA086C
:10585300AB09120D9874071208DF8E828F83A3A3FE
:10586300A3A3A3A3E0A2E1400D8E828F83A3A3A3EE
:10587300A3A3A3C2E2F0750D01A90D02411F74F6A3
:1058830012040FE9FE7900120E0AEEF9120DFE8AD8
:10589300088B09A808A909E8496006126735F98049
:1058A30002790402375774F612040F7E0790035CE3
:1058B300E070341258EF8A088B09A808A909E8494F
:1058C3006025900361E0640188828983A3A3700B40
:1058D3001258F6888289835001A3A3E0F9121110AC
:1058E300E9FEEE70027E07EEF902375712514212BB
:1058F30010F222E0FA88828983A3E0C39A2274EE2D
:1059030012040FEAFEEBFF890A8C0C8D0B74121242
:105913000B451235311259CB1252A95051890E75CC
:105923000F007403780E120A287479250EF5827419
:105933000C350FF583E0F8E50CC398502DE50B60AB
:105943002475110074037810120A2874732510F853
:10595300740C3511F988828983A3A3A3A3A3A3E5B8
:105963000C1259D5F07900024EE8790380F97900D9
:105973007AFE7BFF1259CBE49365107004790280A1
:10598300E6E50B60E0890E750F007403780E120ACA
:10599300287473250EF8740C350FF988828983A354
:1059A300EEF0A3EF1259D512516FE50C1240E974D2
:1059B300FF1265B4E50AF0900366E088828983A349
:1059C300A3A3A3A3A3A3809C120DF8E9F51090222F
:1059D300A6221266F7A3E508F0A3E5092274F612DE
:1059E300040FECFF120DF89022A61252A95027893A
:1059F3000875090074037808120A287478125A1F6C
:105A0300740C126266E0F8EFC3985006EFF0790069
:105A13008006790380027904023757EA2508F58264
:105A23002274F412040FEAFEEBFF120DF8E9F50AF3
:105A33009022A61252A95019750B007403780A120A
:105A43000A287476250AF582740C350B124E2380CE
:105A53001890034B1249AB600CEEFAEFFB123C2794
:105A6300121EB380047AFE7BFF0238F874F6120428
:105A73000F8A828B83A3A3A3A3A3E4F0F880010876
:105A83009022ACE493F9E8C399501E8808125ACDCA
:105A93008C828D83A3A3A3A3A3A3A3A3E06970DF35
:105AA300ECFAEDFB120F2A801EE4936870198C82C6
:105AB3008D83A3A3A3A3A3A3A3A3A37406F07A0034
:105AC3008C828D83125BF802375774FB2508F582AD
:105AD300740C125DB3F92274F412040FEAFEEBFFA7
:105AE3008E828F83A3A3E014125C0FA3E0F9120F3D
:105AF300068A088B09EA45097003025BD08E828F00
:105B030083A3A3E070358A828B83A3A3A3A3A3A358
:105B1300A3A3A3E064028A828B83A3A3A3A3A3A367
:105B2300A3A3A360107406F07AF08508828B831216
